:020000040800F2
:10000000680C002001010008352A0008651100086D
:10001000FD270008B50300080934000800000000AF
:10002000000000000000000000000000052D000896
:100030009308000800000000E92A0008592F000872
:100040001B0100081B0100081B0100081B01000820
:100050001B0100081B0100081B0100081B01000810
:100060001B0100081B0100081B0100081B01000800
:100070001B0100081B0100081B0100081B010008F0
:100080001B0100081B0100081B0100081B010008E0
:100090001B0100081B0100081B0100081B010008D0
:1000A0001B0100081B0100081B0100081B010008C0
:1000B000BD2F00081B0100081B0100081B010008E0
:1000C0001B0100081B0100081B0100081B010008A0
:1000D0001B0100081B0100081B0100081B01000890
:1000E0001B0100081B0100081B010008DFF80CD0F1
:1000F00000F03CF800480047013C0008680C002074
:100100000648804706480047FEE7FEE7FEE7FEE7B1
:10011000FEE7FEE7FEE7FEE7FEE7FEE75D2F0008ED
:10012000ED00000840EA01039B0703D009E008C97D
:10013000121F08C0042AFAD203E011F8013B00F8AC
:10014000013B521EF9D27047D2B201E000F8012BF8
:10015000491EFBD270470022F6E710B513460A4647
:1001600004461946FFF7F0FF204610BD064C074D28
:1001700006E0E06840F0010394E807009847103477
:10018000AC42F6D3FFF7B6FF50B1000870B10008DB
:1001900070B58C1810F8015B15F0070301D110F849
:1001A000013B2A1106D110F8012B03E010F8016B76
:1001B00001F8016B5B1EF9D12B0705D40023521EF9
:1001C0000DD401F8013BFAE710F8013BCB1A921C61
:1001D00003E013F8015B01F8015B521EF9D5A1425F
:1001E000D8D3002070BD21B1826842F00102826044
:1001F00003E0826822F001028260704721B18268C8
:1002000042F48072826003E0826822F4807282602D
:100210007047014600208A6802F004020AB10120FA
:1002200000E000207047014600208A6802F00802C2
:100230000AB1012000E000207047000030B50246FE
:100240000020002350680F4C20400D790C6844EAD0
:1002500005242043506090680B4C2040D1E90254A3
:100260002C434D7944EA450420439060D06A20F441
:1002700070000C7C641EE4B2234340EA0350D06259
:1002800030BD0000FFFEF0FFFDF7F1FFF0B50446C2
:100290000D4600200021092D11DDE068A5F10A06B8
:1002A00006EB4607072606FA07F18843A5F10A067A
:1002B00006EB460603FA06F10843E0600CE020690D
:1002C00005EB4507072606FA07F1884305EB4506C7
:1002D00003FA06F108432061072A0FDA606B561E05
:1002E00006EB86071F2606FA07F18843561E06EB23
:1002F000860605FA06F10843606322E00D2A0FDA4C
:10030000206BD61F06EB86071F2606FA07F18843E7
:10031000D61F06EB860605FA06F10843206310E0B7
:10032000E06AA2F10D0606EB86071F2606FA07F122
:100330008843A2F10D0606EB860605FA06F108438E
:10034000E062F0BD816841F008018160704721B131
:10035000826842F4A002826003E0826822F4A00274
:1003600082607047816841F00401816070470146F6
:10037000D1F80821885CD1F80821521CC1F8082165
:10038000D1F80821B2F5827F02D10022C1F80821FC
:100390007047D0F804218154D0F80421521CC0F8D1
:1003A0000421D0F80421B2F5827F02D10022C0F8E6
:1003B0000421704700BFFEE710B5054802F048FC75
:1003C00002F026FAC821052003F04CFC10BD000005
:1003D000C002002030B543780021012204E0845C93
:1003E0000C44A1B2541CA2B29A42F8DB0C12C454C1
:1003F0005C1C015530BD30B502460024012303E0EA
:10040000D05C204484B25B1C8B42F9DB481C105C3E
:10041000555C00EB0520A04201D1012030BD002039
:10042000FCE700002DE9F05F06460F4690461D46AA
:10043000B146BB4606F10F00C1B207F117033A46B9
:10044000304601F0EBFBA8F1200000F0FF084FF070
:10045000000A54E0002421E008EB48002A4901EB9F
:10046000001010F81A000121A140084058B11DB930
:100470000A9801F0E1FB0BE01FFA8BF148460A9A5B
:1004800001F0E0FB04E01DB946F24F2001F0D4FB7F
:1004900009F1010000F0FF09601CC4B2082CDBDB8D
:1004A000002423E008EB4800174901EB00114FEA54
:1004B0004A00401C085C0121A140084058B11DB908
:1004C0000A9801F0B9FB0BE01FFA8BF148460A9A33
:1004D00001F0B8FB04E01DB946F24F2001F0ACFB7F
:1004E00009F1010000F0FF09601CC4B2082CD9DB3F
:1004F0000BF1010BB1460AF1010000F0FF0ABAF15D
:10050000180FA7DBBDE8F09F315F00082DE9F05F11
:1005100082468B4616461D465746D9460AF11700B5
:10052000C1B20BF127035A46504601F077FBA6F102
:100530002000C6B24FF0000877E0002420E0C6EBB0
:1005400006103C4901EBC00008EB4801405C01216A
:10055000A140084058B11DB90A9801F06DFB0BE0AD
:100560001FFA89F138460A9A01F06CFB04E01DB9C4
:1005700046F24F2001F060FB781CC7B2601CC4B289
:10058000082CDCDB002421E0C6EB0610294901EB36
:10059000C00108EB4800401C085C0121A140084054
:1005A00058B11DB90A9801F047FB0BE01FFA89F119
:1005B00038460A9A01F046FB04E01DB946F24F2086
:1005C00001F03AFB781CC7B2601CC4B2082CDBDB1C
:1005D000002421E0C6EB0610164901EBC00108EB30
:1005E0004800801C085C0121A140084058B11DB999
:1005F0000A9801F021FB0BE01FFA89F138460A9AAC
:1006000001F020FB04E01DB946F24F2001F014FB7D
:10061000781CC7B2601CC4B2082CDBDB09F10109ED
:10062000574608F1010000F0FF08B8F1280F84DBFD
:10063000BDE8F09F317100082DE9F05F04460D46DA
:1006400016461F46A346AA46E01DC1B205F10F0398
:100650002A46204601F0E2FAA6F12000C6B24FF089
:10066000000830E04FF0000921E0194800EB0610C7
:1006700010F80800012101FA09F1084050B11FB932
:100680000A9801F0D9FA0AE0514658460A9A01F050
:10069000D9FA04E01FB946F24F2001F0CDFA0BF170
:1006A000010000F0FF0B09F1010000F0FF09B9F1B2
:1006B000080FDADB0AF101001FFA80FAA34608F1FD
:1006C000010000F0FF08B8F1100FCBDBBDE8F09F90
:1006D0003159000821B1026842F00102026004E0D1
:1006E00002684FF6FE731A400260704701684FF6C9
:1006F000FE72114001600021016041608160C160B3
:100700004B49884208D14A490839496841F00F01EC
:10071000474A083A51608AE045491431884208D175
:1007200043490839496841F0F001414A083A5160AB
:100730007DE03F492831884208D13D490839496860
:1007400041F470613A4A083A516070E038493C31EE
:10075000884208D136490839496841F47041344A21
:10076000083A516063E032495031884208D130493B
:100770000839496841F470212D4A083A516056E021
:100780002B496431884208D129490839496841F424
:100790007001274A083A516049E02549783188427A
:1007A00008D123490839496841F07061204A083A64
:1007B00051603CE01F49884206D1011F096841F0A1
:1007C0000F01021F116032E01A491431884208D12A
:1007D0001849091F096841F0F001164A121F1160FB
:1007E00025E014492831884208D11249091F0968B7
:1007F00041F470610F4A121F116018E00D493C313D
:10080000884208D10B49091F096841F47041094A1F
:10081000121F11600BE007495031884207D105498A
:10082000091F096841F47021024A121F11607047C4
:1008300008000240080402400146486880B2704740
:1008400010B50022026847F6F0739A430C6A8B6871
:1008500023430C6923434C6923438C692343CC69AC
:1008600023434C6A23438C6A23431A430260CB68B8
:1008700043600B6883604B68C36010BD036823F05E
:1008800001030360C1604260036843F00103036039
:100890007047704710B50446204602F01BFE10BD9D
:1008A00070B5044625460C2D6BD2DFE805F0060F27
:1008B000181D222B343D465360650121042002F0AF
:1008C000E1FA0121052002F0DDFA5BE001210420BC
:1008D00002F0D8FA0021052002F0D4FA52E00121FA
:1008E000062002F0CFFA4DE00021062002F0CAFAFD
:1008F00048E00121092002F0C5FA01210A2002F096
:10090000C1FA3FE00121092002F0BCFA00210A20CF
:1009100002F0B8FA36E00021092002F0B3FA002113
:100920000A2002F0AFFA2DE00021042002F0AAFA1A
:100930000021052002F0A6FA24E00121072002F0A0
:10094000A1FA4FF4827002F09DFD0021072002F011
:1009500099FA17E00121082002F094FA4FF482700E
:1009600002F090FD0021082002F08CFA0AE000213C
:100970000B2002F087FA05E001210B2002F082FA39
:1009800000E000BF00BF70BD10B5F8480078012836
:100990000AD102F0A5F90A20FFF782FF012001F039
:1009A0007FFA0220F1490870F0480078022805D14A
:1009B000EF48007810B10320EC490870EB4800784C
:1009C000032815D10020EB490870EB49086002208C
:1009D00001F066FA262001F063FA0420FFF760FFB9
:1009E0000020FFF75DFF0420E049087000F070FF71
:1009F000DE480078042826D1E0480078A8B100F04D
:100A00005FFF032001F04CFA0120FFF749FF4FF48C
:100A10007A7002F037FD0220FFF742FF0720D3492A
:100A200008700E2001F03CFA0DE0D548007850B176
:100A300000F046FF042001F033FA1320CB49087080
:100A4000002001F02DFAC9480078072824D1CD48AC
:100A50008088B0F5D96F11DDCA488088B0F5FA6F8B
:100A60000CDC0F2001F01CFA0820FFF719FF08200A
:100A7000BE490870052001F013FA0DE0C1488088D6
:100A8000B0F5D96F08DC102001F00AFA1320B7493D
:100A90000870002001F004FAB448007808283ED11C
:100AA000B8480088B0F51B7F1ADBB648008840F2D2
:100AB0004571884214DCB3484088B0F51B7F0FDBDA
:100AC000B048408888420BDC062001F0E9F9052097
:100AD000A6490870082001F0E3F903F099F91EE037
:100AE000A8480088B0F51B7F0EDBA648008840F2BE
:100AF0004571884208DCA3484088B0F51B7F03DBC2
:100B0000A048408888420ADD072001F0C9F9132077
:100B100096490870002001F0C3F903F09FF993484B
:100B2000007805282FD19848007803280CD10020A0
:100B30009549087013208D490870002001F0B0F924
:100B40000A2001F0ADF91EE0012140F6B83000F0B6
:100B5000D7FF38B103F05CF98B480078401C8A4914
:100B6000087010E08948007868B100208749087053
:100B7000092001F095F906207C49087002F0D2F8AE
:100B80000B2001F08DF97948007806283ED1804885
:100B9000007803280CD100207D4908701320734988
:100BA00008700D2001F07CF9002001F079F92DE0AA
:100BB00002214FF47A6000F0A3FF38B102F0B2F8DE
:100BC00073480078401C724908701FE07148007833
:100BD000E0B100206F4908700C2001F061F90A2093
:100BE000624908700B20FFF75BFE112001F058F9F5
:100BF0004FF47A7002F046FC5A2240F6B8310120D8
:100C000001F0BAFE644800685B4908605748007804
:100C10000A2840D1042141F2883000F071FF80B1F0
:100C2000002240F6B831012001F0A6FE13204F4902
:100C3000087001F035F9002001F032F903F00EF9E7
:100C400029E055480068B0F5700F24D25349087860
:100C500003F00EF95049096888421CD846480068DC
:100C60004F4908444C490968884214D3122001F0C6
:100C700017F9002240F6B831012001F07DFE0B206B
:100C80003A490870142001F00BF9322240F6B831CD
:100C9000012001F071FE354800780B2844D1052170
:100CA00042F2107000F02CFF78B1002240F6B8310B
:100CB000012001F061FE13202C490870162001F07C
:100CC000EFF8002001F0ECF82EE02B4800683549E1
:100CD000084431490968884208D8002240F6B831F2
:100CE000012001F049FE01202249087021480078C6
:100CF000D0B106214FF4FA6000F002FFA0B10A2043
:100D0000FFF7CEFD002404E04FF47A7002F0BAFB46
:100D1000641C052CF8DB262001F0C2F800201549E0
:100D200008700C2011490870104800780C284AD12E
:100D300012480078C0B300F0C3FD152001F0B0F8F0
:100D4000172001F0ADF803F04FF84FF47A7002F07D
:100D500099FB262001F0A4F80D20044908700A2010
:100D6000FFF79EFD0420FFF79BFD2CE06C000020A8
:100D70009400002078000020380000209700002018
:100D80009100002024000020440000206D0000207D
:100D90004C0000206E00002030000020AC3E000817
:100DA000D469030036C10300FFE78648007850B1DC
:100DB00000F086FD162001F073F8132082490870B8
:100DC000002001F06DF8804800780D282DD17F4873
:100DD0000078E0B100F074FD182001F061F8052002
:100DE000FFF75EFD03F000F80E20774908701A2027
:100DF00001F056F8002404E04FF47A7002F042FB50
:100E0000641C032CF8DB262001F04AF80DE06D4845
:100E1000007850B100F054FD192001F041F8132082
:100E200069490870002001F03BF8674800780E28F7
:100E30002DD166480078E0B100F042FD1B2001F0A2
:100E40002FF80620FFF72CFD02F0CEFF0F205E49A1
:100E500008701D2001F024F8002404E04FF47A709B
:100E600002F010FB641C052CF8DB262001F018F8BA
:100E70000DE05448007850B100F022FD1C2001F034
:100E80000FF8132050490870002001F009F84E486F
:100E900000780F282CD14D480078D8B100F010FD13
:100EA0001E2000F0FDFF0420FFF7FAFC202000F0D8
:100EB000F7FF02F0D3FF0121042001F0E3FF4FF41C
:100EC000FA7002F0DFFA262000F0EAFF10203E4917
:100ED00008700DE03B48007850B100F0F1FC1F2095
:100EE00000F0DEFF132038490870002000F0D8FF22
:100EF00035480078102821D13448007880B100F0BE
:100F0000DFFC212000F0CCFF02F06EFF11202E4903
:100F10000870232000F0C4FF262000F0C1FF0DE080
:100F20002848007850B100F0CBFC222000F0B8FF38
:100F3000132025490870002000F0B2FF22480078F5
:100F4000112822D12148007870B100F0B9FC24208A
:100F500000F0A6FF12201C490870272000F0A0FF17
:100F60000120FFF79DFC10E01648007868B100F002
:100F7000A7FC252000F094FF1320134908700020DF
:100F800000F08EFF0120FFF78BFC0F48007813283C
:100F900003D00D48007812280FD10D48007860B1B9
:100FA0000A20FFF77DFC00F08BFC02200649087048
:100FB000012000F075FF02F051FF0A21012002F02C
:100FC00051FE10BD910000206C0000209700002011
:100FD000940000202DE9F041024600250026002063
:100FE00000230024002791F803C00CF00F0591F8AE
:100FF00003C00CF0100CBCF1000F03D091F802C03C
:101000004CEA050591F800C0BCF1000F31D014681E
:1010100000202BE04FF0010C0CFA00F3B1F800C0F7
:101020000CEA03069E4220D183004FF00F0C0CFA0D
:1010300003F7BC4305FA03FC4CEA040491F803C02F
:10104000BCF1280F06D14FF0010C0CFA00FCC2F8DD
:1010500014C00AE091F803C0BCF1480F05D14FF06D
:10106000010C0CFA00FCC2F810C0401C0828D1D3B7
:101070001460B1F800C0BCF1FF0F34DD54680020EB
:101080002EE000F1080C4FF0010808FA0CF3B1F85B
:1010900000C00CEA03069E4221D183004FF00F0CE2
:1010A0000CFA03F7BC4305FA03FC4CEA040491F87C
:1010B00003C0BCF1280F05D100F1080C08FA0CF8A8
:1010C000C2F8148091F803C0BCF1480F07D100F1B9
:1010D000080C4FF0010808FA0CF8C2F81080401C08
:1010E0000828CED35460BDE8F08102460020936802
:1010F0000B400BB1012000E00020704741617047B8
:1011000001617047014601F582720CCA9A4204DB04
:1011100001F582720CCAD01A06E0D1F8042102F55A
:101120008272D1F80831D01A7047000010B5024819
:10113000FFF782FB10BD00006C000240027912062E
:10114000437902EB0342837902EB0322C3791A4409
:10115000024B1A600122024B1A7070477C0000207B
:101160006F00002000BFFEE710B500244FF4807030
:10117000124908600520FFF78DFB4FF400700F49FE
:1011800008600520FFF786FB00F040F81420FFF709
:1011900081FB0A48083800680020041200F048F873
:1011A0000520FFF777FB4FF400700449091D086024
:1011B0001920FFF76FFB204610BD0000100C014006
:1011C00070B5002400F022F8002518E04FF40070FC
:1011D0000D4908600520FFF75DFB6006040E0A4814
:1011E00008380068C0F3002004434FF4007006493B
:1011F000091D08600520FFF74DFB681CC5B2082DCE
:10120000E4DB204670BD0000100C014008B54FF42F
:101210008070ADF8000004208DF8030001208DF8E7
:10122000020069460148FFF7D5FE08BD000C0140E9
:1012300008B54FF48070ADF8000014208DF803005D
:1012400001208DF8020069460148FFF7C3FE08BD82
:10125000000C014010B5FFF7EBFF4FF48070084918
:1012600008604000091F08600520FFF713FB4FF4DA
:101270000070034908600520FFF70CFB10BD00005B
:10128000140C014070B50446002522E004F08000F3
:1012900020B14FF480701049086004E04FF4807072
:1012A0000D49091D08606006040E0520FFF7F2FADB
:1012B0004FF40070084908600520FFF7EBFA4FF47F
:1012C00000700549091D08600520FFF7E3FA681C56
:1012D000C5B2082DDADB70BD100C014010B5FFF768
:1012E000A7FF4FF48070084908604000086005209F
:1012F000FFF7D0FA4FF400700349091D086005207C
:10130000FFF7C8FA10BD0000100C014010B5FFF740
:101310008FFF4FF480700A49086040000860052084
:10132000FFF7B8FA4FF480700549091D08600520E1
:10133000FFF7B0FA4FF400700149091D086010BDB5
:10134000100C014010B54FF480700849086040004F
:10135000091F08600520FFF79DFA4FF480700349CC
:10136000091F08600520FFF795FA10BD140C014015
:1013700008B50121082001F0E5FB4FF48070ADF8BD
:10138000000014208DF8030001208DF8020069464A
:101390000548FFF71FFE4FF40070ADF800006946E6
:1013A0000148FFF717FE08BD000C014000B591B0E1
:1013B0004FF4804001F09AFB0121084601F0A2FBA6
:1013C00001214FF4017001F0BDFB0120ADF8400098
:1013D00000208DF8430010A94048FFF7FBFD0220D4
:1013E000ADF8400010A93D48FFF7F4FD8020ADF8AE
:1013F000400010A93948FFF7EDFD3948FFF776F9AD
:101400003848009038480190002002900320039053
:1014100000200490802005904000069080000790F6
:10142000202008900002099000200A9069462C486C
:10143000FFF706FA01212A48FFF74CF900200B902C
:1014400001208DF830008DF831004FF460200D90B0
:1014500000200E9003208DF83C000BA921484C3849
:10146000FEF7ECFE0523012200211E484C38FEF752
:101470000DFF0523022201211A484C38FEF706FF12
:1014800005230322072117484C38FEF7FFFE0121F0
:1014900014484C38FEF7B2FE012112484C38FEF7D2
:1014A000A2FE10484C38FEF74DFF00BF0D484C38E7
:1014B000FEF7B9FE0028F9D10A484C38FEF752FF72
:1014C00000BF08484C38FEF7A4FE0028F9D10121DE
:1014D00004484C38FEF73BFF11B000BD0008014046
:1014E000080002404C2401402400002008B50220DE
:1014F000ADF8000003208DF8020010208DF80300E5
:1015000069460248FFF766FD08BD0000000C014077
:1015100008B58020ADF8000003208DF802001020EF
:101520008DF8030069460248FFF754FD08BD00002E
:10153000000C014008B54FF48070ADF800000320A6
:101540008DF8020010208DF8030069461048FFF75F
:1015500041FD4FF40070ADF8000069460C48FFF7FC
:1015600039FD4FF40040ADF8000069460948FFF727
:1015700031FD4FF400410748FFF7C0FD642001F042
:1015800081FF4FF400410348FFF7BAFD08BD00009A
:10159000000C01400008014008B54FF48070ADF820
:1015A000000003208DF8020010208DF8030069462A
:1015B0000948FFF70FFD4FF40070ADF800006946D1
:1015C0000548FFF707FD4FF48060ADF8000069465D
:1015D0000148FFF7FFFC08BD0010014008B54FF4BB
:1015E0008060ADF8000003208DF8020010208DF817
:1015F000030069464E48FFF7EDFC4FF40060ADF87C
:10160000000069464A48FFF7E5FC4FF4006148488E
:10161000FFF776FD4FF48050ADF80000694644486E
:10162000FFF7D8FC4FF480514148FFF769FD4FF4B4
:101630000050ADF8000069463D48FFF7CBFC4FF481
:1016400000513B48FFF75CFD4FF48040ADF80000CF
:1016500069463748FFF7BEFC4FF480413448FFF736
:101660004FFD4FF40040ADF8000069463048FFF7E9
:10167000B1FC4FF400412E48FFF742FD0120ADF8C8
:10168000000069462B48FFF7A5FC01212948FFF718
:1016900037FD0220ADF8000069462648FFF79AFCA6
:1016A00002212448FFF72CFD0420ADF80000694614
:1016B0002048FFF78FFC04211E48FFF721FD08207A
:1016C000ADF8000069461B48FFF784FC0821194863
:1016D000FFF716FD1020ADF8000069461548FFF72A
:1016E00079FC10211348FFF70BFD2020ADF8000016
:1016F00069461048FFF76EFC20210E48FFF700FDF9
:101700004020ADF8000069460A48FFF763FC40211D
:101710000848FFF7F5FC8020ADF800006946054851
:10172000FFF758FC80210348FFF7EAFC08BD0000E2
:10173000000C01400010014008B50120ADF8000088
:1017400003208DF8020010208DF80300694602483E
:10175000FFF740FC08BD0000000C014008B54FF445
:101760008050ADF8000003208DF8020010208DF8A5
:10177000030069460148FFF72DFC08BD0010014039
:1017800010B501F03DF901F0C3F810BD08B54020D7
:10179000ADF8000003208DF8020048208DF803000A
:1017A00069460248FFF716FC08BD0000000801402A
:1017B0000021C0F80811C0F804114FF48271C0F87C
:1017C0000C110021C0F810117047000008B520204E
:1017D000ADF8000003208DF8020048208DF80300CA
:1017E00069460248FFF7F6FB08BD0000000801400B
:1017F00008B54FF40060ADF8000003208DF802003A
:1018000010208DF8030069460148FFF7E3FB08BD8F
:101810000010014008B51020ADF8000003208DF83D
:10182000020048208DF8030069460248FFF7D2FB0A
:1018300008BD00000008014010B5F822064907481D
:1018400001F0CDFE4FF48271054801F0C1FC05485E
:10185000FFF7AEFF10BD0000E4040020D804002014
:10186000D4030020C002002008B54FF40060ADF89A
:10187000000003208DF8020010208DF80300694657
:101880000548FFF7A7FB4FF48050ADF8000069460C
:101890000148FFF79FFB08BD0008014008B54FF461
:1018A0008070ADF8000003208DF8020048208DF80C
:1018B000030069460148FFF78DFB08BD00080140A1
:1018C00000B500F0B3F800F0A3F800F093F800BD05
:1018D00001202049087000201F4908601F49087036
:1018E00001201F49087000201E4908601E49087029
:1018F00001201E49087000201D4908601D4908701C
:1019000001201D49087000201C49086001201C4965
:10191000087000201B49086001201B490870002046
:101920001A4908601A4908601A4908601A4908608B
:101930001A4908701A4908701A4908601A4908605B
:101940001A4908701A4908701A4908701A4908603B
:10195000704700003C0000204000002044000020B0
:1019600045000020480000204C0000204D000020D1
:101970005000002054000020550000205800002096
:101980005C0000206000002064000020680000204F
:1019900080000020380000207C000020780000201B
:1019A0007900002070000020740000206D000020ED
:1019B0006E0000206F0000203000002010B5FFF7FF
:1019C000D7FCFFF7A3FC3020FFF75CFCFFF7CCFB54
:1019D000AA20FFF757FCFFF7C7FB0020FFF752FCD8
:1019E000FFF7C2FB0020FFF74DFCFFF7BDFBFFF741
:1019F000A9FC10BD00200349087003490870034981
:101A00000870704795000020960000209700002085
:101A100000200349087003490870034908707047A3
:101A20009200002093000020940000200020034931
:101A30000870034908700349087070478F00002040
:101A4000900000209100002010B5FFF75FFC3120CE
:101A5000FFF718FCFFF788FBFFF7B2FB0446FFF720
:101A60003DFCFFF76FFC402C01D1012010BD002090
:101A7000FCE7000070B502460C465378042108E0EC
:101A8000555C081F054E305C854201D0002070BDBA
:101A9000491C9942F4DB0120F9E70000AC3E000844
:101AA00070B502460C465378042109E0555C01F1FB
:101AB000EE00054E305C854201D0002070BD491C0F
:101AC0009942F3DB0120F9E7AC3E000810B502466D
:101AD0000020732910D1094B1B781479A3420CD133
:101AE000064B5B785479A34207D1044B9B789479D9
:101AF000A34202D1012000E0002010BD6040000898
:101B0000024607292FD2DFE801F02E040B1219201C
:101B100027003348334B18603348344B186023E0B8
:101B20003348304B18603348304B18601CE0324863
:101B30002C4B186031482D4B186015E03048294B6C
:101B400018603048294B18600EE02F48254B18606C
:101B50002E48264B186007E02D48224B18602D4870
:101B6000224B186000E000BF00BF1E4800680078EC
:101B7000012808D1284800681C4B1B681860002009
:101B8000184B1B681870244800681044224B1B68CF
:101B9000984210D22048006810441F4B1B6898429E
:101BA0001BD101200F4B1B68187000200F4B1B68C6
:101BB0001860012070470D4800680068164B1B68CC
:101BC000181A904209D30120064B1B681870002098
:101BD000064B1B6818600120ECE70020EAE70000D4
:101BE0003C00002070000020400000207400002015
:101BF00045000020480000204D000020500000203B
:101C000055000020580000205C00002060000020EB
:101C10006400002068000020180000202DE9F04139
:101C200004460D4616461F463B4632462946204688
:101C300001F028FFBDE8F08110B50446204601F010
:101C400055FF10BD70B504460D461646324629466E
:101C5000204601F07DFF70BD10B500207A49086074
:101C6000142001F00FFC01207849C1F8BC014FF4A9
:101C7000487001F007FC112001F045F8782001F0D0
:101C800001FC352001F03FF8002001F043F8362038
:101C900001F039F8002001F03DF8B22001F033F8EE
:101CA0000C2001F037F80C2001F034F8002001F08E
:101CB00031F8332001F02EF8332001F02BF8B72053
:101CC00001F021F8352001F025F8BB2001F01BF8C8
:101CD000192001F01FF8C02001F015F82C2001F0A8
:101CE00019F8C22001F00FF8012001F013F8C32009
:101CF00001F009F81D2001F00DF8C42001F003F8EF
:101D0000202001F007F8C62000F0FDFF0F2001F0B1
:101D100001F8D02000F0F7FFA42000F0FBFFA12085
:101D200000F0F8FFE82000F0EEFF832000F0F2FF63
:101D3000E02000F0E8FFD22000F0ECFF112000F0DE
:101D4000E9FF162000F0E6FF0D2000F0E3FF0D2074
:101D500000F0E0FF382000F0DDFF3D2000F0DAFF6A
:101D6000442000F0D7FF4C2000F0D4FF1C2000F0EE
:101D7000D1FF152000F0CEFF152000F0CBFF1C2076
:101D800000F0C8FF202000F0C5FFE12000F0BBFFFD
:101D9000D22000F0BFFF112000F0BCFF162000F0A1
:101DA000B9FF0D2000F0B6FF0D2000F0B3FF382082
:101DB00000F0B0FF3D2000F0ADFF442000F0AAFF8E
:101DC0004C2000F0A7FF1C2000F0A4FF152000F01D
:101DD000A1FF152000F09EFF1C2000F09BFF20209B
:101DE00000F098FF3A2000F08EFF552000F092FF9F
:101DF000292000F088FF0A2001F044FB2A2000F08F
:101E000082FF002000F086FF002000F083FF00200A
:101E100000F080FFEF2000F07DFF2B2000F073FF2B
:101E2000002000F077FF002000F074FF012000F098
:101E300071FF3F2000F06EFF782001F023FB2C2083
:101E400000F061FF10BD0000BC81214200802142F2
:101E50002DE9F8430746884614461E46DDE90895F5
:101E6000102C07D14B463246414638460095FEF7C6
:101E7000E3FB12E0182C07D14B4632464146384668
:101E80000095FEF7CFFA08E0282C06D14B463246E3
:101E9000414638460095FEF739FBBDE8F88300005F
:101EA00001B584B0049803900398262818D14FF602
:101EB000E0700021FAA31822CDE900104FF49171CF
:101EC000642001F06BFB4FF6E0700021F5A31822AF
:101ED000CDE900104FF49171C82001F05FFB09E0DB
:101EE00046F24F2040F23F13EF22E62100900020FF
:101EF00001F062FE039828287DD2DFE810F0350457
:101F000028008500B801C401B50075038103C10034
:101F10002D033903CD0045035103A9005D03690377
:101F2000D9008D039903E500A503B1030A01BD03A0
:101F3000C9032401D503E1034901ED03F9036E014F
:101F40000504110493011D0429047C00520401209E
:101F500001F078FF46F24F2040F23F13EF220021BC
:101F60000090084601F028FE4FF6E0700021CE4BAD
:101F70001022CDE90010B42001F010FB4FF6E07004
:101F80000021CAA31822CDE900103C21002001F055
:101F900005FB4FF6E0700021C9A31022CDE9001027
:101FA0007821002001F0FAFA4FF6E0700021CCA36E
:101FB0001022CDE900108B21002001F0EFFA4FF63E
:101FC000E0700021CCA31022CDE90010AD2100204B
:101FD00001F0E4FA4FF6E0700021CFA31022CDE922
:101FE0000010C021002001F0D9FA4FF6E070002166
:101FF000CFA3182200E0EEE3CDE900104FF4917179
:10200000002001F0CBFAE8E346F24F2040F23F1304
:10201000EF2200210090084601F0CEFD4FF6FF7040
:102020000021C5A31022CDE900100521002001F0F8
:10203000B5FA4FF6E0700021C5A31022CDE90010DB
:102040004FF48271002001F0A9FA01F0EEF9C4E327
:102050004FF6FF700021C6A31022CDE90010182111
:10206000002001F09BFAB8E34FF6FF700021C5A3F2
:102070001022CDE900102B21002001F08FFAACE3F3
:102080004FF6FF700021C4A31022CDE900103E21BD
:10209000002001F083FAA0E34FF6FF700021C4A3F3
:1020A0001022CDE900105121002001F077FA94E3CD
:1020B0004FF6FF700021C4A31022CDE90010642167
:1020C000002001F06BFA88E34FF6FF700021C4A3F3
:1020D0001022CDE900107721002001F05FFA4FF6C1
:1020E000E0700021C4A31022CDE90010F1210020EE
:1020F00001F054FA4FF6E0700021C5A31022CDE99B
:1021000000104FF48271002001F048FA01F08DF9BF
:1021100063E34FF6FF700021C3A31022CDE9001046
:102120008A21002001F03AFA4FF6E0700021C4A3A2
:102130001022CDE900104FF48271002001F02EFA38
:1021400001F073F949E34FF6FF700021C3A3102299
:10215000CDE900109D21002001F020FA4FF6E0703B
:102160000021C5A31022CDE90010F121002001F0CB
:1021700015FA4FF6E0700021C7A31022CDE9001038
:102180004FF48271002001F009FA01F04EF924E3C6
:102190004FF6FF700021C7A31022CDE90010B02137
:1021A000002001F0FBF94FF6E070002192A310220D
:1021B000CDE90010F121002001F0F0F94FF6E070B8
:1021C000002193A31022CDE900104FF4827100206A
:1021D00001F0E4F901F029F9FFE24FF6FF70002168
:1021E000BAA31022CDE90010C321002001F0D6F9D6
:1021F0004FF6E0700021BCA31022CDE90010F121C0
:10220000002001F0CBF94FF6E0700021BDA31022B1
:10221000CDE900104FF48271002001F0BFF901F008
:1022200004F9DAE24FF6FF700021BBA31022CDE9DA
:102230000010D621002001F0B1F94FF6E070002126
:10224000BCA31022CDE90010F121002001F0A6F975
:102250004FF6E0700021ABA31022CDE900104FF43F
:102260008271002001F09AF901F0DFF8B5E24FF435
:10227000FC600021B64B1022CDE900100521DC20C6
:1022800001F08CF9A9E24FF478400021B14B102203
:10229000CDE900100521DC2001F080F99DE200006D
:1022A000596573004E6F000088000020535441525E
:1022B000542054455354494E542E2E2E00000000F5
:1022C000312E506C6561736520707574207468657B
:1022D00020746F206265207465737465640000006B
:1022E000454D442050434241206F6E207468652064
:1022F0006E6573742E000000322E506C656173653C
:1023000020737472657373207468652074657374C8
:102310002070696E00000000746F20636F6E6E6540
:1023200063742074686520504342412E0000000011
:102330005374617274000000312E536C6565702017
:1023400063757272656E74203C343075413F0000D5
:102350005468652063757272656E74206D6574656E
:10236000722076616C75653C343075413F00000029
:10237000322E44432F444320776F726B73206F6B70
:102380003F000000332E4D6F746F727320776F72B1
:102390006B73206F6B3F0000342E535720766572AD
:1023A00073696F6E20697320312E322E313F000029
:1023B000352E506172616D6574657273206172654E
:1023C0002072696768743F00362E312E306D6D487B
:1023D000672074726967676572206F6B3F00000049
:1023E000372E32306D6D4867207472696767657289
:1023F000206F6B3F000000004C454420736F6C69F8
:10240000642079656C6C6F7720616E640000000059
:1024100076696261726174696F6E20666F722035D1
:102420002074696D65733F00382E576F726B206F93
:102430006B206F6E2056623E322E36563F000000F3
:102440004C454420677265656E20616E6420766934
:102450006261726174696F6E3F000000392E576FC0
:10246000726B206F6B206F6E20322E3435563C56C7
:10247000623C322E36563F0059656C6C6F77204CAB
:1024800045442066616C736820352074696D6573FE
:10249000207468656E0000007475726E2067726546
:1024A000656E20616E642076696261726174696F25
:1024B0006E3F000031302E576F726B206F6B206FB4
:1024C0006E2056623C322E3435563F0031312E4D4F
:1024D000616E75616C20706F776572206F6E2F6F03
:1024E0006666206F6B3F0000506C656173207072F0
:1024F00065737320504F57455220627574746F6E28
:1025000020746F0073656520696620697420776F99
:10251000726B73206F6B3F0031322E4D616E7561AF
:102520006C2063686F6F7365206D6F6465206F6BDF
:102530003F000000506C65617320707265737320FA
:102540004D4F444520627574746F6E20746F0000A7
:1025500084000020860000204FF4FC600021A04B86
:102560001022CDE900103E21DC2001F017F834E103
:102570004FF4784000219B4B1022CDE900103E2102
:10258000DC2001F00BF828E14FF4FC600021944BB3
:102590001022CDE900105121DC2000F0FFFF1CE1EA
:1025A0004FF4784000218F4B1022CDE900105121CB
:1025B000DC2000F0F3FF10E14FF4FC600021884BB9
:1025C0001022CDE900101821DC2000F0E7FF04E123
:1025D0004FF478400021834B1022CDE900101821E0
:1025E000DC2000F0DBFFF8E04FF4FC6000217C4BC6
:1025F0001022CDE900102B21DC2000F0CFFFECE011
:102600004FF478400021774B1022CDE900102B21A8
:10261000DC2000F0C3FFE0E04FF4FC600021704BD1
:102620001022CDE900106421DC2000F0B7FFD4E0D7
:102630004FF4784000216B4B1022CDE9001064214B
:10264000DC2000F0ABFFC8E04FF4FC600021644BDD
:102650001022CDE900107721DC2000F09FFFBCE0C4
:102660004FF4784000215F4B1022CDE90010772114
:10267000DC2000F093FFB0E04FF4FC600021584BE9
:102680001022CDE900108A21DC2000F087FFA4E0B1
:102690004FF478400021534B1022CDE900108A21DD
:1026A000DC2000F07BFF98E04FF4FC6000214C4BF5
:1026B0001022CDE900109D21DC2000F06FFF8CE09E
:1026C0004FF478400021474B1022CDE900109D21A6
:1026D000DC2000F063FF80E04FF4FC600021404B01
:1026E0001022CDE90010B021DC2000F057FF74E08B
:1026F0004FF4784000213B4B1022CDE90010B0216F
:10270000DC2000F04BFF68E04FF4FC600021344B0C
:102710001022CDE90010C321DC2000F03FFF5CE077
:102720004FF4784000212F4B1022CDE90010C32137
:10273000DC2000F033FF50E04FF4FC600021284B18
:102740001022CDE90010D621DC2000F027FF44E064
:102750004FF478400021234B1022CDE90010D62100
:10276000DC2000F01BFF38E04FF4784000211EA36E
:102770002822CDE90010F821502000F00FFF4FF67D
:10278000E0700021AFF258431822CDE900104FF459
:102790009171002000F002FF01F060FB00F045FEA7
:1027A0001BE04FF4FC60002111A32822CDE90010AA
:1027B000F821502000F0F2FE4FF6E07000210EA349
:1027C0001822CDE900104FF49171002000F0E6FED0
:1027D00000F02BFE01E0FFE700BF00BF05B000BD29
:1027E00084000020860000204641494C0000000083
:1027F0005041535300000000456E640000BFFEE7E7
:1028000010B50446204601F0B7FA012010BD0000C3
:1028100070B5384D00263848FEF774FC86B264E087
:102820003548FDF7A4FD04463448007800284AD016
:102830003348007860B3334800782C54314800782E
:10284000401C3049087030480078401E2E490870FE
:1028500008460078002846DC69782846FDF7CBFD5D
:1028600058B14FF4967223492848FDF75BFC27487E
:10287000FFF7C6FF022000F005FE00201F49087088
:102880001F4908704FF496711A48FDF764FC2AE05E
:1028900040F22B10844210DA002C0EDD1548194945
:1028A00009784454184804700120154908701548E7
:1028B0000078401C1349087015E000200F4908708B
:1028C0000F4908700FE0FF2C0DD10A480470012059
:1028D0000A49087000200A49087001200949087057
:1028E000002009490870701E86B2002E98DC012075
:1028F00070BD0000DC050020C00200202A0000207E
:102900002B0000202C0000202D00002008070020B4
:1029100000B587B044F24F60ADF8140040F2E730E4
:10292000ADF810000020ADF81600ADF8120004A9B3
:10293000104800F0DFFB6020ADF800000020ADF88B
:1029400008000120ADF802000020ADF8060069463D
:10295000084800F079FB0821064800F0C1FB01217E
:10296000044800F038FB0121024800F046FB07B0A4
:1029700000BD000000080040F0B587B007460C46D7
:102980001546012C37DB4CF25030844233DC642D89
:1029900031DC44F2506090FBF4F0401E80B2ADF8A0
:1029A000140040F2E730ADF810000020ADF816003A
:1029B000ADF81200BDF81400461C6E436420B6FB4F
:1029C000F0F66020ADF800000020ADF8080001200E
:1029D000ADF80200B0B2ADF80600012F0BD104A98A
:1029E000064800F087FB6946044800F02DFB0821EB
:1029F000024800F075FB07B0F0BD00000008004081
:102A000008B50121042000F08DF80121092000F013
:102A100099F84020ADF8000018208DF8030003203D
:102A20008DF8020069460248FEF7D4FA08BD00009E
:102A3000000C01407047000070B5002100230F22F8
:102A4000C47804B3154C246804F4E064C4F5E0646D
:102A5000210AC1F10403CA40447804FA03F18478DE
:102A60001440214309010E4C0678A155047804F066
:102A70001F050124AC4005786D11AD0005F1E0257E
:102A8000C5F8004109E0047804F01F050124AC40BA
:102A9000044D0678761145F8264070BD0CED00E037
:102AA00000E400E080E100E00C4A11600C4AD268CA
:102AB00002F47F42C3B21A43094BDA600022094B89
:102AC000C3F8B821054B1B1F1A6001221A60034B83
:102AD0001B1D1A60034BC3F8B4217047B481214217
:102AE0000010014000802142704700000146002094
:102AF000034A506820F4404008435060704700008B
:102B00000010024029B1064A52690243044B5A613F
:102B100004E0034A52698243014B5A617047000046
:102B20000010024029B1064AD2690243044BDA611F
:102B300004E0034AD2698243014BDA617047000026
:102B40000010024029B1064A92690243044B9A617F
:102B500004E0034A92698243014B9A617047000086
:102B60000010024030B500210022002400232D4D2A
:102B70006D6805F00C0121B1042905D0082923D185
:102B800005E0294D056022E0274D05601FE0254D39
:102B90006D6805F47012234D6D6805F480340225CC
:102BA00005EB92421CB9214D554305600BE01D4DCC
:102BB0006D6805F400351DB11C4D5543056002E0FC
:102BC000194D5543056002E0174D056000BF00BF79
:102BD000144D6D6805F0F0010909154D6B5C056831
:102BE000DD4045600F4D6D6805F4E061090A104D48
:102BF0006B5C4568DD4085600A4D6D6805F4605189
:102C0000C90A0B4D6B5C4568DD40C560054D6D68BC
:102C100005F44041890B074D6B5CC568B5FBF3F5C6
:102C2000056130BD0010024000127A0000093D002D
:102C3000000000201000002001460020034A5068D8
:102C400020F4E0600843506070470000001002402C
:102C50002DE9F0410446FEF769FA0746D4F80C0165
:102C6000B84203DBD4F80C01C61B04E0D4F80C0115
:102C700000F58270C61BC4F80C7100251BE0D4F867
:102C800010012844B0F5827F0BDBD4F810012844F2
:102C9000A0F5827004F58A72115C2046FDF779FB7D
:102CA00008E0D4F81001421904F58A70815C2046CE
:102CB000FDF76FFB6D1CB542E1DBD4F81001304429
:102CC000C4F81001D4F81001B0F5827F05DBD4F808
:102CD0001001A0F58270C4F81001BDE8F081000079
:102CE00010B54FF400410648FEF708FA642000F0E2
:102CF000C9FB4FF400410248FEF702FA10BD000084
:102D000000080140704710B5044600212046FFF737
:102D1000CBFE10BD10B5044601212046FFF7C4FECE
:102D200010BD00001CB5FF208DF8000005208DF8B7
:102D3000010001208DF8020005208DF8030001201C
:102D40008DF804006846FDF745FB9DF80100821CE4
:102D50006946024800F069FC1CBD0000D804002050
:102D60001CB5FF208DF8000005208DF80100012022
:102D70008DF8020006208DF8030001208DF8040074
:102D80006846FDF727FB9DF80100821C6946024852
:102D900000F04BFC1CBD0000D804002010B500F072
:102DA00001F810BD0CB50020019000903348006878
:102DB00040F480303149086000BF3048006800F4BA
:102DC000003000900198401C0190009818B90198BB
:102DD000B0F5A06FF1D12948006800F4003010B1BF
:102DE0000120009001E0002000900098012843D1CC
:102DF0002348006840F01000214908600846006838
:102E000020F0030008600846006840F002000860F7
:102E10001A484068194948600846406848600846B2
:102E2000406840F4806048600846406820F47C10A8
:102E300048600846406840F4E8104860084600686A
:102E400040F08070086000BF0C48006800F000701F
:102E50000028F9D00948406820F00300074948607D
:102E60000846406840F00200486000BF03484068E0
:102E700000F00C000828F9D10CBD00000010024041
:102E8000002002402DE9F04104460D460027B846D7
:102E900026460C2E37D2DFE806F0060A0E12161A66
:102EA0001E2A2E2226321F4F4FF001082CE01D4F04
:102EB0004FF0020828E01C4F4FF0200824E01A4F82
:102EC0004FF0100820E0194F4FF480781CE0174FA6
:102ED0004FF4007818E0154F4FF4806814E0124F5B
:102EE0004FF4006810E0104F4FF480580CE00F4F83
:102EF0004FF4006808E00D4F4FF4805804E00A4F8B
:102F00004FF4807800E000BF00BF25B1414638464D
:102F1000FEF7F6F803E041463846FEF7EFF8BDE865
:102F2000F0810000000C0140000801400010014049
:102F3000042808D14FF0E021096941F004014FF065
:102F4000E022116107E04FF0E021096921F004015E
:102F50004FF0E022116170477047000010B5134830
:102F6000006840F0010011490860084640681049B7
:102F700008400E494860084600680E4908400B4961
:102F800008600846006820F4802008600846406811
:102F900020F4FE0048604FF41F008860FFF7FEFE3B
:102FA0004FF000600449086010BD000000100240AE
:102FB0000000FFF8FFFFF6FE08ED00E010B501216C
:102FC000880700F026F828B100F072FE012188077A
:102FD00000F010F810BD21B1028842F0800202809A
:102FE00004E002884FF67F731A4002807047CA439C
:102FF00002827047CA430282704721B1028842F0C0
:103000000102028004E002884FF6FE731A4002803B
:10301000704730B50246002000230024158A05EAD7
:103020000103958905EA010413B10CB1012000E008
:10303000002030BD1AB183890B43838102E083896C
:103040008B4383817047000070B500240022002369
:10305000058C4FF6FE7635400584028C8388048B00
:103060004FF68F752C40B51E2C400D882C43751ED5
:103070002A400D892A434D882A43144DA8420BD07B
:10308000134DA84208D0134DA84205D0124DA842B6
:1030900002D0124DA84213D14FF6F7752A404D8940
:1030A0002A434FF6FB752A408D882A434FF6FF6569
:1030B0002B404FF6FF552B408D892B43CD892B4359
:1030C00083800483CD888586028470BD002C0140F6
:1030D00000340140004001400044014000480140EC
:1030E0000A460021018B4FF6F77319401143018303
:1030F00070470000002202881D4B98420ED01D4BE5
:1031000098420BD0B0F1804F08D01B4B984205D0AD
:103110001A4B984202D01A4B984204D14FF68F7343
:103120001A404B881A43174B984207D0164B9842C7
:1031300004D04FF6FF431A40CB881A4302808B8895
:1031400083850B8803850A4B98420BD0094B984224
:1031500008D00E4B984205D00D4B984202D00D4B33
:10316000984201D10B7A03860123838270470000C5
:10317000002C0140003401400004004000080040E1
:10318000000C0040001000400014004000400140CE
:10319000004401400048014010B5CCB04FF4967196
:1031A00001A8FCF7D8FF4FF4967201A9074800F078
:1031B0001DFA04461CB1214601A800F019F91E2190
:1031C000042000F04FFD4CB010BD0000D8040020DA
:1031D00030B591B005460C4601210846FFF792FC38
:1031E00001210520FFF7AEFC01214804FFF79AFCFE
:1031F0000820ADF8400004208DF8430010A938489D
:10320000FDF7E8FE0420ADF8400003208DF84200F1
:1032100018208DF8430010A93148FDF7DBFE314836
:10322000FDF764FA304805900020069010200790C2
:1032300000200890099080200A9000200B900C90AC
:103240000D904FF400500E9000200F9005A92548D6
:10325000FDF7F6FA23481438FDF748FA224805909E
:103260000695002007900894099080200A9000207D
:103270000B900C9020200D9000020E9000200F90DB
:1032800005A918481438FDF7DBFA0122C0211648B9
:10329000001F00F037F8012112481438FDF71AFA20
:1032A00001211048FDF716FA4FF4E130019000209B
:1032B000ADF80800ADF80A00ADF80C00ADF810004C
:1032C0000C20ADF80E0001A90748001F00F024F8FB
:1032D00001210548001F00F009F811B030BD0000C1
:1032E00000080140800002400444004021B182896E
:1032F00042F40052828104E082894DF6FF731A4045
:10330000828170471AB1838A0B43838202E0838AE9
:103310008B438382704700002DE9F04786B0054655
:103320000E460024A24600BFA1460027B08900B186
:1033300000BF2F462C8A4CF6FF700440F0880443EF
:103340002C82AC894EF6F3100440B08831890843D2
:10335000718908430443AC81AC8A4FF6FF400440B6
:10336000B0890443AC8201A8FFF7FCFB1F488742E9
:1033700002D1DDF810A001E0DDF80CA0A88900F46E
:10338000004040B10AEBCA0000EB0A103168490066
:10339000B0FBF1F807E00AEBCA0000EB0A10316855
:1033A0008900B0FBF1F86420B8FBF0F004012009BB
:1033B000642101FB1089A88900F4004040B132204B
:1033C00000EBC900B0FBF1F000F00700044308E097
:1033D000322000EB09106421B0FBF1F000F00F0087
:1033E00004432C8106B0BDE8F0870000003801409E
:1033F00070B504460D462A4621460248FDF73EFABE
:1034000070BD00008000024000BFFEE702E008C877
:10341000121F08C1002AFAD170477047002001E04E
:1034200001C1121F002AFBD1704710B501210846C7
:10343000FFF728FD3C2000F025F800210120FFF7D0
:1034400021FD10BD10B56FF00400FFF771FD0948B4
:1034500000680949B0FBF1F040B20849087008461D
:1034600090F900004FF47A71484300B20449088093
:1034700010BD00009800002000127A001400002007
:10348000160000200146124AB2F900204A434FF0CC
:10349000E0235A6100229A611A46126942F0010241
:1034A0001A6100BF4FF0E022106900F001021AB16A
:1034B00000F48032002AF5D04FF0E022126922F0A9
:1034C00001024FF0E0231A6100229A617047000068
:1034D000160000200146124A92F900204A434FF09C
:1034E000E0235A6100229A611A46126942F00102F1
:1034F0001A6100BF4FF0E022106900F001021AB11A
:1035000000F48032002AF5D04FF0E022126922F058
:1035100001024FF0E0231A6100229A617047000017
:10352000140000202DE9FC5F0446894617469A46A0
:10353000DDE90C6BA0463D463819C7B20AEB09001D
:103540001FFA80FA22E0F02C02DB4446601984B2B4
:103550000E98CDE900B03378E0B22A464946FEF72E
:1035600077FC182D04D1A5F10C00204484B20CE0A6
:10357000102D04D1A5F10800204484B205E0282DC7
:1035800003D1A5F11400204484B2761C30787E2843
:1035900002DC30782028D6DABDE8FC9F2DE9FE4F0A
:1035A0008046894616461C46DDE90CAB00250027FF
:1035B00001E0681C85B214F8011B0029F9D1681CD0
:1035C000241A06FB05F087B27F103B463246494677
:1035D00040468DE8100CFFF7A5FFBDE8FE8F816027
:1035E00000238380C28043800380704730B5034648
:1035F0000C469888904200DC9A8800210EE058889A
:10360000DD88A84201DB002058805D889868405D15
:1036100060545888401C5880481C81B29142EEDBAF
:103620009888801A9880104630BDF0B503460C4645
:103630009D88DE88B61AB54201DD002016E0002123
:103640000EE01D88DE88B54201DB00251D80655C2B
:103650001F889E68F5551D886D1C1D804D1CA9B2E4
:103660009142EEDB9D8815449D800120F0BD2DE93F
:10367000F041FDF74BFE3120FDF704FEFDF774FD30
:10368000FDF79EFD0746FDF7E5FDFDF799FD0446B4
:10369000FDF7E0FDFDF794FD0546FDF7DBFDFDF7C9
:1036A0008FFD0646FDF71AFEFDF74CFE200400EBE9
:1036B00005203044BDE8F08110B51348007820B9EA
:1036C000FEF77CF90220104908700F4800780228A4
:1036D00015D1FEF7B9F9012811D10C48007838B995
:1036E000FFF7C5FF0A49086001200849087006E095
:1036F000FFF7BDFF07490860002003490870052156
:10370000032000F0AFFA10BD350000203400002087
:10371000380000203000002010B501211C20FFF7E8
:1037200011FA0121C802FFF70DFA01210720FFF766
:10373000F9F9FDF7FFFEFDF7FFFFFDF7D7FEFEF7F6
:1037400069F8FEF743F8FEF721F8FEF7A7F8FDF752
:103750002DFEFEF789F8FDF7DBFEFDF71DFFFEF7F6
:1037600047F8FDF7FBFFFEF767F8FEF709F8FDF7EE
:1037700035FF00F019F800F009F800210846FFF7BE
:1037800081FB00210120FFF77DFB10BD03480449A8
:10379000086000200349887170470000B0000020D5
:1037A000AC0000203408002008B50020084908605B
:1037B000FEF752FA002040F23F13EF22014600903C
:1037C00000F0FAF900200349C1F8A80108BD000083
:1037D000A88121420080214210B5FFF79DFF0422FD
:1037E00001210D4800F01CFA052201210B4800F0D0
:1037F00017FA022201210A4800F012FA01221146AA
:10380000084800F00DFA03220121074800F008FAE9
:10381000002000F055FA10BD99310008B9030008E6
:10382000AD38000889090008B93600081FB54FF403
:10383000C060FFF701FA01210846FFF773F91C2069
:103840008DF8000001208DF801008DF802008DF840
:1038500003006846FFF7F0F813480068C0084FF40B
:103860007A71B0FBF1F0401E80B2ADF80800012083
:10387000ADF804000020ADF80A00ADF806008DF8A0
:103880000C0001A94FF08040FFF734FC01218807AC
:10389000FFF7ADFB012211469007FFF7CBFB01219B
:1038A0008807FFF7AAFB1FBD9800002010B56A48E3
:1038B0000078042817D0684800780D2813D066488F
:1038C00000780E280FD0644800780F280BD062488B
:1038D0000078102807D060480078112803D05E488F
:1038E00000780C286FD15D480078A8B95C48007852
:1038F000032806D100205A49087001205749087052
:1039000029E010215748FDF7F0FB20BB5448007810
:10391000401C534908701EE05048007801281AD115
:103920004F48007803280CD100204D4908704B49BE
:10393000087001204C490870FEF76AF8FEF75AF843
:1039400009E010214748FDF7D0FB20B1444800783A
:10395000401C4349087045480078A8B9444800789D
:10396000032806D100204249087001203F49087011
:1039700029E040213B48FDF7B8FB20BB3C480078DC
:10398000401C3B4908701EE03848007801281AD1D5
:103990003748007803280CD1002035490870334996
:1039A0000870012033490870FEF740F8FEF730F840
:1039B00009E040212B48FDF798FB20B12C48007806
:1039C000401C2B49087024480078132807D022484F
:1039D0000078122803D020480078022837D12648E2
:1039E0000078A8B925480078032806D1002023498B
:1039F000087001202049087029E020211948FDF7AE
:103A000074FB20BB1D480078401C1C4908701EE058
:103A10001948007801281AD11848007803280CD1D9
:103A200000201649087014490870012014490870D4
:103A3000FDF7FCFFFDF7DEFF09E020210948FDF757
:103A400054FB20B10D480078401C0C49087005213A
:103A5000022000F007F910BD6C0000208F0000204C
:103A600090000020000801409100002095000020F7
:103A70009600002097000020920000209300002074
:103A800094000020F0B507460E4614461D4600215E
:103A90002A20FFF709F801210020FFF705F801218E
:103AA0003846FFF701F801210020FEF7FDFF012154
:103AB0003046FEF7F9FF00212B20FEF7F5FF01212C
:103AC000C4F30720FEF7F0FFE0B20121FEF7ECFFA0
:103AD0000121C5F30720FEF7E7FFE8B20121FEF759
:103AE000E3FF00212C20FEF7DFFFF0BD0021154A87
:103AF00011600121144AC2F8B4111449C96801F4D3
:103B00007F41C0F307221143104AD16000210D4AC2
:103B1000083A116001210C4AC2F8B0110B49C9687A
:103B200001F47F41C2B21143084AD1600021054A25
:103B3000083A116001211160121D1160024AC2F899
:103B4000B8117047B8812142008021420010014025
:103B500070B506460C46154600212A20FEF7A4FF44
:103B600001210020FEF7A0FF01213046FEF79CFF57
:103B700001210020FEF798FF01213046FEF794FF57
:103B800000212B20FEF790FF20120121FEF78CFF71
:103B9000E0B20121FEF788FF20120121FEF784FF29
:103BA000E0B20121FEF780FF00212C20FEF77CFF10
:103BB0002846FFF79BFF70BD2DE9F04F06460C46E7
:103BC00015461F46A5EB060AA7EB040B3B4622460B
:103BD00029463046FFF756FF4FF000090BE04FF043
:103BE000000804E00998FFF781FF08F10108D045BB
:103BF000F8D909F10109D945F1D9BDE8F08F0000E4
:103C000010B5FFF71FFC00F04FF800220121034818
:103C100000F006F800F066F8002010BDD937000863
:103C200070B503460020104600EB40040C4D05EB38
:103C30008404617100EB400405EB8404227100EB05
:103C4000400445F82430002400EB4005044E06EB08
:103C50008505EC8000EB400506EB8505AC6070BD8A
:103C60004802002030B5092800DD30BD00BF024603
:103C70000B4B1B6802EB42040A4D05EB8404A36066
:103C80004FF47A734B434FF47A74B3FBF4F302EBC3
:103C9000420405EB8404E38000BF00BFE5E70000B9
:103CA000180000204802002010B5FFF7BFFD10BD2E
:103CB00002480068401C0149086070471800002055
:103CC00010B5092800DD10BD00210146002201EBDE
:103CD0004103034C04EB83035A7100BF00BFF2E7BA
:103CE0004802002040E000202049086038E01F48DA
:103CF000006800EB40001E4901EB8000407901287C
:103D000029D11A48006800EB400001EB8000806870
:103D10001649096801EB4101154A02EB8101C98886
:103D2000084414490968884215D800200F490968D9
:103D300001EB410102EB810188600C49096801EB4C
:103D4000410102EB8101C8800849096801EB41018A
:103D500052F82100804705480068401C034908606C
:103D6000024800680A28C2D3BDE7000020000020F6
:103D7000480200201800002070B504462646F57859
:103D8000092D13D00A2D19D0732D02D0752D23D1F2
:103D90001DE073212046FDF799FE18B1012010495E
:103DA000087002E000200E49087016E00921204644
:103DB000FDF760FE08B1FEF7D3FF0EE00A212046B2
:103DC000FDF76EFE10B101200649087005E075216F
:103DD0002046FDF7B3F900E000BF00BF70BD000052
:103DE0006D0000206E00002010B50720FCF758FD84
:103DF0004FF4FA70FFF746FB01210420FFF742F869
:103E00004FF47A70FFF73EFB0820FCF749FD10BD28
:103E10001CB5FF208DF8000004208DF80100012062
:103E20008DF8020072208DF803006846FCF7D2FA84
:103E30009DF80100821C69460148FFF7F6FB1CBD96
:103E4000D804002018B10121034A116002E00021CA
:103E5000014A116070470000A881214210B5072077
:103E6000FCF71EFD4FF4FA70FFF70CFB10BD0000CD
:103E700010B50146CC1701EB1474C4F30712CC172C
:103E800001EB14742411A1EB0414E3B202EB8200E1
:103E900003EB400042F6B13460430A2490FBF4F097
:103EA000014C2468204410BD38000020100111018D
:103EB00064281E0100001201641E19010001130193
:103EC00064281E0100001401641E1901000115017F
:103ED00064281E0100001601641E19010000210162
:103EE00064190101000E2201641910010027230149
:103EF000641910010027240164191001002725000E
:103F000064190101000E260064190F01000131003F
:103F1000641E010101013200642801020102330024
:103F20006432010301033400643C010401043500E0
:103F300064460105010536006450010601061101C1
:103F400064370F01000F120164370F0100101301D5
:103F500064370F01000F140164370F0100101501C1
:103F600064370F02000F1601641E0E0100002101CC
:103F700064280101000E220164281F0100002301B2
:103F8000641E0E010010240164281F010000250199
:103F9000641E0E010010260164281F01000031007C
:103FA000641E010101013200642801020102330094
:103FB0006432010301033400643C01040104350050
:103FC0006446010501053600645001060106110131
:103FD000643C0F01000F1201643C19010010130131
:103FE000643C0F01000F1401643C1901001015011D
:103FF000643C0F01000F1601643C1901000021010F
:1040000064280101000E2201642829010000230117
:10401000641E0E01001024016428290100002501FE
:10402000641E0E01001026016428370100003100D3
:10403000641E010101013200642801020102330003
:104040006432010301033400643C010401043500BF
:1040500064460105010536006450010601062B8700
:10406000010201000000000000000000F8FF1F0036
:104070000000C0FFFFFF070000F8FFFFFF3F000048
:10408000FEFFFFFFFF0080FFFFFFFFFF03C0FFFFFA
:10409000FFFFFF07E0FF0700C0FF0FF03F00000039
:1040A000F81FF007000000C01FF803000000803F69
:1040B000F801000000003FFC00000000007E7C00D2
:1040C000000000007C7C00000000007C7C00000000
:1040D00000007C7C00000000007C7C0000000000F0
:1040E0007CFC00000000007EF801000000003FF8AA
:1040F00003000000803FF007000000C01FF03F00F9
:104100000000F81FE0FF0700C0FF0FC0FFFFFFFF28
:10411000FF0780FFFFFFFFFF0300FEFFFFFFFF0021
:1041200000F8FFFFFF3F0000C0FFFFFF0700000097
:10413000F0FF1F0000000000000000000000000071
:10414000000000000000000000000000000000006F
:10415000000000000000000000000000F00300006C
:10416000000000E0070000000000E0070000000081
:1041700000C00F0000000000801F00000000008051
:104180003F0000000000003F0000000000007E0033
:104190000000000000FC000000000000FC01000026
:1041A000000000F807F8FFFFFFFFFF0FF8FFFFFF19
:1041B000FFFF3FF8FFFFFFFFFF7FF8FFFFFFFFFF5D
:1041C0007FF8FFFFFFFFFF7FF8FFFFFFFFFF7F008C
:1041D00000000000000000000000000000000000DF
:1041E00000000000000000000000000000000000CF
:1041F00000000000000000000000000000000000BF
:104200000000000000000000000000000000780036
:104210000000000000F8010000000F00F807000097
:10422000007F00F81F000000FF01F83F000080FF42
:1042300003F8FF000080FF07F8FF010080FF0FF880
:10424000FF030000F81FF8FE070000C03FF8F80F5A
:104250000000803FF8F01F0000003FF8E03F000042
:10426000007EF8C07F0000007CF880FF0000007C2A
:10427000F800FF0100007CF800FE0300007CF8005D
:10428000FC0700007CF800F01F00007CF800E03F15
:1042900000007EF800C07F00003EF80080FF0100B3
:1042A0003FF80000FF07C03FF80000FE1FF01FF8B6
:1042B0000000F8FFFF1FF80000F0FFFF0FF80000FC
:1042C000E0FFFF07F8000080FFFF01F8000000FE9C
:1042D0007F00F8000000F01F000000000000000058
:1042E00000E0000000000000FC0000000C0000FFE7
:1042F0000000007C0080FF010000FC01C0FF010005
:1043000000FE07E0FF010000FE0FF07F000000FE4E
:104310000FF00F000000F01FF803000000C03FF88E
:1043200001000000003FFC00000000003EFC000017
:104330003800007E7C0000F001007C7C0000F00171
:10434000007C7C0000F001007C7C0000F001007C1F
:104350007C0000F003007CFC0000F803007EF80005
:1043600000F807003FF80100FC0F803FF80300FE53
:104370003FE01FF00F007FFFFF1FE03FC03FFFFF48
:104380000FE0FFFF3FFEFF07C0FFFF1FFCFF030022
:10439000FFFF0FF0FF0000FEFF07C03F0000F8FF27
:1043A0000100000000C03F000000000080FF00008E
:1043B00000000080FF030000000080FF0F000000ED
:1043C0000080FF1F0000000080EF7F0000000080E1
:1043D0008FFF01000000800FFE07000000800FFC2F
:1043E0000F000000800FF03F000000800FC0FF00B2
:1043F0000000800F00FF010000800F00FE0700009A
:10440000800F00F81F0000800F00E03F0000800FC9
:1044100000C0FF0000800F0000FF0300800F0000BD
:10442000FC0F00800F0000F01FF8FFFFFFFFFF7F71
:10443000F8FFFFFFFFFF7FF8FFFFFFFFFF7FF8FFA1
:10444000FFFFFFFF7FF8FFFFFFFFFF7FF8FFFFFF8A
:10445000FFFF7F00800F0000000000800F000000C1
:104460000000800F0000000000800F00000000002E
:10447000800F0000000000800F000000000000001E
:104480000000000000E0000000000000FC00380018
:10449000000000FF00F81F000080FF00F8FF070089
:1044A000C0FF00F8FFFF03E0FF00F8FFFF1FF03F31
:1044B00000FCFFFF1FF00700F8FFFF1FF80300E0FC
:1044C000F7FF1FF80100C00FF81FFC0000800F006D
:1044D0001F7C0000800F001F7C0000001F001F7C5D
:1044E0000000001F001F7C0000001F001F7C000058
:1044F000001F001F7C0000001F001FFC0000801F29
:10450000001FF80100801F001FF80300C00F001FEC
:10451000F00700E00F001FF00F00F80F001FE07F12
:1045200000FE07001FC0FFFFFF03001F80FFFFFF0B
:1045300001001F00FFFFFF00001F00FCFF7F0000C5
:104540001F00F0FF1F0000000080FF0100000000BE
:104550000000000000000000F8FF0F000000C0FF96
:10456000FFFF030000F8FFFFFF1F0000FEFFFFFF3B
:104570007F0000FFFFFFFFFF01C0FFFF3FF0FF03D1
:10458000E07F00FF00FE07E00F00FC01F00FF007E6
:1045900000F001C01FF80300E003801FF80100C015
:1045A00007003FF80000C007003E7C0000800F00BD
:1045B0007C7C0000800F007C7C0000800F007C7CF5
:1045C0000000800F007C7C0000800F007CFC00005D
:1045D000C00F007EFC0000C00F007EF80100E00765
:1045E000003FF80300F007803FF00F00FC07F03FAA
:1045F000F07F00FF03FC1FE0FFFFFF01FC0FC0FF87
:10460000FFFF00FC0780FFFF7F00FC0300FEFF3F71
:1046100000FC0000F8FF0F001C0000C0FF000000BD
:1046200000000000000000000000000000001F006B
:1046300000000000001F0000000000001F0000003C
:104640000000001F0000000000001F00000000002C
:10465000001FF801000000001FF87F000000001F8D
:10466000F8FF070000001FF8FF3F0000001FF8FFE1
:10467000FF0100001FF8FFFF0F00001F00FFFF3FBA
:1046800000001F00C0FFFF00001F0000FCFF07002C
:104690001F0000C0FF1F001F000000FE3F001F00A2
:1046A0000000F8FF001F000000C0FF031F00000013
:1046B00000FF071F00000000FC1F1F00000000F0AB
:1046C0003F1F00000000C07F1F0000000000FF1F10
:1046D0000000000000FC1F0000000000F81F0000A8
:1046E000000000E01F0000000000C01F00000000EC
:1046F00000001F0000000000000000E03F0000007C
:104700000000FCFF0100000000FFFF03C03F00802D
:10471000FFFF07F8FF00C0FFFF0FFCFF03E0FFFFF4
:104720001FFEFF07F03FE03FFFFF0FF00700BFFF56
:10473000FF1FF80300FE3FE03FF80100FC0F803F41
:10474000F80000F807003FFC0000F803007E7C0042
:1047500000F001007C7C0000F001007C7C0000F097
:1047600001007C7C0000F001007C7C0000F0010076
:104770007CFC0000F803007EF80000F807003FF81A
:104780000100FC0F803FF80300FE3FE01FF0070030
:10479000BFFFFF1FF03FE03FFFFF0FE0FFFF1FFEE7
:1047A000FF07C0FFFF0FFCFF0380FFFF07F8FF00BC
:1047B00000FFFF03E01F0000FCFF0000000000E01E
:1047C0003F000000000000000000000000000000AA
:1047D000FE0700007000E0FF3F00007E00F8FFFFD2
:1047E00000807F00FCFFFF03C07F00FEFFFF07E0AB
:1047F0007F00FFFFFF0FF07F80FF01FC1FF81FC04D
:104800007F00E01FF803C01F00C03FF801C00F0089
:10481000003FFC00E00700007F7C00E00700007E16
:104820007C00E00300007C7C00E00300007C7C0056
:10483000E00300007C7C00E00300007CFC00C0037F
:1048400000007CF800C00700003EF801C00700002F
:104850003EF003800F00003FF007001F00801FE0C4
:104860001F007E00E00FC0FF01FC01FC0F80FF7FF6
:10487000F8FFFF0700FFFFFFFFFF0100FCFFFFFF46
:10488000FF0000F0FFFFFF3F000080FFFFFF070079
:104890000000E0FF7F0000000000000000F0FF1FAC
:1048A0000080FFFFFF03E0FFFFFF0FF80700C03F9E
:1048B000FC0000007E3E000000F81E000000F01E1C
:1048C000000000F01E000000F03E000000F8FC00B8
:1048D00000007EF80700C03FE0FFFFFF0F80FFFFF2
:1048E000FF0300F0FF1F00000000000000000000B8
:1048F00000000000000000000000000000003C007C
:104900000000007800000000F000000000E001005E
:104910000000C007000000800FFCFFFFFF3FFCFF0E
:10492000FFFFFFFCFFFFFFFF000000000000000092
:104930000000000000000000000000000000000077
:104940000000000000003C0000E001FC0100E00F5E
:10495000FC0700E01FFC0F00003EBC3F00007C3C59
:104960007E0000F83CF80100F03CF00300F03CC091
:104970000F00F03C801F00F83C007E007C3C00FCF7
:10498000037E3C00F0FF3F3C00C0FF0F3C0000FEF8
:10499000010000000000000000000000070080038C
:1049A000E00700800FF80700803FFC0100007E7CDC
:1049B000000000783E000000F01E00F000F01E0035
:1049C000F000F01E00F001F03E00F801787C00FCE1
:1049D000077EF801BFFF3FF0FF1FFF0FC0FF0FFC76
:1049E0000300FF01000000000000000000000000C4
:1049F00000F800000000F807000000F83F00000089
:104A0000F8FF00000078FC07000078E03F00007825
:104A100080FF00007800FC07007800F01F0078009D
:104A200080FFFCFFFFFFFFFCFFFFFFFFFCFFFFFF1E
:104A3000FF0078000000007800000000780000000F
:104A400000000000000007F80000E007F8FF01F890
:104A500007F8FF3FFC00F0FF3F7C00E0013E3E0016
:104A6000C0033C1E00C0033C1E00C0033C1E00C02F
:104A7000033C3E00E0033C7C00F0013CF803FC00FA
:104A80003CF0FF7F003CC0FF3F003C00FE07000001
:104A90000000000000000000000000F8FF0F008090
:104AA000FFFFFF01E0FFFFFF0FF8037CC01F7C004A
:104AB000F0003E3C00E001781E00C003F01E00C084
:104AC00003F01E00C003F03E00E003F07C00F001A4
:104AD000F8F801FC017EF0FF7F803FC0FF3F801FA0
:104AE00000FE07800300000000000000000000003E
:104AF0000000003C000000003C000000003CFC0006
:104B000000003CFC3F00003CFCFF03003C00FF3F7A
:104B1000003C00C0FF003C0000FC073C0000C01F40
:104B20003C0000007E3C000000F83D000000C03F5B
:104B3000000000003F000000003C000000000000FA
:104B40000000000000FF010000E0FF07FC03F0FF91
:104B50001FFF1FF801BFFF3F7C00FC077E3E00F8EF
:104B600001F81E00F000F01E00F000F01E00F00042
:104B7000F03E00F801F87C00FC077EF801BFFF3F23
:104B8000F0FF1FFF1FE0FF07FC0300FF0100000014
:104B90000000000000000000008003C0FF00F003E0
:104BA000F8FF0FF803FCFF1FFC007F803F3E001F53
:104BB000007C1E800F00F81E800700F01E8007009A
:104BC000F01E800700F03C000F0078F8001E007C0B
:104BD000F0077C003FE0FFFFFF0F00FFFFFF030037
:104BE000E0FF3F0000000000000000F81FFE7F070C
:104BF000E003C003C007E0FE7FF81F0000000000D4
:104C000000000C00180030FFFFFFFF000000000054
:104C100000000003180F781BE073C0E3C0C3E183FA
:104C20007F033E0000000018301E7007E003C3033E
:104C3000C387E7FE7E7C3C00007000F001B00330CB
:104C40000E303C30F0FFFFFFFF3000300000001856
:104C50000F1EFF07F303C603C607C7FEC3F8010014
:104C6000000000F80FFE3F076303C603C607E7FE18
:104C700073F8310000000000C000C00FC0FFC0F09A
:104C8000C700DE00F800C0000000007C3CFE7F870B
:104C9000E703C303C387E7FE7F7C3C000000008C72
:104CA0001FCE7FE7E063C063C0C6E0FC7FF01F005B
:104CB000000000F0070808041004100808F00700BE
:104CC00000000004080408FC1F04000400000000A9
:104CD0000000000C0E14102410441084110C0E005F
:104CE000000000180C0410041104118812700C004C
:104CF000000000E000200324042408FC1F2400001E
:104D0000000000981F841004110411881070100016
:104D1000000000F0078808041104118818700000D2
:104D2000000000001C0010FC100013001C0010000C
:104D3000000000380E4411841084104411380E0015
:104D400000000000078C08441044108808F0070099
:104D5000000000000000000000000080FFFF0100D4
:104D6000000000FEFFFF7F000000C0FFFFFFFF0309
:104D70000000F8FFFFFFFF0F0000FEFFFFFFFF3FF7
:104D80000000FFFFFFFFFFFF0080FFFFFFFFFFFFAF
:104D900001C0FF3F0000FCFF03E0FF01000080FFB7
:104DA00007F03F00000000FC0FF00F00000000F0D3
:104DB0000FF80700000000E01FF80300000000C02B
:104DC0001FF80100000000801FFC010000000080AF
:104DD0003FFC0000000000003FFC0000000000005D
:104DE0003FFC0000000000003FFC0000000000004D
:104DF0003FFC0000000000003FFC0000000000003D
:104E00003FFC0100000000803FF80100000000802E
:104E10001FF80300000000C01FF80700000000E0BA
:104E20001FF00F00000000F00FF03F00000000FC3A
:104E30000FE0FF01000080FF07C0FF3F0000FCFF04
:104E40000380FFFFFFFFFFFF0100FFFFFFFFFFFFEA
:104E50000000FCFFFFFFFF3F0000F0FFFFFFFF0F20
:104E60000000C0FFFFFFFF03000000FEFFFF7F0008
:104E700000000080FFFF01000000000000000000B3
:104E80000000000000000000000000000000000022
:104E90000000000000000000000000000000000012
:104EA0000000000000000000000000000000000002
:104EB000000000000000FE00000000000000FC01F7
:104EC000000000000000FC01000000000000FC03E6
:104ED000000000000000F803000000000000F807D8
:104EE000000000000000F00F000000000000F00FC4
:104EF000000000000000E01F000000000000C03FB4
:104F0000000000000000C07F00000000000080FFE3
:104F100000000000000000FF01000000000000FE93
:104F200003F8FFFFFFFFFFFF07F8FFFFFFFFFFFF93
:104F30000FF8FFFFFFFFFFFF3FF8FFFFFFFFFFFF3F
:104F40003FF8FFFFFFFFFFFF3FF8FFFFFFFFFFFFFF
:104F50003FF8FFFFFFFFFFFF3F00000000000000E1
:104F60000000000000000000000000000000000041
:104F70000000000000000000000000000000000031
:104F80000000000000000000000000000000000021
:104F90000000000000000000000000000000000011
:104FA0000000000000000000000000000000000001
:104FB0000000000000000000007800000000000079
:104FC00000F803000000E00000F80F000000E00F10
:104FD00000F81F000000E03F00F87F000000F0FF35
:104FE00000F8FF000000F0FF01F8FF010000F0FFF3
:104FF00003F8FF070000F0FF07F8FF0F000000FFB5
:1050000007F8FF1F000000F80FF8FB3F000000F05A
:105010000FF8F37F000000E01FF8C3FF000000C09E
:105020001FF883FF000000801FF803FF01000080CD
:105030003FF803FE030000003FF803FC07000000F8
:105040003FF803F80F0000003FF803F01F000000D6
:105050003FF803E03F0000003FF803E07F0000005E
:105060003FF803C0FF0000003FF80380FF0100800D
:105070003FF80300FF0300803FF80300FE0700C075
:105080001FF80300FC1F00C01FF80300F83F00E0FA
:105090001FF80300F0FF00F80FF80300C0FF07FE41
:1050A0000FF8030080FFFFFF07F8030000FFFFFF7A
:1050B00003F8030000FEFFFF01F8030000F8FFFF04
:1050C00000F8030000F0FF7F00F8030000C0FF1F9E
:1050D00000F803000000FE030000000000000000D4
:1050E000000000000000000000008003000000003D
:1050F0000000F003000000030000FC030000001F9C
:105100000000FE070000007F0080FF07000080FF16
:1051100000C0FF07000080FF01C0FF07000080FF04
:1051200003E0FF01000080FF07F03F00000000FEE9
:105130000FF00F00000000F00FF80700000000E083
:105140001FF80300000000C01FF8010000000080ED
:105150001FFC0100800700803FFC0000003F0000B2
:105160003FFC0000003F00003FFC0000003F00004B
:105170003FFC0000003F00003FFC0000003F00003B
:105180003FFC0000007F00003FFC0000007F0000AB
:105190003FFC0100807F00803FF8010080FF00C0DD
:1051A0001FF8030080FF01C01FF80300C0FF03F0D9
:1051B0000FF00700E0FF0FF80FF00F00F0FFFFFF08
:1051C00007E03F00F8F3FFFF03E0FF01FFE3FFFF0D
:1051D00003C0FFFFFFC1FFFF0180FFFFFF81FF7FD3
:1051E0000000FFFFFF00FE3F0000FEFF7F00F8070A
:1051F0000000F8FF1F0000000000E0FF0F000000AB
:10520000000000FF0100000000000000000000009E
:10521000000000FE03000000000000FE0F00000080
:10522000000000FE1F000000000000FE7F000000E4
:10523000000000FEFF010000000000FEFF03000070
:10524000000000FEFE0F0000000000FEFC1F00003A
:10525000000000FEF07F0000000000FEC0FF000024
:10526000000000FE80FF0300000000FE00FE0700BB
:10527000000000FE00FC1F00000000FE00F03F00E8
:10528000000000FE00E0FF00000000FE0080FF03C1
:10529000000000FE0000FF07000000FE0000FC1FF1
:1052A000000000FE0000F83F000000FE0000E0FFEC
:1052B000000000FE000080FF010000FE000000FF73
:1052C000070000FE000000FC0FF8FFFFFFFFFFFFDC
:1052D0003FF8FFFFFFFFFFFF3FF8FFFFFFFFFFFF6C
:1052E0003FF8FFFFFFFFFFFF3FF8FFFFFFFFFFFF5C
:1052F0003FF8FFFFFFFFFFFF3FF8FFFFFFFFFFFF4C
:105300003F0000FE00000000000000FE0000000062
:10531000000000FE00000000000000FE0000000091
:10532000000000FE00000000000000FE0000000081
:10533000000000FE00000000000000FE0000000071
:1053400000000000000000000000800300000000DA
:105350000000F003C00100000000FC03C07F00005B
:105360000000FF07C0FF1F000080FF07C0FFFF070E
:1053700000C0FF07C0FFFFFF01E0FF07E0FFFFFFE6
:105380000FE0FF01E0FFFFFF0FF03F00C0FFFFFF56
:105390000FF00F0080FFFFFF0FF80700007FE0FF16
:1053A0000FF8030000FE00F80FF8010000FC00E019
:1053B0000FFC010000FC00E00FFC000000F800E022
:1053C0000FFC000000F801E00FFC000000F801E015
:1053D0000FFC000000F801E00FFC000000F801E005
:1053E0000FFC000000F801E00FFC000000F801E0F5
:1053F0000FFC010000FC01E00FF8010000FC01E0DF
:105400000FF8030000FE01E00FF8070000FE00E0C7
:105410000FF00F0000FF00E00FF01F00807F00E0A2
:105420000FE07F00E07F00E00FC0FF03FC3F00E0E3
:105430000FC0FFFFFF1F00E00F80FFFFFF1F00E016
:105440000F00FEFFFF0F00E00F00FCFFFF0300E076
:105450000F00F0FFFF0100E00F00C0FF7F00000021
:10546000000000FE0F00000000000000000000002F
:105470000000000000000000000000C0FFFF00006E
:10548000000000FEFFFF3F000000C0FFFFFFFF0124
:105490000000F8FFFFFFFF070000FCFFFFFFFF1FFA
:1054A0000000FFFFFFFFFF7F0080FFFFFF03FEFF05
:1054B00000C0FF03FC0FC0FF01E07F00E01F00FF02
:1054C00003E01F00801F00FC07F00F00003F00F00A
:1054D00007F00700007E00E00FF80300007E00C028
:1054E0001FF8010000FC00801FF8010000FC008094
:1054F0001FFC000000F800803FFC000000F80100E5
:105500003FFC000000F801003FFC000000F8010033
:105510003FFC000000F801003FFC000000F8010023
:105520003FFC010000FC01003FFC010000FC018089
:105530003FF8030000FC00803FF8030000FE00C0BD
:105540001FF8070000FF00E01FF01F00807F00F839
:105550001FF03F00E07F00FE0FE0FF01FC3F80FFF7
:1055600007C0FFFFFF1F80FF0780FFFFFF0F80FFC7
:105570000300FFFFFF0780FF0100FEFFFF03007F26
:105580000000F8FFFF01003F0000E0FF3F000007C0
:10559000000000FE07000000000000000000000006
:1055A000000000000000000000000000000000E01B
:1055B0000F000000000000E00F000000000000E00D
:1055C0000F000000000000E00F000000000000E0FD
:1055D0000F000000000000E00F000000000000E0ED
:1055E0000F000000000000E00FF80100000000E0E4
:1055F0000FF83F00000000E00FF8FF03000000E09C
:105600000FF8FF3F000000E00FF8FFFF010000E08F
:105610000FF8FFFF070000E00FF8FFFF3F0000E07A
:105620000F00FFFFFF0000E00F00C0FFFF0300E0DE
:105630000F0000FCFF0F00E00F0000C0FF3F00E084
:105640000F000000FEFF00E00F000000F0FF03E08D
:105650000F000000C0FF07E00F00000000FE1FE089
:105660000F00000000F83FE00F00000000E07FE0C6
:105670000F0000000080FFE10F0000000000FEE3CB
:105680000F0000000000F8E70F0000000000F0EF3E
:105690000F0000000000C0FF0F000000000080FFAE
:1056A0000F000000000000FE0F000000000000FCE2
:1056B0000F000000000000F00F000000000000E0FC
:1056C0000F000000000000C00F00000000000000FC
:1056D0000000000000000000000080FF010000004A
:1056E0000000F0FF0F0000000000FCFF3F00F80783
:1056F0000000FEFF7F00FE3F0000FFFFFF80FFFF76
:105700000080FFFFFFC1FFFF01C0FFFFFFE3FFFFBE
:1057100003E0FF00FFE3FFFF07F03F00FCF7FFFFA0
:1057200007F00F00F0F70FFC0FF80700E0FF03F0A1
:105730000FF80300C0FF01E01FF8030080FF00C066
:105740001FFC0100807F00803FFC0100807F008003
:105750003FFC0000003F00003FFC0000003F000055
:105760003FFC0000003F00003FFC0000003F000045
:105770003FFC0000003F00003FFC0000003F000035
:105780003FFC0100807F00803FFC0100807F0080A3
:105790001FF80100C0FF00C01FF80300C0FF01E0B8
:1057A0001FF80700E0FF03F00FF00F00F0FF0FFC01
:1057B0000FF01F00FCF3FFFF07E0FF00FFE3FFFF18
:1057C00007C0FFFFFFE1FFFF0380FFFFFFC1FFFFF7
:1057D0000100FFFFFF80FF7F0000FEFF7F00FE3F14
:1057E0000000FCFF1F00F8070000F0FF0F000000A2
:1057F000000080FF01000000000000000000000029
:1058000000000000000000000000000000E0FF00B9
:105810000000E00000FCFF070000FC0080FFFF1F0D
:105820000000FF00C0FFFF7F0080FF01E0FFFFFFDF
:1058300000C0FF01F0FFFFFF01E0FF01F8FFFFFFE5
:1058400003F0FF01FC3FC0FF07F07F00FE0700FEF2
:105850000FF80F00FE0100F80FF80700FF0000F03E
:105860001FF803007F0000E01FFC01007F0000C064
:105870001FFC01803F0000803FFC00803F00008053
:105880003FFC00801F0000003FFC00801F00000064
:105890003FFC00801F0000003FFC00801F00000054
:1058A0003FFC00801F0000003FFC01001F000000C3
:1058B0003FF801003F0000801FF803003F00008018
:1058C0001FF803003E0000C01FF007007E0000C06C
:1058D0000FE00F00FC0000E00FE03F00F80100F8CF
:1058E00007C0FF00F00700FC0780FF07E03F80FFD4
:1058F0000300FFFFC1FFFFFF0100FEFFFFFFFFFFEF
:105900000000F8FFFFFFFF3F0000E0FFFFFFFF1F69
:10591000000080FFFFFFFF07000000FCFFFFFF000B
:1059200000000000FFFF0700000000000000000072
:105930000000000000000000000000000000000067
:10594000000000183C3C3C18181800181800000013
:1059500000006666662400000000000000000000F1
:105960000000000036367F3636367F3636000000BF
:105970000018183E6343033E6061633E1818000040
:105980000000000000436330180C06636100000053
:105990000000001C36361C6E3B3333336E000000B3
:1059A00000000C0C0C0600000000000000000000CD
:1059B00000000030180C0C0C0C0C0C18300000000F
:1059C0000000000C18303030303030180C0000006F
:1059D000000000000000663CFF3C66000000000084
:1059E00000000000000018187E18180000000000D9
:1059F000000000000000000000001818180C000053
:105A000000000000000000007F0000000000000017
:105A10000000000000000000000000181800000056
:105A20000000000000406030180C06030100000078
:105A30000000003E6363736B6B6763633E000000AE
:105A4000000000181C1E1818181818187E000000F6
:105A50000000003E636030180C0603637F00000006
:105A60000000003E6360603C606060633E000000D8
:105A700000000030383C36337F3030307800000092
:105A80000000007F0303033F706060633E0000007E
:105A90000000001C0603033F636363633E000000D5
:105AA0000000007F63606030180C0C0C0C000000DC
:105AB0000000003E6363633E636363633E00000077
:105AC0000000003E6363637E606060301E00000083
:105AD0000000000000181800000018180000000066
