:020000040800F2
:10000000600C002001010008F527000851110008CC
:10001000BD250008B5030008853100080000000078
:100020000000000000000000000000009F2A0008FF
:100030009308000800000000A9280008D52C00083B
:100040001B0100081B0100081B0100081B01000820
:100050001B0100081B0100081B0100081B01000810
:100060001B0100081B0100081B0100081B01000800
:100070001B0100081B0100081B0100081B010008F0
:100080001B0100081B0100081B0100081B010008E0
:100090001B0100081B0100081B0100081B010008D0
:1000A0001B0100081B0100081B0100081B010008C0
:1000B000392D00081B0100081B0100081B01000866
:1000C0001B0100081B0100081B0100081B010008A0
:1000D0001B0100081B0100081B0100081B01000890
:1000E0001B0100081B0100081B010008DFF80CD0F1
:1000F00000F03CF80048004775390008600C00200B
:100100000648804706480047FEE7FEE7FEE7FEE7B1
:10011000FEE7FEE7FEE7FEE7FEE7FEE7D92C000874
:10012000ED00000840EA01039B0703D009E008C97D
:10013000121F08C0042AFAD203E011F8013B00F8AC
:10014000013B521EF9D27047D2B201E000F8012BF8
:10015000491EFBD270470022F6E710B513460A4647
:1001600004461946FFF7F0FF204610BD064C074D28
:1001700006E0E06840F0010394E807009847103477
:10018000AC42F6D3FFF7B6FFC4AE0008E4AE0008F9
:1001900070B58C1810F8015B15F0070301D110F849
:1001A000013B2A1106D110F8012B03E010F8016B76
:1001B00001F8016B5B1EF9D12B0705D40023521EF9
:1001C0000DD401F8013BFAE710F8013BCB1A921C61
:1001D00003E013F8015B01F8015B521EF9D5A1425F
:1001E000D8D3002070BD21B1826842F00102826044
:1001F00003E0826822F001028260704721B18268C8
:1002000042F48072826003E0826822F4807282602D
:100210007047014600208A6802F004020AB10120FA
:1002200000E000207047014600208A6802F00802C2
:100230000AB1012000E000207047000030B50246FE
:100240000020002350680F4C20400D790C6844EAD0
:1002500005242043506090680B4C2040D1E90254A3
:100260002C434D7944EA450420439060D06A20F441
:1002700070000C7C641EE4B2234340EA0350D06259
:1002800030BD0000FFFEF0FFFDF7F1FFF0B50446C2
:100290000D4600200021092D11DDE068A5F10A06B8
:1002A00006EB4607072606FA07F18843A5F10A067A
:1002B00006EB460603FA06F10843E0600CE020690D
:1002C00005EB4507072606FA07F1884305EB4506C7
:1002D00003FA06F108432061072A0FDA606B561E05
:1002E00006EB86071F2606FA07F18843561E06EB23
:1002F000860605FA06F10843606322E00D2A0FDA4C
:10030000206BD61F06EB86071F2606FA07F18843E7
:10031000D61F06EB860605FA06F10843206310E0B7
:10032000E06AA2F10D0606EB86071F2606FA07F122
:100330008843A2F10D0606EB860605FA06F108438E
:10034000E062F0BD816841F008018160704721B131
:10035000826842F4A002826003E0826822F4A00274
:1003600082607047816841F00401816070470146F6
:10037000D1F80821885CD1F80821521CC1F8082165
:10038000D1F80821B2F5827F02D10022C1F80821FC
:100390007047D0F804218154D0F80421521CC0F8D1
:1003A0000421D0F80421B2F5827F02D10022C0F8E6
:1003B0000421704700BFFEE710B5054802F028FB96
:1003C00002F006F9C821052003F006FB10BD00006D
:1003D000BC02002030B543780021012204E0845C97
:1003E0000C44A1B2541CA2B29A42F8DB0C12C454C1
:1003F0005C1C015530BD30B502460024012303E0EA
:10040000D05C204484B25B1C8B42F9DB481C105C3E
:10041000555C00EB0520A04201D1012030BD002039
:10042000FCE700002DE9F05F06460F4690461D46AA
:10043000B146BB4606F10F00C1B207F117033A46B9
:10044000304601F0C9FBA8F1200000F0FF084FF092
:10045000000A54E0002421E008EB48002A4901EB9F
:10046000001010F81A000121A140084058B11DB930
:100470000A9801F0BFFB0BE01FFA8BF148460A9A7D
:1004800001F0BEFB04E01DB946F24F2001F0B2FBC3
:1004900009F1010000F0FF09601CC4B2082CDBDB8D
:1004A000002423E008EB4800174901EB00114FEA54
:1004B0004A00401C085C0121A140084058B11DB908
:1004C0000A9801F097FB0BE01FFA8BF148460A9A55
:1004D00001F096FB04E01DB946F24F2001F08AFBC3
:1004E00009F1010000F0FF09601CC4B2082CD9DB3F
:1004F0000BF1010BB1460AF1010000F0FF0ABAF15D
:10050000180FA7DBBDE8F09FA65C00082DE9F05F9F
:1005100082468B4616461D465746D9460AF11700B5
:10052000C1B20BF127035A46504601F055FBA6F124
:100530002000C6B24FF0000877E0002420E0C6EBB0
:1005400006103C4901EBC00008EB4801405C01216A
:10055000A140084058B11DB90A9801F04BFB0BE0CF
:100560001FFA89F138460A9A01F04AFB04E01DB9E6
:1005700046F24F2001F03EFB781CC7B2601CC4B2AB
:10058000082CDCDB002421E0C6EB0610294901EB36
:10059000C00108EB4800401C085C0121A140084054
:1005A00058B11DB90A9801F025FB0BE01FFA89F13B
:1005B00038460A9A01F024FB04E01DB946F24F20A8
:1005C00001F018FB781CC7B2601CC4B2082CDBDB3E
:1005D000002421E0C6EB0610164901EBC00108EB30
:1005E0004800801C085C0121A140084058B11DB999
:1005F0000A9801F0FFFA0BE01FFA89F138460A9ACF
:1006000001F0FEFA04E01DB946F24F2001F0F2FAC3
:10061000781CC7B2601CC4B2082CDBDB09F10109ED
:10062000574608F1010000F0FF08B8F1280F84DBFD
:10063000BDE8F09FA66E00082DE9F05F04460D4668
:1006400016461F46A346AA46E01DC1B205F10F0398
:100650002A46204601F0C0FAA6F12000C6B24FF0AB
:10066000000830E04FF0000921E0194800EB0610C7
:1006700010F80800012101FA09F1084050B11FB932
:100680000A9801F0B7FA0AE0514658460A9A01F072
:10069000B7FA04E01FB946F24F2001F0ABFA0BF1B4
:1006A000010000F0FF0B09F1010000F0FF09B9F1B2
:1006B000080FDADB0AF101001FFA80FAA34608F1FD
:1006C000010000F0FF08B8F1100FCBDBBDE8F09F90
:1006D000A656000821B1026842F00102026004E05F
:1006E00002684FF6FE731A400260704701684FF6C9
:1006F000FE72114001600021016041608160C160B3
:100700004B49884208D14A490839496841F00F01EC
:10071000474A083A51608AE045491431884208D175
:1007200043490839496841F0F001414A083A5160AB
:100730007DE03F492831884208D13D490839496860
:1007400041F470613A4A083A516070E038493C31EE
:10075000884208D136490839496841F47041344A21
:10076000083A516063E032495031884208D130493B
:100770000839496841F470212D4A083A516056E021
:100780002B496431884208D129490839496841F424
:100790007001274A083A516049E02549783188427A
:1007A00008D123490839496841F07061204A083A64
:1007B00051603CE01F49884206D1011F096841F0A1
:1007C0000F01021F116032E01A491431884208D12A
:1007D0001849091F096841F0F001164A121F1160FB
:1007E00025E014492831884208D11249091F0968B7
:1007F00041F470610F4A121F116018E00D493C313D
:10080000884208D10B49091F096841F47041094A1F
:10081000121F11600BE007495031884207D105498A
:10082000091F096841F47021024A121F11607047C4
:1008300008000240080402400146486880B2704740
:1008400010B50022026847F6F0739A430C6A8B6871
:1008500023430C6923434C6923438C692343CC69AC
:1008600023434C6A23438C6A23431A430260CB68B8
:1008700043600B6883604B68C36010BD036823F05E
:1008800001030360C1604260036843F00103036039
:100890007047704710B50446204602F0D9FC10BDE1
:1008A00070B5044625460C2D63D2DFE805F0060F2F
:1008B000181D222B343D3E4B585D0121042002F0CF
:1008C000ADF90121052002F0A9F953E0012104202E
:1008D00002F0A4F90021052002F0A0F94AE001216C
:1008E000062002F09BF945E00021062002F096F96F
:1008F00040E00121092002F091F901210A2002F0D3
:100900008DF937E00121092002F088F900210A2041
:1009100002F084F92EE00021092002F07FF9002185
:100920000A2002F07BF925E024E00121072002F0F3
:1009300075F94FF4827002F063FC0021072002F089
:100940006DF917E00121082002F068F94FF4827078
:1009500002F056FC0021082002F060F90AE00021B4
:100960000B2002F05BF905E001210B2002F056F9A3
:1009700000E000BF00BF70BD38B5FB48007801281B
:1009800025D10020F9490870F94908600B20FFF7CC
:1009900087FF012003F012F946F24F2040F23F1387
:1009A000EF2200210090084602F0C0FF012001F074
:1009B00055FA252001F052FA0420FFF771FF0020BC
:1009C000FFF76EFF0220E849087000F077FFE64865
:1009D0000078022826D1E7480078A8B100F066FF29
:1009E000022001F03BFA0120FFF75AFF4FF47A7022
:1009F00002F006FC0220FFF753FF0520DA490870D9
:100A00000D2001F02BFA0DE0DB48007850B100F02A
:100A10004DFF032001F022FA1120D3490870002075
:100A200001F01CFAD0480078052824D1D3488088EA
:100A3000B0F5D96F11DDD1488088B0F5FA6F0CDCC4
:100A40000E2001F00BFA0820FFF72AFF0620C64906
:100A50000870042001F002FA0DE0C8488088B0F563
:100A6000D96F08DC0F2001F0F9F91120BE49087098
:100A7000002001F0F3F9BC48007806283CD1BF48BB
:100A80000088B0F51B7F1ADBBC48008840F2457136
:100A9000884214DCB9484088B0F51B7F0FDBB748AB
:100AA000408888420BDC052001F0D8F90320AE49CC
:100AB0000870072001F0D2F903F066F81CE0AF4897
:100AC0000088B0F51B7F0EDBAC48008840F2457112
:100AD000884208DCA9484088B0F51B7F03DBA748A3
:100AE0004088884208DD062001F0B8F911209E49AF
:100AF0000870002001F0B2F99B48007803282FD13C
:100B00009F48007803280CD100209D4908701120CF
:100B100095490870002001F0A1F9092001F09EF923
:100B20001EE0012140F6B83000F0D4FF38B103F0E8
:100B30002BF893480078401C9149087010E09148C8
:100B4000007868B100208F490870082001F086F90C
:100B500004208549087001F0B1FF0A2001F07EF9F8
:100B600081480078042837D18748007803280CD1C1
:100B700000208549087011207B4908700C2001F085
:100B80006DF9002001F06AF926E002214FF47A6045
:100B900000F0A0FF38B101F091FF7B480078401CC5
:100BA0007949087018E079480078A8B100207749A1
:100BB00008700B2001F052F908206B4908701020D2
:100BC00001F04CF9322240F6B831012001F0B4FDB9
:100BD0006F4800686649086063480078082846D175
:100BE000042141F2883000F075FF78B1002240F610
:100BF000B831012001F0A0FD11205B4908700020F0
:100C000001F02CF9122001F029F930E0614908784F
:100C100002F0EAFF60490860A02002F0E5FF5F49AA
:100C200008605B480068B0F5700F20D25949087819
:100C300002F0DAFF56490968884218D8A02002F06D
:100C4000D3FF53490968884211D3112001F006F9F6
:100C5000002240F6B831012001F06EFD0920424922
:100C600008702E2240F6B831012001F065FD3E48A3
:100C70000078092856D1052141F2883000F02AFF7A
:100C800078B1002240F6B831012001F055FD112065
:100C900035490870002001F0E1F8152001F0DEF878
:100CA00040E03F480078B8B9802002F09DFF384905
:100CB0000968884210D8012039490870002240F69E
:100CC000B83101F039FD132001F0C8F8142240F6C4
:100CD000B831012001F030FDB02002F085FF2C4931
:100CE000096888421ED8002240F6B831012001F080
:100CF00023FD4FF4487002F083FA0A20FFF7D0FD7D
:100D0000002404E04FF47A7002F07AFA641C052C97
:100D1000F8DB252001F0A2F80120144908700A2010
:100D200011490870104800780A284AD11148007803
:100D3000C0B300F0BBFD142001F090F8162001F0C4
:100D40008DF802F00BFF4FF47A7002F059FA25206B
:100D500001F084F80B20044908700A20FFF7A0FD79
:100D60000420FFF79DFD2CE06400002070000020AF
:100D700038000020900000208A000020240000207D
:100D800044000020650000204C0000206600002088
:100D900030000020243C0008800000208400002057
:100DA00071000020FFE78248007850B100F07EFD1E
:100DB000152001F053F811207E490870002001F041
:100DC0004DF87C4800780B282DD17B480078E0B1A5
:100DD00000F06CFD172001F041F80520FFF760FDE1
:100DE00002F0BCFE0C2073490870192001F036F89F
:100DF000002404E04FF47A7002F002FA641C032C21
:100E0000F8DB252001F02AF80DE06948007850B1A0
:100E100000F04CFD182001F021F811206549087000
:100E2000002001F01BF8634800780C282DD162489F
:100E30000078E0B100F03AFD1A2001F00FF806202A
:100E4000FFF72EFD02F08AFE0D205A4908701C2083
:100E500001F004F8002404E04FF47A7002F0D0F9B5
:100E6000641C052CF8DB252000F0F8FF0DE050484D
:100E7000007850B100F01AFD1B2000F0EFFF1120A8
:100E80004C490870002000F0E9FF4A4800780D281E
:100E90002CD149480078D8B100F008FD1D2000F0A1
:100EA000DDFF0420FFF7FCFC1F2000F0D7FF02F05D
:100EB00091FE0021052001F0B1FE4FF47A7002F09E
:100EC0009FF9252000F0CAFF0E203A4908700DE076
:100ED0003748007850B100F0E9FC1E2000F0BEFF5A
:100EE000112034490870002000F0B8FF3148007824
:100EF0000E2821D13048007880B100F0D7FC2020A6
:100F000000F0ACFF02F02AFE0F202A4908702220D0
:100F100000F0A4FF252000F0A1FF0DE02448007898
:100F200050B100F0C3FC212000F098FF11202149AE
:100F30000870002000F092FF1E4800780F281CD196
:100F40001D48007858B100F0B1FC232000F086FF66
:100F5000102018490870262000F080FF0DE014488A
:100F6000007850B100F0A2FC242000F077FF11209F
:100F700010490870002000F071FF0E480078112819
:100F800003D00C48007810280CD10C48007848B1E8
:100F90000A20FFF785FC02F01DFE00F087FC01200F
:100FA000044908700A21012002F016FD38BD000036
:100FB0008A00002064000020900000208D000020A6
:100FC0002DE9F041024600250026002000230024E0
:100FD000002791F803C00CF00F0591F803C00CF046
:100FE000100CBCF1000F03D091F802C04CEA0505CB
:100FF00091F800C0BCF1000F31D0146800202BE044
:101000004FF0010C0CFA00F3B1F800C00CEA030633
:101010009E4220D183004FF00F0C0CFA03F7BC4323
:1010200005FA03FC4CEA040491F803C0BCF1280F54
:1010300006D14FF0010C0CFA00FCC2F814C00AE013
:1010400091F803C0BCF1480F05D14FF0010C0CFA28
:1010500000FCC2F810C0401C0828D1D31460B1F8BD
:1010600000C0BCF1FF0F34DD546800202EE000F119
:10107000080C4FF0010808FA0CF3B1F800C00CEAB4
:1010800003069E4221D183004FF00F0C0CFA03F7A8
:10109000BC4305FA03FC4CEA040491F803C0BCF11C
:1010A000280F05D100F1080C08FA0CF8C2F81480DA
:1010B00091F803C0BCF1480F07D100F1080C4FF0C4
:1010C000010808FA0CF8C2F81080401C0828CED39A
:1010D0005460BDE8F0810246002093680B400BB1DC
:1010E000012000E0002070474161704701617047B6
:1010F000014601F582720CCA9A4204DB01F5827244
:101100000CCAD01A06E0D1F8042102F58272D1F897
:101110000831D01A7047000010B50248FFF78CFB69
:1011200010BD00006C00024002791206437902EB08
:101130000342837902EB0322C3791A44024B1A60FB
:101140000122024B1A7070477400002067000020D3
:1011500000BFFEE710B500244FF48070124908600C
:101160000520FFF797FB4FF400700F49086005203A
:10117000FFF790FB00F040F81420FFF78BFB0A48C4
:10118000083800680020041200F048F80520FFF736
:1011900081FB4FF400700449091D08601920FFF716
:1011A00079FB204610BD0000100C014070B50024F2
:1011B00000F022F8002518E04FF400700D49086097
:1011C0000520FFF767FB6006040E0A480838006830
:1011D000C0F3002004434FF400700649091D086065
:1011E0000520FFF757FB681CC5B2082DE4DB20463D
:1011F00070BD0000100C014008B54FF48070ADF8D0
:10120000000004208DF8030001208DF802006946DB
:101210000148FFF7D5FE08BD000C014008B54FF4AA
:101220008070ADF8000014208DF8030001208DF8C7
:10123000020069460148FFF7C3FE08BD000C0140EB
:1012400010B5FFF7EBFF4FF48070084908604000CD
:10125000091F08600520FFF71DFB4FF400700349CC
:1012600008600520FFF716FB10BD0000140C0140BC
:1012700070B50446002522E004F0800020B14FF450
:1012800080701049086004E04FF480700D49091D1A
:1012900008606006040E0520FFF7FCFA4FF40070AA
:1012A000084908600520FFF7F5FA4FF4007005497A
:1012B000091D08600520FFF7EDFA681CC5B2082D6E
:1012C000DADB70BD100C014010B5FFF7A7FF4FF43B
:1012D000807008490860400008600520FFF7DAFACE
:1012E0004FF400700349091D08600520FFF7D2FA8A
:1012F00010BD0000100C014010B5FFF78FFF4FF438
:1013000080700A490860400008600520FFF7C2FAB3
:101310004FF480700549091D08600520FFF7BAFAEF
:101320004FF400700149091D086010BD100C014008
:1013300010B54FF48070084908604000091F08602C
:101340000520FFF7A7FA4FF480700349091F0860D2
:101350000520FFF79FFA10BD140C014008B50121CC
:10136000082001F0CFFA4FF48070ADF8000014208F
:101370008DF8030001208DF8020069460548FFF74B
:101380001FFE4FF40070ADF8000069460148FFF7FA
:1013900017FE08BD000C014000B591B04FF480402D
:1013A00001F084FA0121084601F08CFA01214FF482
:1013B000017001F0A7FA0120ADF8400000208DF87F
:1013C000430010A94048FFF7FBFD0220ADF84000A4
:1013D00010A93D48FFF7F4FD8020ADF8400010A9AA
:1013E0003948FFF7EDFD3948FFF780F9384800909C
:1013F00038480190002002900320039000200490C0
:1014000080200590400006908000079020200890E2
:101410000002099000200A9069462C48FFF710FA54
:1014200001212A48FFF756F900200B9001208DF882
:1014300030008DF831004FF460200D9000200E90A8
:1014400003208DF83C000BA921484C38FEF7F6FE2E
:101450000523012200211E484C38FEF717FF052303
:10146000022201211A484C38FEF710FF05230322FF
:10147000072117484C38FEF709FF012114484C3862
:10148000FEF7BCFE012112484C38FEF7ACFE1048B6
:101490004C38FEF757FF00BF0D484C38FEF7C3FE2F
:1014A0000028F9D10A484C38FEF75CFF00BF084815
:1014B0004C38FEF7AEFE0028F9D1012104484C3823
:1014C000FEF745FF11B000BD0008014008000240D2
:1014D0004C2401402400002008B50220ADF8000093
:1014E00003208DF8020010208DF8030069460248A1
:1014F000FFF766FD08BD0000000C014008B5802024
:10150000ADF8000003208DF8020010208DF80300D4
:1015100069460248FFF754FD08BD0000000C014079
:1015200008B54FF48070ADF8000003208DF802007C
:1015300010208DF8030069461048FFF741FD4FF475
:101540000070ADF8000069460C48FFF739FD4FF414
:101550000040ADF8000069460948FFF731FD4FF43F
:1015600000410748FFF7C0FD642001F049FE4FF439
:1015700000410348FFF7BAFD08BD0000000C014020
:101580000008014008B54FF48070ADF8000003205A
:101590008DF8020010208DF8030069460948FFF716
:1015A0000FFD4FF40070ADF8000069460548FFF7E5
:1015B00007FD4FF48060ADF8000069460148FFF771
:1015C000FFFC08BD0010014008B54FF48060ADF885
:1015D000000003208DF8020010208DF803006946FA
:1015E0004E48FFF7EDFC4FF40060ADF8000069468F
:1015F0004A48FFF7E5FC4FF400614848FFF776FDE5
:101600004FF48050ADF8000069464448FFF7D8FC1D
:101610004FF480514148FFF769FD4FF40050ADF899
:10162000000069463D48FFF7CBFC4FF400513B48B2
:10163000FFF75CFD4FF48040ADF800006946374885
:10164000FFF7BEFC4FF480413448FFF74FFD4FF4E5
:101650000040ADF8000069463048FFF7B1FC4FF498
:1016600000412E48FFF742FD0120ADF80000694619
:101670002B48FFF7A5FC01212948FFF737FD022081
:10168000ADF8000069462648FFF79AFC022124487D
:10169000FFF72CFD0420ADF8000069462048FFF755
:1016A0008FFC04211E48FFF721FD0820ADF8000043
:1016B00069461B48FFF784FC08211948FFF716FD0F
:1016C0001020ADF8000069461548FFF779FC10219D
:1016D0001348FFF70BFD2020ADF8000069461048C5
:1016E000FFF76EFC20210E48FFF700FD4020ADF80B
:1016F000000069460A48FFF763FC40210848FFF7ED
:10170000F5FC8020ADF8000069460548FFF758FC5D
:1017100080210348FFF7EAFC08BD0000000C0140EF
:101720000010014008B50120ADF8000003208DF83D
:10173000020010208DF8030069460248FFF740FCC4
:1017400008BD0000000C014008B54FF48050ADF812
:10175000000003208DF8020010208DF80300694678
:101760000148FFF72DFC08BD0010014010B501F045
:1017700027F800F0ADFF10BD08B54020ADF800001F
:1017800003208DF8020048208DF8030069460248C6
:10179000FFF716FC08BD0000000801400021C0F85A
:1017A0000811C0F804114FF48271C0F80C11002127
:1017B000C0F810117047000008B52020ADF80000F7
:1017C00003208DF8020048208DF803006946024886
:1017D000FFF7F6FB08BD00000008014008B54FF414
:1017E0000060ADF8000003208DF8020010208DF895
:1017F000030069460148FFF7E3FB08BD0010014004
:1018000008B51020ADF8000003208DF80200482034
:101810008DF8030069460248FFF7D2FB08BD0000BF
:101820000008014010B5F8220649074801F095FD6F
:101830004FF48271054801F089FB0548FFF7AEFFC0
:1018400010BD0000E0040020D4040020D0030020DC
:10185000BC02002008B54FF40060ADF80000032082
:101860008DF8020010208DF8030069460548FFF747
:10187000A7FB4FF48050ADF8000069460148FFF720
:101880009FFB08BD0008014008B54FF48070ADF81B
:10189000000003208DF8020048208DF803006946FF
:1018A0000148FFF78DFB08BD0008014000B500F0BE
:1018B000A5F800F095F800F085F800BD01201C495E
:1018C000087000201B4908601B49087001201B4953
:1018D000087000201A4908601A49087001201A4946
:1018E0000870002019490860194908700120194939
:1018F000087000201849086001201849087000206D
:1019000017490860174908601749086017490860B7
:101910001749087017490870174908601749086087
:101920001749087017490870174908707047000078
:101930003C00002040000020440000204500002022
:10194000480000204C0000204D00002050000020E6
:101950005400002055000020580000205C000020AA
:101960006000002078000020380000207400002073
:101970007000002071000020680000206C00002032
:1019800065000020660000206700002010B5FFF70A
:10199000E5FCFFF7B1FC3020FFF76AFCFFF7DAFB4C
:1019A000AA20FFF765FCFFF7D5FB0020FFF760FCDE
:1019B000FFF7D0FB0020FFF75BFCFFF7CBFBFFF747
:1019C000B7FC10BD002003490870034908700349A3
:1019D000087070478E0000208F00002090000020CB
:1019E00000200349087003490870034908707047D4
:1019F0008B0000208C0000208D0000200020034977
:101A00000870034908700349087070478800002077
:101A1000890000208A00002010B5FFF76DFC3120FE
:101A2000FFF726FCFFF796FBFFF7C0FB0446FFF726
:101A30004BFCFFF77DFC402C01D1012010BD0020A4
:101A4000FCE7000070B502460C465378042108E01C
:101A5000555C081F054E305C854201D0002070BDEA
:101A6000491C9942F4DB0120F9E70000243C0008FE
:101A700070B502460C465378042109E0555C01F12B
:101A8000EE00054E305C854201D0002070BD491C3F
:101A90009942F3DB0120F9E7243C000808B502462F
:101AA000732915D113798DF8003053798DF80130F1
:101AB00093798DF802309DF80030012B07D19DF805
:101AC0000130012B03D19DF8023003B9012000E061
:101AD000002008BD0246062927D2DFE801F02603D0
:101AE0000A11181F2F48304B18603048304B1860CF
:101AF0001CE030482C4B18602F482D4B186015E027
:101B00002E48294B18602E48294B18600EE02D48AE
:101B1000254B18602C48264B186007E02B48224BB9
:101B200018602B48224B186000E000BF00BF1E4821
:101B300000680078012808D1264800681C4B1B6803
:101B400018600020184B1B68187022480068104469
:101B5000204B1B68984210D21E48006810441D4B51
:101B60001B6898421BD101200F4B1B681870002086
:101B70000F4B1B681860012070470D480068006813
:101B8000144B1B68181A904209D30120064B1B689E
:101B900018700020064B1B6818600120ECE700203D
:101BA000EAE700003C000020680000204000002020
:101BB0006C00002045000020480000204D0000205F
:101BC0005000002055000020580000205C0000203C
:101BD00060000020180000202DE9F04104460D4669
:101BE00016461F463B4632462946204601F004FE73
:101BF000BDE8F08110B50446204601F031FE10BD6D
:101C000070B504460D46164632462946204601F078
:101C100059FE70BD10B500207A490860142001F00B
:101C2000EFFA01207849C1F8BC014FF4487001F087
:101C3000E7FA112000F034FF782001F0E1FA3520B6
:101C400000F02EFF002000F032FF362000F028FFC9
:101C5000002000F02CFFB22000F022FF0C2000F04A
:101C600026FF0C2000F023FF002000F020FF33208F
:101C700000F01DFF332000F01AFFB72000F010FF26
:101C8000352000F014FFBB2000F00AFF192000F0FF
:101C90000EFFC02000F004FF2C2000F008FFC2203F
:101CA00000F0FEFE012000F002FFC32000F0F8FE6D
:101CB0001D2000F0FCFEC42000F0F2FE202000F009
:101CC000F6FEC62000F0ECFE0F2000F0F0FED02063
:101CD00000F0E6FEA42000F0EAFEA12000F0E7FEFE
:101CE000E82000F0DDFE832000F0E1FEE02000F0BF
:101CF000D7FED22000F0DBFE112000F0D8FE162027
:101D000000F0D5FE0D2000F0D2FE0D2000F0CFFE39
:101D1000382000F0CCFE3D2000F0C9FE442000F049
:101D2000C6FE4C2000F0C3FE1C2000F0C0FE1520B3
:101D300000F0BDFE152000F0BAFE1C2000F0B7FE3A
:101D4000202000F0B4FEE12000F0AAFED22000F036
:101D5000AEFE112000F0ABFE162000F0A8FE0D2014
:101D600000F0A5FE0D2000F0A2FE382000F09FFE3E
:101D70003D2000F09CFE442000F099FE4C2000F035
:101D800096FE1C2000F093FE152000F090FE15201A
:101D900000F08DFE1C2000F08AFE202000F087FE5F
:101DA0003A2000F07DFE552000F081FE292000F051
:101DB00077FE0A2001F024FA2A2000F071FE0020AC
:101DC00000F075FE002000F072FE002000F06FFEB3
:101DD000EF2000F06CFE2B2000F062FE002000F0EF
:101DE00066FE002000F063FE012000F060FE3F2050
:101DF00000F05DFE782001F003FA2C2000F050FE88
:101E000010BD0000BC812142008021422DE9F84331
:101E10000746884614461E46DDE90895102C07D172
:101E20004B463246414638460095FEF705FC12E027
:101E3000182C07D14B463246414638460095FEF7EE
:101E4000F1FA08E0282C06D14B4632464146384686
:101E50000095FEF75BFBBDE8F883000001B584B098
:101E6000049803900398252818D14FF6E0700021BC
:101E7000F8A31822CDE900104FF49171642001F00D
:101E80004BFA4FF6E0700021F3A31822CDE90010C1
:101E90004FF49171C82001F03FFA09E046F24F205B
:101EA00040F23F13EF22E6210090002001F03EFDBA
:101EB000039827287AD2DFE800F0EF14EEED3AEC31
:101EC000EB46EAE952E8E72EE6E55EE4E36AE2E1A2
:101ED00086E0DFA0DEDDBADCDBF0D9D8D7D6D57955
:101EE000D4004FF6FF700021DCA31022CDE90010D2
:101EF0000521002001F010FA4FF6E0700021DDA36B
:101F00001022CDE900104FF48271002001F004FA94
:101F100001F049F93FE34FF6FF700021DDA31022E5
:101F2000CDE900101821002001F0F6F933E34FF657
:101F3000FF700021DCA31022CDE900102B2100202E
:101F400001F0EAF927E34FF6FF700021DBA310222E
:101F5000CDE900103E21002001F0DEF91BE34FF631
:101F6000FF700021DBA31022CDE9001051210020D9
:101F700001F0D2F90FE34FF6FF700021DBA310222E
:101F8000CDE900106421002001F0C6F903E34FF60B
:101F9000FF700021DBA31022CDE900107721002083
:101FA00001F0BAF94FF6E070002100E0F2E2DBA3A5
:101FB0001022CDE900104FF48271002001F0ACF93D
:101FC00001F0F1F8E7E24FF6FF700021DAA31022EA
:101FD000CDE900108A21002001F09EF94FF6E07053
:101FE0000021DBA31022CDE900104FF48271002004
:101FF00001F092F901F0D7F8CDE24FF6FF70002121
:10200000DAA31022CDE900109D21002001F084F90F
:102010004FF6E0700021DCA31022CDE900104FF450
:102020008271002001F078F901F0BDF8B3E24FF6BB
:10203000FF700021DCA31022CDE90010B0210020A8
:1020400001F06AF94FF6E0700021B4A31022CDE947
:1020500000104FF48271002001F05EF901F0A3F846
:1020600099E27AE250E243E231E035E228E214E01C
:102070001AE20DE200E2F3E1E6E1D9E1DDE0D0E0D1
:10208000C3E0B6E091E084E077E06AE05DE050E034
:10209000A3E096E041E034E042E24FF6FF70002119
:1020A000C7A31022CDE90010C321002001F034F9AC
:1020B0004FF6E0700021C9A31022CDE900104FF4C3
:1020C0008271002001F028F901F06DF863E24FF60B
:1020D000FF700021C7A31022CDE90010D6210020F7
:1020E00001F01AF94FF6E0700021C9A31022CDE9E2
:1020F00000104FF48271002001F00EF901F053F846
:1021000049E24FF4FC600021C74B1022CDE90010DA
:102110000521DC2001F000F93DE24FF47840002178
:10212000C24B1022CDE900100521DC2001F0F4F8AB
:1021300031E24FF4FC600021BB4B1022CDE90010CE
:102140003E21DC2001F0E8F825E24FF47840002140
:10215000B64B1022CDE900103E21DC2001F0DCF866
:1021600019E24FF4FC600021AF4B1022CDE90010C2
:102170005121DC2001F0D0F80DE24FF4784000212D
:10218000AA4B1022CDE900105121DC2001F0C4F847
:1021900001E24FF4FC600021A34B1022CDE90010B6
:1021A0001821DC2001F0B8F8F5E14FF47840002167
:1021B0009E4B1022CDE900101821DC2001F0ACF874
:1021C000E9E14FF4FC600021974B1022CDE90010AB
:1021D0002B21DC2001F0A0F8DDE14FF47840002154
:1021E000924B1022CDE900102B21DC2001F094F855
:1021F000D1E14FF4FC6000218B4B1022CDE900109F
:102200006421DC2001F088F8C5E14FF4784000211A
:10221000864B1022CDE900106421DC2001F07CF80F
:10222000B9E14FF4FC6000217F4B1022CDE9001092
:102230007721DC2001F070F8ADE14FF47840002107
:102240007A4B1022CDE900107721DC2001F064F8F0
:10225000A1E10000596573004E6F0000312E536CF0
:102260006565702063757272656E74203C343075DC
:10227000413F00005468652063757272656E74207A
:102280006D657465722076616C75653C343075419E
:102290003F000000322E44432F444320776F726B7F
:1022A00073206F6B3F000000332E4D6F746F72739D
:1022B00020776F726B73206F6B3F0000342E535783
:1022C0002076657273696F6E20697320312E312E0E
:1022D000303F0000352E506172616D657465727318
:1022E000206172652072696768743F00362E302E57
:1022F000386D6D48672074726967676572206F6B0F
:102300003F000000372E31306D6D486720747269D0
:1023100067676572206F6B3F00000000536F6C6948
:10232000642079656C6C6F7720616E6420766962D9
:10233000726174696F6E3F00382E576F726B206F39
:102340006B206F6E2056623E322E36563F000000E4
:102350004C454420736F6C696420677265656E3FFD
:1023600056696261726174696F6E3F00392E576FF2
:10237000726B206F6B206F6E20322E3435563C56B8
:10238000623C322E36563F00466C61736820796598
:102390006C6C6F77207468656E207475726E206740
:1023A0007265656E3F00000031302E576F726B20F2
:1023B0006F6B206F6E2056623C322E3435563F00D4
:1023C00031312E4D616E75616C20706F77657220B2
:1023D0006F6E2F6F6666206F6B3F00004D616E75EC
:1023E000616C20706F776572206F6E2F6F6666204C
:1023F0006F6B3F0031322E4D616E75616C206368EA
:102400006F6F7365206D6F6465206F6B3F00000018
:102410004D616E75616C2063686F6F7365206D6FC1
:102420006465206F6B3F00007C0000207E00002070
:102430004FF4FC600021594B1022CDE900108A2195
:10244000DC2000F069FFA6E04FF478400021544BF7
:102450001022CDE900108A21DC2000F05DFF9AE017
:102460004FF4FC6000214D4B1022CDE900109D215E
:10247000DC2000F051FF8EE04FF478400021484B03
:102480001022CDE900109D21DC2000F045FF82E004
:102490004FF4FC600021414B1022CDE90010B02127
:1024A000DC2000F039FF76E04FF4784000213C4B0F
:1024B0001022CDE90010B021DC2000F02DFF6AE0F1
:1024C0004FF4FC600021354B1022CDE90010C321F0
:1024D000DC2000F021FF5EE04FF478400021304B1B
:1024E0001022CDE90010C321DC2000F015FF52E0DE
:1024F0004FF4FC600021294B1022CDE90010D621B9
:10250000DC2000F009FF46E04FF478400021244B26
:102510001022CDE90010D621DC2000F0FDFE3AE0CB
:102520004FF4784000211FA32822CDE90010F821A4
:10253000502000F0F1FE4FF6E07000211BA318229E
:10254000CDE900104FF49171002000F0E5FE01206C
:10255000FEF7A6F900F027FE1DE04FF4FC60002115
:1025600014A32822CDE90010F821502000F0D4FE59
:102570004FF6E07000210DA31822CDE900104FF4B2
:102580009171002000F0C8FE0120FEF789F900F0EB
:102590000AFE00E000BF00BF05B000BD7C000020C7
:1025A0007E0000204641494C0000000053746172D7
:1025B00074000000504153530000000000BFFEE7CC
:1025C00010B50446204601F091FA012010BD00002C
:1025D00070B5384D00263848FEF78AFD86B264E0B3
:1025E0003548FDF7C4FE04463448007800284AD038
:1025F0003348007860B3334800782C543148007871
:10260000401C3049087030480078401E2E49087040
:1026100008460078002846DC69782846FDF7EBFE7E
:1026200058B14FF4967223492848FDF77BFD27489F
:10263000FFF7C6FF022000F0E3FD00201F490870ED
:102640001F4908704FF496711A48FDF784FD2AE07F
:1026500040F22B10844210DA002C0EDD1548194987
:102660000978445418480470012015490870154829
:102670000078401C1349087015E000200F490870CD
:102680000F4908700FE0FF2C0DD10A48047001209B
:102690000A49087000200A49087001200949087099
:1026A000002009490870701E86B2002E98DC0120B7
:1026B00070BD0000D8050020BC0200202A000020C8
:1026C0002B0000202C0000202D00002004070020FB
:1026D00000B587B044F24F60ADF8140040F2E73027
:1026E000ADF810000020ADF81600ADF8120004A9F6
:1026F000104800F0BDFB6020ADF800000020ADF8F0
:1027000008000120ADF802000020ADF8060069467F
:10271000084800F057FB0821064800F09FFB012104
:10272000044800F016FB0121024800F024FB07B02A
:1027300000BD000000080040F0B587B007460C4619
:102740001546012C37DB4CF25030844233DC642DCB
:1027500031DC44F2506090FBF4F0401E80B2ADF8E2
:10276000140040F2E730ADF810000020ADF816007C
:10277000ADF81200BDF81400461C6E436420B6FB91
:10278000F0F66020ADF800000020ADF80800012050
:10279000ADF80200B0B2ADF80600012F0BD104A9CC
:1027A000064800F065FB6946044800F00BFB082171
:1027B000024800F053FB07B0F0BD000000080040E5
:1027C00008B50121042000F08DF80121092000F056
:1027D00099F84020ADF8000018208DF80300032080
:1027E0008DF8020069460248FEF7EAFB08BD0000CA
:1027F000000C01407047000070B5002100230F223B
:10280000C47804B3154C246804F4E064C4F5E064AF
:10281000210AC1F10403CA40447804FA03F1847820
:102820001440214309010E4C0678A155047804F0A8
:102830001F050124AC4005786D11AD0005F1E025C0
:10284000C5F8004109E0047804F01F050124AC40FC
:10285000044D0678761145F8264070BD0CED00E079
:1028600000E400E080E100E00C4A11600C4AD2680C
:1028700002F47F42C3B21A43094BDA600022094BCB
:10288000C3F8B821054B1B1F1A6001221A60034BC5
:102890001B1D1A60034BC3F8B4217047B481214259
:1028A00000100140008021427047000001460020D6
:1028B000034A506820F440400843506070470000CD
:1028C0000010024029B1064A52690243044B5A6182
:1028D00004E0034A52698243014B5A617047000089
:1028E0000010024029B1064AD2690243044BDA6162
:1028F00004E0034AD2698243014BDA617047000069
:102900000010024029B1064A92690243044B9A61C1
:1029100004E0034A92698243014B9A6170470000C8
:102920000010024030B500210022002400232D4D6C
:102930006D6805F00C0121B1042905D0082923D1C7
:1029400005E0294D056022E0274D05601FE0254D7B
:102950006D6805F47012234D6D6805F4803402250E
:1029600005EB92421CB9214D554305600BE01D4D0E
:102970006D6805F400351DB11C4D5543056002E03E
:10298000194D5543056002E0174D056000BF00BFBB
:10299000144D6D6805F0F0010909154D6B5C056873
:1029A000DD4045600F4D6D6805F4E061090A104D8A
:1029B0006B5C4568DD4085600A4D6D6805F46051CB
:1029C000C90A0B4D6B5C4568DD40C560054D6D68FF
:1029D00005F44041890B074D6B5CC568B5FBF3F509
:1029E000056130BD0010024000127A0000093D0070
:1029F000000000201000002001460020034A50681B
:102A000020F4E0600843506070470000001002406E
:102A10002DE9F0410446FEF77FFB0746D4F80C0190
:102A2000B84203DBD4F80C01C61B04E0D4F80C0157
:102A300000F58270C61BC4F80C7100251BE0D4F8A9
:102A400010012844B0F5827F0BDBD4F81001284434
:102A5000A0F5827004F58A72115C2046FDF799FC9E
:102A600008E0D4F81001421904F58A70815C204610
:102A7000FDF78FFC6D1CB542E1DBD4F8100130444A
:102A8000C4F81001D4F81001B0F5827F05DBD4F84A
:102A90001001A0F58270C4F81001BDE8F081704704
:102AA00010B5044600212046FFF7DEFE10BD10B52C
:102AB000044601212046FFF7D7FE10BD1CB5FF20BC
:102AC0008DF8000005208DF8010001208DF802002E
:102AD00005208DF8030001208DF804006846FDF7FD
:102AE00079FC9DF80100821C6946024800F05BFCFD
:102AF0001CBD0000D40400201CB5FF208DF8000090
:102B000005208DF8010001208DF8020006208DF8C7
:102B1000030001208DF804006846FDF75BFC9DF87A
:102B20000100821C6946024800F03DFC1CBD00000B
:102B3000D404002010B500F001F810BD0CB5002041
:102B4000019000903348006840F4803031490860BB
:102B500000BF3048006800F4003000900198401C2D
:102B60000190009818B90198B0F5A06FF1D12948EB
:102B7000006800F4003010B10120009001E0002056
:102B800000900098012843D12348006840F01000CD
:102B9000214908600846006820F0030008600846E4
:102BA000006840F0020008601A484068194948600F
:102BB0000846406848600846406840F480604860C5
:102BC0000846406820F47C1048600846406840F49D
:102BD000E81048600846006840F08070086000BF58
:102BE0000C48006800F000700028F9D009484068DF
:102BF00020F00300074948600846406840F00200A2
:102C0000486000BF0348406800F00C000828F9D174
:102C10000CBD000000100240002002402DE9F041F0
:102C200004460D46002600270C2C2BD2DFE804F0CA
:102C300006090C0F12151821241B1E27184E0127F8
:102C400021E0174E02271EE0164E20271BE0154EEE
:102C5000102718E0144EB71515E0134E771512E043
:102C6000114E37150FE00F4EF7140CE00D4EB71450
:102C700009E00D4EF71406E00B4EB71403E0094EC1
:102C8000B71500E000BF00BF25B139463046FEF75A
:102C90002DFA03E039463046FEF726FABDE8F0810A
:102CA000000C01400008014000100140042808D138
:102CB0004FF0E021096941F004014FF0E022116179
:102CC00007E04FF0E021096921F004014FF0E02214
:102CD000116170477047000010B51348006840F05C
:102CE00001001149086008464068104908400E4933
:102CF0004860084600680E4908400B4908600846CD
:102D0000006820F4802008600846406820F4FE0037
:102D100048604FF41F008860FFF70CFF4FF0006021
:102D20000449086010BD0000001002400000FFF8D8
:102D3000FFFFF6FE08ED00E010B50121880700F066
:102D400026F828B100F06EFE0121880700F010F887
:102D500010BD21B1028842F08002028004E00288A6
:102D60004FF67F731A4002807047CA430282704751
:102D7000CA430282704721B1028842F001020280F8
:102D800004E002884FF6FE731A400280704730B5A7
:102D90000246002000230024158A05EA01039589D4
:102DA00005EA010413B10CB1012000E0002030BDA0
:102DB0001AB183890B43838102E083898B4383812A
:102DC0007047000070B5002400220023058C4FF6E8
:102DD000FE7635400584028C8388048B4FF68F7510
:102DE0002C40B51E2C400D882C43751E2A400D89A1
:102DF0002A434D882A43144DA8420BD0134DA842B4
:102E000008D0134DA84205D0124DA84202D0124D51
:102E1000A84213D14FF6F7752A404D892A434FF641
:102E2000FB752A408D882A434FF6FF652B404FF6ED
:102E3000FF552B408D892B43CD892B438380048301
:102E4000CD888586028470BD002C0140003401408D
:102E50000040014000440140004801400A46002172
:102E6000018B4FF6F773194011430183704700003F
:102E7000002202881D4B98420ED01D4B98420BD069
:102E8000B0F1804F08D01B4B984205D01A4B9842A6
:102E900002D01A4B984204D14FF68F731A404B88D8
:102EA0001A43174B984207D0164B984204D04FF65E
:102EB000FF431A40CB881A4302808B8883850B8896
:102EC00003850A4B98420BD0094B984208D00E4B11
:102ED000984205D00D4B984202D00D4B984201D13B
:102EE0000B7A03860123838270470000002C014087
:102EF000003401400004004000080040000C004085
:102F00000010004000140040004001400044014017
:102F10000048014010B5CCB04FF4967101A8FDF700
:102F20001AF94FF4967201A9074800F01DFA0446F9
:102F30001CB1214601A800F019F91E21042000F05F
:102F40004BFD4CB010BD0000D404002030B591B052
:102F500005460C4601210846FFF7B4FC0121052077
:102F6000FFF7D0FC01214804FFF7BCFC0820ADF8B6
:102F7000400004208DF8430010A93848FEF720F8DF
:102F80000420ADF8400003208DF8420018208DF891
:102F9000430010A93148FEF713F83148FDF7A6FBAE
:102FA00030480590002006901020079000200890DF
:102FB000099080200A9000200B900C900D904FF407
:102FC00000500E9000200F9005A92548FDF738FC11
:102FD00023481438FDF78AFB224805900695002007
:102FE00007900894099080200A9000200B900C9084
:102FF00020200D9000020E9000200F9005A9184887
:103000001438FDF71DFC0122C0211648001F00F0F6
:1030100037F8012112481438FDF75CFB01211048F4
:10302000FDF758FB4FF4E13001900020ADF80800A7
:10303000ADF80A00ADF80C00ADF810000C20ADF8AA
:103040000E0001A90748001F00F024F801210548DF
:10305000001F00F009F811B030BD00000008014069
:10306000800002400444004021B1828942F40052B1
:10307000828104E082894DF6FF731A408281704795
:103080001AB1838A0B43838202E0838A8B43838253
:10309000704700002DE9F04786B005460E46002433
:1030A000A24600BFA1460027B08900B100BF2F464D
:1030B0002C8A4CF6FF700440F08804432C82AC89C3
:1030C0004EF6F3100440B0883189084371890843F3
:1030D0000443AC81AC8A4FF6FF400440B0890443FE
:1030E000AC8201A8FFF71EFC1F48874202D1DDF821
:1030F00010A001E0DDF80CA0A88900F4004040B168
:103100000AEBCA0000EB0A1031684900B0FBF1F885
:1031100007E00AEBCA0000EB0A1031688900B0FB37
:10312000F1F86420B8FBF0F004012009642101FBF0
:103130001089A88900F4004040B1322000EBC9009A
:10314000B0FBF1F000F00700044308E0322000EB90
:1031500009106421B0FBF1F000F00F0004432C8152
:1031600006B0BDE8F08700000038014070B50446A5
:103170000D462A4621460248FDF780FB70BD00003F
:103180008000024000BFFEE702E008C8121F08C12D
:10319000002AFAD170477047002001E001C1121FD8
:1031A000002AFBD1704710B501210846FFF736FD14
:1031B0003C2000F025F800210120FFF72FFD10BD75
:1031C00010B56FF00400FFF771FD09480068094968
:1031D000B0FBF1F040B208490870084690F90000D1
:1031E0004FF47A71484300B20449088010BD0000D2
:1031F0009400002000127A00140000201600002025
:103200000146124AB2F900204A434FF0E0235A61C6
:1032100000229A611A46126942F001021A6100BF47
:103220004FF0E022106900F001021AB100F4803280
:10323000002AF5D04FF0E022126922F001024FF08F
:10324000E0231A6100229A617047000016000020F6
:103250000146124A92F900204A434FF0E0235A6196
:1032600000229A611A46126942F001021A6100BFF7
:103270004FF0E022106900F001021AB100F4803230
:10328000002AF5D04FF0E022126922F001024FF03F
:10329000E0231A6100229A617047000014000020A8
:1032A0002DE9FC5F0446894617469A46DDE90C6B1A
:1032B000A0463D463819C7B20AEB09001FFA80FA4A
:1032C00022E0F02C02DB4446601984B20E98CDE96E
:1032D00000B03378E0B22A464946FEF797FD182D34
:1032E00004D1A5F10C00204484B20CE0102D04D1CF
:1032F000A5F10800204484B205E0282D03D1A5F1F2
:103300001400204484B2761C30787E2802DC3078A9
:103310002028D6DABDE8FC9F2DE9FE4F804689467D
:1033200016461C46DDE90CAB0025002701E0681CB1
:1033300085B214F8011B0029F9D1681C241A06FB78
:1033400005F087B27F103B463246494640468DE83D
:10335000100CFFF7A5FFBDE8FE8F8160002383807E
:10336000C28043800380704730B503460C4698887E
:10337000904200DC9A8800210EE05888DD88A8423F
:1033800001DB002058805D889868405D6054588853
:10339000401C5880481C81B29142EEDB9888801A0C
:1033A0009880104630BDF0B503460C469D88DE88F7
:1033B000B61AB54201DD002016E000210EE01D889E
:1033C000DE88B54201DB00251D80655C1F889E6894
:1033D000F5551D886D1C1D804D1CA9B29142EEDB78
:1033E0009D8815449D800120F0BD2DE9F041FDF739
:1033F00083FF3120FDF73CFFFDF7ACFEFDF7D6FE65
:103400000746FDF71DFFFDF7D1FE0446FDF718FF47
:10341000FDF7CCFE0546FDF713FFFDF7C7FE064698
:10342000FDF752FFFDF784FF200400EB0520304438
:10343000BDE8F08110B51348007820B9FEF7A6FA70
:103440000220104908700F480078022815D1FEF7B5
:10345000E3FA012811D10C48007838B9FFF7C5FF0D
:103460000A49086001200849087006E0FFF7BDFF1F
:10347000074908600020034908700A21032000F072
:10348000ABFA10BD350000203400002038000020C9
:103490003000002010B501211C20FFF733FA012174
:1034A000C802FFF72FFA01210720FFF71BFAFEF7EA
:1034B00037F8FEF737F9FEF70FF8FEF7A1F9FEF738
:1034C0007BF9FEF759F9FEF7DFF9FDF765FFFEF727
:1034D000C1F9FEF713F8FEF755F8FEF77FF9FEF78E
:1034E00033F9FEF79FF9FEF741F9FEF76DF800F0AA
:1034F00019F800F009F800210846FFF78FFB0021BA
:103500000120FFF78BFB10BD034804490860002031
:103510000349887170470000AC000020A80000201B
:103520003008002008B5002008490860FEF772FB4B
:10353000002040F23F13EF220146009000F0F6F920
:1035400000200349C1F8A80108BD0000A88121425C
:103550000080214210B5FFF79DFF042201210D4894
:1035600000F018FA052201210B4800F013FA02229C
:1035700001210A4800F00EFA01221146084800F025
:1035800009FA03220121074800F004FA002000F0A4
:1035900051FA10BD152F0008B9030008293600089C
:1035A00079090008353400081FB54FF4C060FFF7F3
:1035B00023FA01210846FFF795F91C208DF8000039
:1035C00001208DF801008DF802008DF80300684697
:1035D000FFF712F913480068C0084FF47A71B0FB86
:1035E000F1F0401E80B2ADF808000120ADF80400F3
:1035F0000020ADF80A00ADF806008DF80C0001A916
:103600004FF08040FFF734FC01218807FFF7ADFB46
:10361000012211469007FFF7CBFB01218807FFF736
:10362000AAFB1FBD9400002010B56848007802284E
:1036300017D0664800780B2813D0644800780C280F
:103640000FD0624800780D280BD0604800780E2813
:1036500007D05E4800780F2803D05C4800780A281D
:103660006FD15B480078A8B95A480078032806D182
:1036700000205849087001205549087029E01021A0
:103680005548FDF728FD20BB52480078401C5149A1
:1036900008701EE04E48007801281AD14D48007885
:1036A00003280CD100204B490870494908700120BB
:1036B0004A490870FEF794F9FEF784F909E01021F1
:1036C0004548FDF708FD20B142480078401C4149BB
:1036D000087043480078A8B942480078032806D10A
:1036E00000204049087001203D49087029E0402130
:1036F0003948FDF7F0FC20BB3A480078401C3949B6
:1037000008701EE03648007801281AD13548007844
:1037100003280CD10020334908703149087001207A
:1037200031490870FEF76AF9FEF75AF909E04021BD
:103730002948FDF7D0FC20B12A480078401C2949CF
:10374000087022480078112803D0204800781028FB
:1037500037D126480078A8B925480078032806D133
:1037600000202349087001202049087029E0202109
:103770001948FDF7B0FC20BB1D480078401C1C49CF
:1037800008701EE01948007801281AD118480078FE
:1037900003280CD100201649087014490870012034
:1037A00014490870FEF72AF9FEF70CF909E0202108
:1037B0000948FDF790FC20B10D480078401C0C49E9
:1037C00008700521022000F007F910BD64000020F8
:1037D0008800002089000020000801408A000020A5
:1037E0008E0000208F000020900000208B00002021
:1037F0008C0000208D000020F0B507460E461446D0
:103800001D4600212A20FFF72FF801210020FFF795
:103810002BF801213846FFF727F801210020FFF798
:1038200023F801213046FFF71FF800212B20FFF776
:103830001BF80121C4F30720FFF716F8E0B20121BD
:10384000FFF712F80121C5F30720FFF70DF8E8B2E2
:103850000121FFF709F800212C20FFF705F8F0BD42
:103860000021154A11600121144AC2F8B41114490B
:10387000C96801F47F41C0F307221143104AD160A7
:1038800000210D4A083A116001210C4AC2F8B0111A
:103890000B49C96801F47F41C2B21143084AD160A3
:1038A0000021054A083A116001211160121D1160C2
:1038B000024AC2F8B8117047B88121420080214203
:1038C0000010014070B506460C46154600212A201E
:1038D000FEF7CAFF01210020FEF7C6FF0121304696
:1038E000FEF7C2FF01210020FEF7BEFF0121304696
:1038F000FEF7BAFF00212B20FEF7B6FF20120121B0
:10390000FEF7B2FFE0B20121FEF7AEFF2012012167
:10391000FEF7AAFFE0B20121FEF7A6FF00212C204E
:10392000FEF7A2FF2846FFF79BFF70BD2DE9F04F81
:1039300006460C4615461F46A5EB060AA7EB040BE8
:103940003B46224629463046FFF756FF4FF0000916
:103950000BE04FF0000804E00998FFF781FF08F141
:103960000108D045F8D909F10109D945F1D9BDE8D7
:10397000F08F000010B5FFF723FC00F04FF8002295
:103980000121034800F006F800F066F8002010BDA1
:103990005535000870B503460020104600EB400482
:1039A0000C4D05EB8404617100EB400405EB8404CD
:1039B000227100EB400445F82430002400EB400560
:1039C000044E06EB8505EC8000EB400506EB850513
:1039D000AC6070BD4402002030B5092800DD30BD68
:1039E00000BF02460B4B1B6802EB42040A4D05EB7D
:1039F0008404A3604FF47A734B434FF47A74B3FB9F
:103A0000F4F302EB420405EB8404E38000BF00BF43
:103A1000E5E70000180000204402002010B5FFF781
:103A2000C3FD10BD02480068401C01490860704792
:103A30001800002010B5092800DD10BD0021014646
:103A4000002201EB4103034C04EB83035A7100BFD6
:103A500000BFF2E74402002040E000202049086057
:103A600038E01F48006800EB40001E4901EB800071
:103A70004079012829D11A48006800EB400001EB89
:103A8000800080681649096801EB4101154A02EB84
:103A90008101C988084414490968884215D8002062
:103AA0000F49096801EB410102EB810188600C4973
:103AB000096801EB410102EB8101C88008490968EE
:103AC00001EB410152F82100804705480068401C85
:103AD00003490860024800680A28C2D3BDE7000015
:103AE00020000020440200201800002070B5044689
:103AF0002646F578092D13D00A2D19D0732D02D042
:103B0000752D23D11DE073212046FDF7C7FF18B1A5
:103B100001201049087002E000200E49087016E0EC
:103B200009212046FDF78EFF08B1FEF7E5FF0EE004
:103B30000A212046FDF79CFF10B1012006490870BC
:103B400005E075212046FDF7EFFA00E000BF00BF59
:103B500070BD0000650000206600002010B5012146
:103B60000520FFF75BF84FF4FA70FFF749FB0021DF
:103B70000520FFF753F84FF47A70FFF741FB082058
:103B8000FCF78EFE10BD00001CB5FF208DF8000074
:103B900004208DF8010001208DF8020072208DF8BC
:103BA00003006846FCF716FC9DF80100821C69467C
:103BB0000148FFF7F8FB1CBDD404002018B1012117
:103BC000034A116002E00021014A116070470000C1
:103BD000A881214210B501210520FFF71FF84FF4FD
:103BE000FA70FFF70DFB10BD10B50146CC1701EBC5
:103BF0001474C4F30712CC1701EB14742411A1EB55
:103C00000414E3B202EB820003EB400042F22834DA
:103C100060430A2490FBF4F0014C2468204410BD5A
:103C2000380000200801110164281E010000120163
:103C3000641E19010001130164281E010000140113
:103C4000641E19010001150164281E0100001601FF
:103C5000641E19010000210164190101000E2201F6
:103C600064191001002723016419100100272401A1
:103C7000641910010027250064190101000E2600B7
:103C800064190F0100013100641E010101013200BD
:103C9000642801020102330064320103010334008D
:103CA000643C010401043500644601050105360049
:103CB000645001060106110164370F01000F120163
:103CC00064370F010010130164370F01000F140156
:103CD00064370F010010150164370F02000F160141
:103CE000641E0E010000210164280101000E220162
:103CF00064281F0100002301641E0E01001024012E
:103D000064281F0100002501641E0E010010260119
:103D100064281F0100003100641E0101010132000E
:103D200064280102010233006432010301033400FC
:103D3000643C0104010435006446010501053600B8
:103D4000645001060106110164630F01000F1201A6
:103D5000646319010010130164630F01000F140163
:103D6000646319010010150164630F01000F16014F
:103D7000646319010000210164420101000E220167
:103D80006442290100002301641E0E010010240179
:103D90006442290100002501641E0E010010260165
:103DA0006442370100003100641E0101010132004C
:103DB000642801020102330064320103010334006C
:103DC000643C010401043500644601050105360028
:103DD0006450010601062CD1000000000000000024
:103DE00000F8FF1F000000C0FFFFFF070000F8FF02
:103DF000FFFF3F0000FEFFFFFFFF0080FFFFFFFF10
:103E0000FF03C0FFFFFFFFFF07E0FF0700C0FF0F3A
:103E1000F03F000000F81FF007000000C01FF8038B
:103E2000000000803FF801000000003FFC0000009F
:103E300000007E7C00000000007C7C000000000090
:103E40007C7C00000000007C7C00000000007C7C8A
:103E500000000000007CFC00000000007EF8010073
:103E60000000003FF803000000803FF00700000062
:103E7000C01FF03F000000F81FE0FF0700C0FF0F69
:103E8000C0FFFFFFFFFF0780FFFFFFFFFF0300FEF4
:103E9000FFFFFFFF0000F8FFFFFF3F0000C0FFFF34
:103EA000FF07000000F0FF1F0000000000000000FE
:103EB0000000000000000000000000000000000002
:103EC00000000000000000000000000000000000F2
:103ED00000F0030000000000E0070000000000E028
:103EE000070000000000C00F0000000000801F005D
:103EF00000000000803F0000000000003F000000C4
:103F00000000007E000000000000FC000000000037
:103F100000FC010000000000F807F8FFFFFFFFFFB2
:103F20000FF8FFFFFFFFFF3FF8FFFFFFFFFF7FF8E6
:103F3000FFFFFFFFFF7FF8FFFFFFFFFF7FF8FFFF9F
:103F4000FFFFFF7F000000000000000000000000F5
:103F50000000000000000000000000000000000061
:103F60000000000000000000000000000000000051
:103F70000000000000000000000000000000000041
:103F800000000078000000000000F8010000000FB1
:103F900000F8070000007F00F81F000000FF01F894
:103FA0003F000080FF03F8FF000080FF07F8FF01DB
:103FB0000080FF0FF8FF030000F81FF8FE07000065
:103FC000C03FF8F80F0000803FF8F01F0000003FEE
:103FD000F8E03F0000007EF8C07F0000007CF88021
:103FE000FF0000007CF800FF0100007CF800FE03E9
:103FF00000007CF800FC0700007CF800F01F0000C7
:104000007CF800E03F00007EF800C07F00003EF832
:104010000080FF01003FF80000FF07C03FF80000EC
:10402000FE1FF01FF80000F8FFFF1FF80000F0FF70
:10403000FF0FF80000E0FFFF07F8000080FFFF011E
:10404000F8000000FE7F00F8000000F01F000000F4
:10405000000000000000E0000000000000FC000084
:10406000000C0000FF0000007C0080FF010000FC4D
:1040700001C0FF010000FE07E0FF010000FE0FF09D
:104080007F000000FE0FF00F000000F01FF803009B
:104090000000C03FF801000000003FFC00000000ED
:1040A000003EFC00003800007E7C0000F001007C37
:1040B0007C0000F001007C7C0000F001007C7C00B2
:1040C00000F001007C7C0000F003007CFC0000F8A4
:1040D00003007EF80000F807003FF80100FC0F80A5
:1040E0003FF80300FE3FE01FF00F007FFFFF1FE0DF
:1040F0003FC03FFFFF0FE0FFFF3FFEFF07C0FFFF96
:104100001FFCFF0300FFFF0FF0FF0000FEFF07C0D2
:104110003F0000F8FF0100000000C03F0000000069
:104120000080FF000000000080FF0300000000800E
:10413000FF0F0000000080FF1F0000000080EF7FE5
:1041400000000000808FFF01000000800FFE0700CC
:104150000000800FFC0F000000800FF03F00000007
:10416000800FC0FF000000800F00FF010000800FE3
:1041700000FE070000800F00F81F0000800F00E025
:104180003F0000800F00C0FF0000800F0000FF0311
:1041900000800F0000FC0F00800F0000F01FF8FFF0
:1041A000FFFFFFFF7FF8FFFFFFFFFF7FF8FFFFFF2D
:1041B000FFFF7FF8FFFFFFFFFF7FF8FFFFFFFFFF1D
:1041C0007FF8FFFFFFFFFF7F00800F00000000006F
:1041D000800F0000000000800F0000000000800F32
:1041E0000000000000800F0000000000800F0000B1
:1041F00000000000000000000000E00000000000DF
:1042000000FC003800000000FF00F81F000080FFE5
:1042100000F8FF0700C0FF00F8FFFF03E0FF00F811
:10422000FFFF1FF03F00FCFFFF1FF00700F8FFFF3C
:104230001FF80300E0F7FF1FF80100C00FF81FFC94
:104240000000800F001F7C0000800F001F7C00001A
:10425000001F001F7C0000001F001F7C0000001FCB
:10426000001F7C0000001F001F7C0000001F001FBB
:10427000FC0000801F001FF80100801F001FF803D2
:1042800000C00F001FF00700E00F001FF00F00F844
:104290000F001FE07F00FE07001FC0FFFFFF0300AD
:1042A0001F80FFFFFF01001F00FFFFFF00001F0036
:1042B000FCFF7F00001F00F0FF1F0000000080FFD8
:1042C00001000000000000000000000000F8FF0FE7
:1042D000000000C0FFFFFF030000F8FFFFFF1F000A
:1042E00000FEFFFFFF7F0000FFFFFFFFFF01C0FF99
:1042F000FF3FF0FF03E07F00FF00FE07E00F00FC40
:1043000001F00FF00700F001C01FF80300E0038088
:104310001FF80100C007003FF80000C007003E7C06
:104320000000800F007C7C0000800F007C7C00007F
:10433000800F007C7C0000800F007C7C0000800FE0
:10434000007CFC0000C00F007EFC0000C00F007E5F
:10435000F80100E007003FF80300F007803FF00F8E
:1043600000FC07F03FF07F00FF03FC1FE0FFFFFFB2
:1043700001FC0FC0FFFFFF00FC0780FFFF7F00FC78
:104380000300FEFF3F00FC0000F8FF0F001C0000D0
:10439000C0FF00000000000000000000000000005E
:1043A0000000001F0000000000001F0000000000CF
:1043B000001F0000000000001F0000000000001FA0
:1043C0000000000000001FF801000000001FF87F3F
:1043D000000000001FF8FF070000001FF8FF3F006B
:1043E00000001FF8FFFF0100001FF8FFFF0F000093
:1043F0001F00FFFF3F00001F00C0FFFF00001F0065
:1044000000FCFF07001F0000C0FF1F001F0000008E
:10441000FE3F001F000000F8FF001F000000C0FF6B
:10442000031F00000000FF071F00000000FC1F1F0B
:1044300000000000F03F1F00000000C07F1F0000D0
:10444000000000FF1F0000000000FC1F0000000033
:1044500000F81F0000000000E01F0000000000C086
:104460001F0000000000001F00000000000000000E
:10447000E03F0000000000FCFF0100000000FFFF23
:1044800003C03F0080FFFF07F8FF00C0FFFF0FFCE5
:10449000FF03E0FFFF1FFEFF07F03FE03FFFFF0FBE
:1044A000F00700BFFFFF1FF80300FE3FE03FF801E9
:1044B00000FC0F803FF80000F807003FFC0000F808
:1044C00003007E7C0000F001007C7C0000F0010015
:1044D0007C7C0000F001007C7C0000F001007C7C12
:1044E0000000F001007CFC0000F803007EF80000F2
:1044F000F807003FF80100FC0F803FF80300FE3F83
:10450000E01FF00700BFFFFF1FF03FE03FFFFF0F7E
:10451000E0FFFF1FFEFF07C0FFFF0FFCFF0380FF50
:10452000FF07F8FF0000FFFF03E01F0000FCFF0093
:1045300000000000E03F000000000000000000005C
:104540000000000000FE0700007000E0FF3F0000D8
:104550007E00F8FFFF00807F00FCFFFF03C07F00AC
:10456000FEFFFF07E07F00FFFFFF0FF07F80FF01EE
:10457000FC1FF81FC07F00E01FF803C01F00C03FF2
:10458000F801C00F00003FFC00E00700007F7C0046
:10459000E00700007E7C00E00300007C7C00E0037C
:1045A00000007C7C00E00300007C7C00E003000055
:1045B0007CFC00C00300007CF800C00700003EF84F
:1045C00001C00700003EF003800F00003FF007002D
:1045D0001F00801FE01F007E00E00FC0FF01FC01F4
:1045E000FC0F80FF7FF8FFFF0700FFFFFFFFFF01C9
:1045F00000FCFFFFFFFF0000F0FFFFFF3F00008017
:10460000FFFFFF07000000E0FF7F00000000000048
:104610000000F0FF1F0080FFFFFF03E0FFFFFF0F20
:10462000F80700C03FFC0000007E3E000000F81EBE
:10463000000000F01E000000F01E000000F03E0030
:104640000000F8FC0000007EF80700C03FE0FFFF1C
:10465000FF0F80FFFFFF0300F0FF1F0000000000BE
:10466000000000000000000000000000000000004A
:104670000000003C000000007800000000F0000096
:104680000000E001000000C007000000800FFCFFF8
:10469000FFFF3FFCFFFFFFFFFCFFFFFFFF000000ED
:1046A000000000000000000000000000000000000A
:1046B00000000000000000000000003C0000E001DD
:1046C000FC0100E00FFC0700E01FFC0F00003EBCF7
:1046D0003F00007C3C7E0000F83CF80100F03CF01C
:1046E0000300F03CC00F00F03C801F00F83C007E4F
:1046F000007C3C00FC037E3C00F0FF3F3C00C0FF20
:104700000F3C0000FE01000000000000000000005F
:104710000007008003E00700800FF80700803FFCDF
:104720000100007E7C000000783E000000F01E00CA
:10473000F000F01E00F000F01E00F001F03E00F866
:1047400001787C00FC077EF801BFFF3FF0FF1FFFF0
:104750000FC0FF0FFC0300FF01000000000000007D
:10476000000000000000F800000000F80700000052
:10477000F83F000000F8FF00000078FC0700007818
:10478000E03F00007880FF00007800FC0700780020
:10479000F01F00780080FFFCFFFFFFFFFCFFFFFF22
:1047A000FFFCFFFFFFFF0078000000007800000022
:1047B000007800000000000000000007F80000E0A2
:1047C00007F8FF01F807F8FF3FFC00F0FF3F7C000F
:1047D000E0013E3E00C0033C1E00C0033C1E00C082
:1047E000033C1E00C0033C3E00E0033C7C00F001A3
:1047F0003CF803FC003CF0FF7F003CC0FF3F003C66
:1048000000FE0700000000000000000000000000A3
:10481000F8FF0F0080FFFFFF01E0FFFFFF0FF8032D
:104820007CC01F7C00F0003E3C00E001781E00C010
:1048300003F01E00C003F01E00C003F03E00E003C2
:10484000F07C00F001F8F801FC017EF0FF7F803F72
:10485000C0FF3F801F00FE07800300000000000033
:1048600000000000000000003C000000003C0000D0
:1048700000003CFC0000003CFC3F00003CFCFF034F
:10488000003C00FF3F003C00C0FF003C0000FC0774
:104890003C0000C01F3C0000007E3C000000F83DD2
:1048A000000000C03F000000003F000000003C008E
:1048B00000000000000000000000FF010000E0FF19
:1048C00007FC03F0FF1FFF1FF801BFFF3F7C00FC48
:1048D000077E3E00F801F81E00F000F01E00F00018
:1048E000F01E00F000F03E00F801F87C00FC077EAE
:1048F000F801BFFF3FF0FF1FFF1FE0FF07FC0300B1
:10490000FF01000000000000000000000000800324
:10491000C0FF00F003F8FF0FF803FCFF1FFC007F4F
:10492000803F3E001F007C1E800F00F81E800700A5
:10493000F01E800700F01E800700F03C000F00789A
:10494000F8001E007CF0077C003FE0FFFFFF0F0037
:10495000FFFFFF0300E0FF3F000000000000000039
:10496000F81FFE7F07E003C003C007E0FE7FF81FCB
:10497000000000000000000C00180030FFFFFFFFE7
:10498000000000000000000003180F781BE073C057
:10499000E3C0C3E1837F033E0000000018301E70B7
:1049A00007E003C303C387E7FE7E7C3C0000700082
:1049B000F001B003300E303C30F0FFFFFFFF30005D
:1049C00030000000180F1EFF07F303C603C607C719
:1049D000FEC3F80100000000F80FFE3F076303C6A6
:1049E00003C607E7FE73F8310000000000C000C0F6
:1049F0000FC0FFC0F0C700DE00F800C000000000DC
:104A00007C3CFE7F87E703C303C387E7FE7F7C3CD4
:104A1000000000008C1FCE7FE7E063C063C0C6E0EB
:104A2000FC7FF01F00000000F007080804100410CD
:104A30000808F0070000000004080408FC1F040038
:104A400004000000000000000C0E1410241044109C
:104A500084110C0E00000000180C04100411041145
:104A60008812700C00000000E000200324042408D9
:104A7000FC1F240000000000981F84100411041182
:104A80008810701000000000F0078808041104115D
:104A90008818700000000000001C0010FC100013BB
:104AA000001C001000000000380E44118410841017
:104AB0004411380E0000000000078C084410441018
:104AC0008808F0070000000000000000000000005F
:104AD00080FFFF0100000000FEFFFF7F000000C01C
:104AE000FFFFFFFF030000F8FFFFFFFF0F0000FEC6
:104AF000FFFFFFFF3F0000FFFFFFFFFFFF0080FF02
:104B0000FFFFFFFFFF01C0FF3F0000FCFF03E0FFCE
:104B100001000080FF07F03F00000000FC0FF00FD5
:104B200000000000F00FF80700000000E01FF8038D
:104B300000000000C01FF80100000000801FFC0101
:104B400000000000803FFC0000000000003FFC006F
:104B500000000000003FFC0000000000003FFC00DF
:104B600000000000003FFC0000000000003FFC00CF
:104B700000000000003FFC0100000000803FF80141
:104B800000000000801FF80300000000C01FF807AD
:104B900000000000E01FF00F00000000F00FF03FE9
:104BA00000000000FC0FE0FF01000080FF07C0FFD5
:104BB0003F0000FCFF0380FFFFFFFFFFFF0100FF3E
:104BC000FFFFFFFFFF0000FCFFFFFFFF3F0000F0C3
:104BD000FFFFFFFF0F0000C0FFFFFFFF030000000B
:104BE000FEFFFF7F0000000080FFFF0100000000CB
:104BF00000000000000000000000000000000000B5
:104C000000000000000000000000000000000000A4
:104C10000000000000000000000000000000000094
:104C20000000000000000000000000FE0000000086
:104C3000000000FC01000000000000FC010000007A
:104C4000000000FC03000000000000F8030000006A
:104C5000000000F807000000000000F00F00000056
:104C6000000000F00F000000000000E01F00000046
:104C7000000000C03F000000000000C07F000000F6
:104C800000000080FF00000000000000FF010000A5
:104C900000000000FE03F8FFFFFFFFFFFF07F8FF23
:104CA000FFFFFFFFFF0FF8FFFFFFFFFFFF3FF8FFD2
:104CB000FFFFFFFFFF3FF8FFFFFFFFFFFF3FF8FF92
:104CC000FFFFFFFFFF3FF8FFFFFFFFFFFF3F000079
:104CD00000000000000000000000000000000000D4
:104CE00000000000000000000000000000000000C4
:104CF00000000000000000000000000000000000B4
:104D000000000000000000000000000000000000A3
:104D10000000000000000000000000000000000093
:104D2000000000000000000000000000000078000B
:104D3000000000000000F803000000E00000F80F91
:104D4000000000E00F00F81F000000E03F00F87FC7
:104D5000000000F0FF00F8FF000000F0FF01F8FF86
:104D6000010000F0FF03F8FF070000F0FF07F8FF65
:104D70000F000000FF07F8FF1F000000F80FF8FB0E
:104D80003F000000F00FF8F37F000000E01FF8C3C1
:104D9000FF000000C01FF883FF000000801FF80321
:104DA000FF010000803FF803FE030000003FF8030E
:104DB000FC070000003FF803F80F0000003FF80375
:104DC000F01F0000003FF803E03F0000003FF80341
:104DD000E07F0000003FF803C0FF0000003FF80341
:104DE00080FF0100803FF80300FF0300803FF803CD
:104DF00000FE0700C01FF80300FC1F00C01FF803DF
:104E000000F83F00E01FF80300F0FF00F80FF80380
:104E100000C0FF07FE0FF8030080FFFFFF07F80345
:104E20000000FFFFFF03F8030000FEFFFF01F8038F
:104E30000000F8FFFF00F8030000F0FF7F00F80318
:104E40000000C0FF1F00F803000000FE0300000088
:104E500000000000000000000000000000000080D2
:104E600003000000000000F003000000030000FC4D
:104E7000030000001F0000FE070000007F0080FF0D
:104E800007000080FF00C0FF07000080FF01C0FF97
:104E900007000080FF03E0FF01000080FF07F03FF4
:104EA00000000000FE0FF00F00000000F00FF807F8
:104EB00000000000E01FF80300000000C01FF80120
:104EC00000000000801FFC0100800700803FFC0004
:104ED00000003F00003FFC0000003F00003FFC00DE
:104EE00000003F00003FFC0000003F00003FFC00CE
:104EF00000003F00003FFC0000007F00003FFC007E
:104F000000007F00003FFC0100807F00803FF8012F
:104F10000080FF00C01FF8030080FF01C01FF803DE
:104F200000C0FF03F00FF00700E0FF0FF80FF00FD5
:104F300000F0FFFFFF07E03F00F8F3FFFF03E0FF93
:104F400001FFE3FFFF03C0FFFFFFC1FFFF0180FF81
:104F5000FFFF81FF7F0000FFFFFF00FE3F0000FE1C
:104F6000FF7F00F8070000F8FF1F0000000000E0CE
:104F7000FF0F000000000000FF0100000000000023
:104F80000000000000000000FE0300000000000020
:104F9000FE0F000000000000FE1F000000000000E7
:104FA000FE7F000000000000FEFF01000000000086
:104FB000FEFF030000000000FEFE0F0000000000E6
:104FC000FEFC1F0000000000FEF07F00000000005B
:104FD000FEC0FF0000000000FE80FF030000000094
:104FE000FE00FE0700000000FE00FC1F00000000A5
:104FF000FE00F03F00000000FE00E0FF00000000A7
:10500000FE0080FF03000000FE0000FF070000001C
:10501000FE0000FC1F000000FE0000F83F00000042
:10502000FE0000E0FF000000FE000080FF01000025
:10503000FE000000FF070000FE000000FC0FF8FF6C
:10504000FFFFFFFFFF3FF8FFFFFFFFFFFF3FF8FFFE
:10505000FFFFFFFFFF3FF8FFFFFFFFFFFF3FF8FFEE
:10506000FFFFFFFFFF3FF8FFFFFFFFFFFF3FF8FFDE
:10507000FFFFFFFFFF3F0000FE00000000000000F8
:10508000FE00000000000000FE0000000000000024
:10509000FE00000000000000FE0000000000000014
:1050A000FE00000000000000FE0000000000000004
:1050B000FE00000000000000000000000000008072
:1050C00003000000000000F003C00100000000FC2D
:1050D00003C07F00000000FF07C0FF1F000080FF2B
:1050E00007C0FFFF0700C0FF07C0FFFFFF01E0FF91
:1050F00007E0FFFFFF0FE0FF01E0FFFFFF0FF03FC2
:1051000000C0FFFFFF0FF00F0080FFFFFF0FF80749
:1051100000007FE0FF0FF8030000FE00F80FF80129
:105120000000FC00E00FFC010000FC00E00FFC00B0
:105130000000F800E00FFC000000F801E00FFC00A8
:105140000000F801E00FFC000000F801E00FFC0097
:105150000000F801E00FFC000000F801E00FFC0087
:105160000000F801E00FFC010000FC01E00FF80175
:105170000000FC01E00FF8030000FE01E00FF8075B
:105180000000FE00E00FF00F0000FF00E00FF01F36
:1051900000807F00E00FE07F00E07F00E00FC0FFB5
:1051A00003FC3F00E00FC0FFFFFF1F00E00F80FF88
:1051B000FFFF1F00E00F00FEFFFF0F00E00F00FCED
:1051C000FFFF0300E00F00F0FFFF0100E00F00C051
:1051D000FF7F000000000000FE0F00000000000044
:1051E00000000000000000000000000000000000BF
:1051F000C0FFFF0000000000FEFFFF3F000000C0F6
:10520000FFFFFFFF010000F8FFFFFFFF070000FCAA
:10521000FFFFFFFF1F0000FFFFFFFFFF7F0080FF7A
:10522000FFFF03FEFF00C0FF03FC0FC0FF01E07F94
:1052300000E01F00FF03E01F00801F00FC07F00FCD
:1052400000003F00F007F00700007E00E00FF803C9
:1052500000007E00C01FF8010000FC00801FF80164
:105260000000FC00801FFC000000F800803FFC00F4
:105270000000F801003FFC000000F801003FFC00C6
:105280000000F801003FFC000000F801003FFC00B6
:105290000000F801003FFC010000FC01003FFC01A0
:1052A0000000FC01803FF8030000FC00803FF80391
:1052B0000000FE00C01FF8070000FF00E01FF01F05
:1052C00000807F00F81FF03F00E07F00FE0FE0FF4E
:1052D00001FC3F80FF07C0FFFFFF1F80FF0780FF2B
:1052E000FFFF0F80FF0300FFFFFF0780FF0100FEAD
:1052F000FFFF03007F0000F8FFFF01003F0000E018
:10530000FF3F000007000000FE0700000000000053
:10531000000000000000000000000000000000008D
:1053200000000000E00F000000000000E00F00009F
:1053300000000000E00F000000000000E00F00008F
:1053400000000000E00F000000000000E00F00007F
:1053500000000000E00F000000000000E00FF80176
:1053600000000000E00FF83F00000000E00FF8FF31
:1053700003000000E00FF8FF3F000000E00FF8FF1F
:10538000FF010000E00FF8FFFF070000E00FF8FF4B
:10539000FF3F0000E00F00FFFFFF0000E00F00C034
:1053A000FFFF0300E00F0000FCFF0F00E00F000014
:1053B000C0FF3F00E00F000000FEFF00E00F000014
:1053C00000F0FF03E00F000000C0FF07E00F000047
:1053D0000000FE1FE00F00000000F83FE00F00009B
:1053E0000000E07FE00F0000000080FFE10F000000
:1053F000000000FEE30F0000000000F8E70F0000CF
:10540000000000F0EF0F0000000000C0FF0F0000E0
:1054100000000080FF0F000000000000FE0F0000F1
:1054200000000000FC0F000000000000F00F000072
:1054300000000000E00F000000000000C00F0000AE
:1054400000000000000000000000000000000080DC
:10545000FF010000000000F0FF0F0000000000FC52
:10546000FF3F00F8070000FEFF7F00FE3F0000FF47
:10547000FFFF80FFFF0080FFFFFFC1FFFF01C0FFB4
:10548000FFFFE3FFFF03E0FF00FFE3FFFF07F03F45
:1054900000FCF7FFFF07F00F00F0F70FFC0FF80715
:1054A00000E0FF03F00FF80300C0FF01E01FF80366
:1054B0000080FF00C01FFC0100807F00803FFC01D6
:1054C00000807F00803FFC0000003F00003FFC00A8
:1054D00000003F00003FFC0000003F00003FFC00D8
:1054E00000003F00003FFC0000003F00003FFC00C8
:1054F00000003F00003FFC0100807F00803FFC0176
:1055000000807F00801FF80100C0FF00C01FF8036B
:1055100000C0FF01E01FF80700E0FF03F00FF00FED
:1055200000F0FF0FFC0FF01F00FCF3FFFF07E0FF90
:1055300000FFE3FFFF07C0FFFFFFE1FFFF0380FF66
:10554000FFFFC1FFFF0100FFFFFF80FF7F0000FEA4
:10555000FF7F00FE3F0000FCFF1F00F8070000F087
:10556000FF0F000000000080FF01000000000000AD
:10557000000000000000000000000000000000002B
:105580000000E0FF000000E00000FCFF070000FC5E
:105590000080FFFF1F0000FF00C0FFFF7F0080FFB3
:1055A00001E0FFFFFF00C0FF01F0FFFFFF01E0FF90
:1055B00001F8FFFFFF03F0FF01FC3FC0FF07F07F92
:1055C00000FE0700FE0FF80F00FE0100F80FF807BD
:1055D00000FF0000F01FF803007F0000E01FFC0147
:1055E000007F0000C01FFC01803F0000803FFC00E6
:1055F000803F0000803FFC00801F0000003FFC0057
:10560000801F0000003FFC00801F0000003FFC00E6
:10561000801F0000003FFC00801F0000003FFC01D5
:10562000001F0000003FF801003F0000801FF8034A
:10563000003F0000801FF803003E0000C01FF0077D
:10564000007E0000C00FE00F00FC0000E00FE03F14
:1056500000F80100F807C0FF00F00700FC0780FF1A
:1056600007E03F80FF0300FFFFC1FFFFFF0100FED7
:10567000FFFFFFFFFF0000F8FFFFFFFF3F0000E01C
:10568000FFFFFFFF1F000080FFFFFFFF070000007C
:10569000FCFFFFFF0000000000FFFF07000000000C
:1056A00000000000000000000000000000000000FA
:1056B0000000000000000000183C3C3C18181800D6
:1056C0001818000000000066666624000000000054
:1056D00000000000000000000036367F3636367FBE
:1056E00036360000000018183E6343033E606163D5
:1056F0003E181800000000000000436330180C063C
:1057000063610000000000001C36361C6E3B333322
:10571000336E00000000000C0C0C060000000000BE
:10572000000000000000000030180C0C0C0C0C0CE9
:1057300018300000000000000C18303030303030DD
:10574000180C000000000000000000663CFF3C66F2
:10575000000000000000000000000018187E18186B
:105760000000000000000000000000000000001821
:1057700018180C000000000000000000007F00006E
:105780000000000000000000000000000000000019
:1057900018180000000000000000406030180C06DF
:1057A00003010000000000003E6363736B6B6763DE
:1057B000633E000000000000181C1E18181818187E
:1057C000187E0000000000003E636030180C0603E5
:1057D000637F0000000000003E6360603C6060602A
:1057E000633E00000000000030383C36337F30302C
:1057F00030780000000000007F0303033F7060600A
:10580000633E0000000000001C0603033F63636367
:10581000633E0000000000007F63606030180C0CE5
:105820000C0C0000000000003E6363633E63636392
:10583000633E0000000000003E6363637E606060C2
:10584000301E0000000000000000181800000018C2
:1058500018000000000000000000181800000018E8
:10586000180C000000000000006030180C060C1836
:105870003060000000000000000000007F00007F9A
:10588000000000000000000000060C183060301816
:105890000C060000000000003E636330181818007A
:1058A0001818000000000000003E63637B7B7B3B18
:1058B000033E000000000000081C3663637F636342
:1058C00063630000000000003F6666663E66666631
:1058D000663F0000000000003C66430303030343EF
:1058E000663C0000000000001F366666666666665D
:1058F000361F0000000000007F6646161E16064692
:10590000667F0000000000007F6646161E16060631
:10591000060F0000000000003C664303037B636346
:10592000665C000000000000636363637F63636381
:1059300063630000000000003C18181818181818BD
:10594000183C000000000000783030303030333335
:10595000331E000000000000676636361E1E3666E5
:1059600066670000000000000F06060606060646F1
:10597000667F00000000000063777F7F6B636363D6
:10598000636300000000000063676F7F7B736363E5
:1059900063630000000000001C366363636363639D
:1059A000361C0000000000003F6666663E060606E4
:1059B000060F0000000000003E6363636363636BD7
:1059C0007B3E3070000000003F6666663E366666CD
:1059D00066670000000000003E6363061C306063E1
:1059E000633E0000000000007E7E5A181818181848
:1059F000183C00000000000063636363636363633B
:105A0000633E00000000000063636363636363360A
:105A10001C0800000000000063636363636B6B7F1E
:105A20003636000000000000636336361C1C363634
:105A30006363000000000000666666663C18181884
:105A4000183C0000000000007F636130180C064322
:105A5000637F0000000000003C0C0C0C0C0C0C0CD4
:105A60000C3C000000000000000103070E1C387011
:105A700060400000000000003C30303030303030FA
:105A8000303C00000000081C3663000000000000ED
:105A90000000000000000000000000000000000006
:105AA000000000FF00000C0C1800000000000000C7
:105AB00000000000000000000000001E303E3333F4
:105AC000336E0000000000000706061E366666669C
:105AD000663B0000000000000000003E630303037B
