:020000040800F2
:10000000680C002001010008FD29000861110008AA
:10001000C5270008B50300088D3300080000000064
:10002000000000000000000000000000A72C0008F5
:100030009308000800000000B12A0008DD2E000827
:100040001B0100081B0100081B0100081B01000820
:100050001B0100081B0100081B0100081B01000810
:100060001B0100081B0100081B0100081B01000800
:100070001B0100081B0100081B0100081B010008F0
:100080001B0100081B0100081B0100081B010008E0
:100090001B0100081B0100081B0100081B010008D0
:1000A0001B0100081B0100081B0100081B010008C0
:1000B000412F00081B0100081B0100081B0100085C
:1000C0001B0100081B0100081B0100081B010008A0
:1000D0001B0100081B0100081B0100081B01000890
:1000E0001B0100081B0100081B010008DFF80CD0F1
:1000F00000F03CF800480047853B0008680C0020F1
:100100000648804706480047FEE7FEE7FEE7FEE7B1
:10011000FEE7FEE7FEE7FEE7FEE7FEE7E12E00086A
:10012000ED00000840EA01039B0703D009E008C97D
:10013000121F08C0042AFAD203E011F8013B00F8AC
:10014000013B521EF9D27047D2B201E000F8012BF8
:10015000491EFBD270470022F6E710B513460A4647
:1001600004461946FFF7F0FF204610BD064C074D28
:1001700006E0E06840F0010394E807009847103477
:10018000AC42F6D3FFF7B6FFE4B0000804B10008B4
:1001900070B58C1810F8015B15F0070301D110F849
:1001A000013B2A1106D110F8012B03E010F8016B76
:1001B00001F8016B5B1EF9D12B0705D40023521EF9
:1001C0000DD401F8013BFAE710F8013BCB1A921C61
:1001D00003E013F8015B01F8015B521EF9D5A1425F
:1001E000D8D3002070BD21B1826842F00102826044
:1001F00003E0826822F001028260704721B18268C8
:1002000042F48072826003E0826822F4807282602D
:100210007047014600208A6802F004020AB10120FA
:1002200000E000207047014600208A6802F00802C2
:100230000AB1012000E000207047000030B50246FE
:100240000020002350680F4C20400D790C6844EAD0
:1002500005242043506090680B4C2040D1E90254A3
:100260002C434D7944EA450420439060D06A20F441
:1002700070000C7C641EE4B2234340EA0350D06259
:1002800030BD0000FFFEF0FFFDF7F1FFF0B50446C2
:100290000D4600200021092D11DDE068A5F10A06B8
:1002A00006EB4607072606FA07F18843A5F10A067A
:1002B00006EB460603FA06F10843E0600CE020690D
:1002C00005EB4507072606FA07F1884305EB4506C7
:1002D00003FA06F108432061072A0FDA606B561E05
:1002E00006EB86071F2606FA07F18843561E06EB23
:1002F000860605FA06F10843606322E00D2A0FDA4C
:10030000206BD61F06EB86071F2606FA07F18843E7
:10031000D61F06EB860605FA06F10843206310E0B7
:10032000E06AA2F10D0606EB86071F2606FA07F122
:100330008843A2F10D0606EB860605FA06F108438E
:10034000E062F0BD816841F008018160704721B131
:10035000826842F4A002826003E0826822F4A00274
:1003600082607047816841F00401816070470146F6
:10037000D1F80821885CD1F80821521CC1F8082165
:10038000D1F80821B2F5827F02D10022C1F80821FC
:100390007047D0F804218154D0F80421521CC0F8D1
:1003A0000421D0F80421B2F5827F02D10022C0F8E6
:1003B0000421704700BFFEE710B5054802F02CFC91
:1003C00002F00AFAC821052003F00EFC10BD00005F
:1003D000C402002030B543780021012204E0845C8F
:1003E0000C44A1B2541CA2B29A42F8DB0C12C454C1
:1003F0005C1C015530BD30B502460024012303E0EA
:10040000D05C204484B25B1C8B42F9DB481C105C3E
:10041000555C00EB0520A04201D1012030BD002039
:10042000FCE700002DE9F05F06460F4690461D46AA
:10043000B146BB4606F10F00C1B207F117033A46B9
:10044000304601F0D1FBA8F1200000F0FF084FF08A
:10045000000A54E0002421E008EB48002A4901EB9F
:10046000001010F81A000121A140084058B11DB930
:100470000A9801F0C7FB0BE01FFA8BF148460A9A75
:1004800001F0C6FB04E01DB946F24F2001F0BAFBB3
:1004900009F1010000F0FF09601CC4B2082CDBDB8D
:1004A000002423E008EB4800174901EB00114FEA54
:1004B0004A00401C085C0121A140084058B11DB908
:1004C0000A9801F09FFB0BE01FFA8BF148460A9A4D
:1004D00001F09EFB04E01DB946F24F2001F092FBB3
:1004E00009F1010000F0FF09601CC4B2082CD9DB3F
:1004F0000BF1010BB1460AF1010000F0FF0ABAF15D
:10050000180FA7DBBDE8F09FC65E00082DE9F05F7D
:1005100082468B4616461D465746D9460AF11700B5
:10052000C1B20BF127035A46504601F05DFBA6F11C
:100530002000C6B24FF0000877E0002420E0C6EBB0
:1005400006103C4901EBC00008EB4801405C01216A
:10055000A140084058B11DB90A9801F053FB0BE0C7
:100560001FFA89F138460A9A01F052FB04E01DB9DE
:1005700046F24F2001F046FB781CC7B2601CC4B2A3
:10058000082CDCDB002421E0C6EB0610294901EB36
:10059000C00108EB4800401C085C0121A140084054
:1005A00058B11DB90A9801F02DFB0BE01FFA89F133
:1005B00038460A9A01F02CFB04E01DB946F24F20A0
:1005C00001F020FB781CC7B2601CC4B2082CDBDB36
:1005D000002421E0C6EB0610164901EBC00108EB30
:1005E0004800801C085C0121A140084058B11DB999
:1005F0000A9801F007FB0BE01FFA89F138460A9AC6
:1006000001F006FB04E01DB946F24F2001F0FAFAB2
:10061000781CC7B2601CC4B2082CDBDB09F10109ED
:10062000574608F1010000F0FF08B8F1280F84DBFD
:10063000BDE8F09FC67000082DE9F05F04460D4646
:1006400016461F46A346AA46E01DC1B205F10F0398
:100650002A46204601F0C8FAA6F12000C6B24FF0A3
:10066000000830E04FF0000921E0194800EB0610C7
:1006700010F80800012101FA09F1084050B11FB932
:100680000A9801F0BFFA0AE0514658460A9A01F06A
:10069000BFFA04E01FB946F24F2001F0B3FA0BF1A4
:1006A000010000F0FF0B09F1010000F0FF09B9F1B2
:1006B000080FDADB0AF101001FFA80FAA34608F1FD
:1006C000010000F0FF08B8F1100FCBDBBDE8F09F90
:1006D000C658000821B1026842F00102026004E03D
:1006E00002684FF6FE731A400260704701684FF6C9
:1006F000FE72114001600021016041608160C160B3
:100700004B49884208D14A490839496841F00F01EC
:10071000474A083A51608AE045491431884208D175
:1007200043490839496841F0F001414A083A5160AB
:100730007DE03F492831884208D13D490839496860
:1007400041F470613A4A083A516070E038493C31EE
:10075000884208D136490839496841F47041344A21
:10076000083A516063E032495031884208D130493B
:100770000839496841F470212D4A083A516056E021
:100780002B496431884208D129490839496841F424
:100790007001274A083A516049E02549783188427A
:1007A00008D123490839496841F07061204A083A64
:1007B00051603CE01F49884206D1011F096841F0A1
:1007C0000F01021F116032E01A491431884208D12A
:1007D0001849091F096841F0F001164A121F1160FB
:1007E00025E014492831884208D11249091F0968B7
:1007F00041F470610F4A121F116018E00D493C313D
:10080000884208D10B49091F096841F47041094A1F
:10081000121F11600BE007495031884207D105498A
:10082000091F096841F47021024A121F11607047C4
:1008300008000240080402400146486880B2704740
:1008400010B50022026847F6F0739A430C6A8B6871
:1008500023430C6923434C6923438C692343CC69AC
:1008600023434C6A23438C6A23431A430260CB68B8
:1008700043600B6883604B68C36010BD036823F05E
:1008800001030360C1604260036843F00103036039
:100890007047704710B50446204602F0DDFD10BDDC
:1008A00070B5044625460C2D63D2DFE805F0060F2F
:1008B000181D222B343D3E4B585D0121042002F0CF
:1008C000B1FA0121052002F0ADFA53E00121042024
:1008D00002F0A8FA0021052002F0A4FA4AE0012162
:1008E000062002F09FFA45E00021062002F09AFA65
:1008F00040E00121092002F095FA01210A2002F0CE
:1009000091FA37E00121092002F08CFA00210A2037
:1009100002F088FA2EE00021092002F083FA00217B
:100920000A2002F07FFA25E024E00121072002F0EE
:1009300079FA4FF4827002F067FD0021072002F07F
:1009400071FA17E00121082002F06CFA4FF482706E
:1009500002F05AFD0021082002F064FA0AE00021AA
:100960000B2002F05FFA05E001210B2002F05AFA99
:1009700000E000BF00BF70BD10B5FE480078012840
:1009800004D101F073FA0220FA490870F94800789E
:10099000022805D1F848007810B10320F549087005
:1009A000F4480078032818D10020F4490870F4496D
:1009B00008600B20FFF774FF022001F057FA262091
:1009C00001F054FA0420FFF76BFF0020FFF768FFE7
:1009D0000420E849087000F079FFE6480078042810
:1009E00026D1E8480078A8B100F068FF032001F0A4
:1009F0003DFA0120FFF754FF4FF47A7002F004FD36
:100A00000220FFF74DFF0720DA4908700E2001F0A1
:100A10002DFA0DE0DC48007850B100F04FFF0420C3
:100A200001F024FA1320D3490870002001F01EFAC7
:100A3000D0480078072824D1D4488088B0F5D96FF1
:100A400011DDD2488088B0F5FA6F0CDC0F2001F080
:100A50000DFA0820FFF724FF0820C649087005207A
:100A600001F004FA0DE0C9488088B0F5D96F08DCC0
:100A7000102001F0FBF91320BE490870002001F09E
:100A8000F5F9BC48007808283CD1C0480088B0F58A
:100A90001B7F1ADBBD48008840F24571884214DC98
:100AA000BA484088B0F51B7F0FDBB84840888842C1
:100AB0000BDC062001F0DAF90520AE4908700820A9
:100AC00001F0D4F903F068F91CE0B0480088B0F5F3
:100AD0001B7F0EDBAD48008840F24571884208DC80
:100AE000AA484088B0F51B7F03DBA84840888842AD
:100AF00008DD072001F0BAF913209E490870002094
:100B000001F0B4F99B48007805282FD1A04800785F
:100B100003280CD100209E490870132095490870C5
:100B2000002001F0A3F90A2001F0A0F91EE0012144
:100B300040F6B83000F0D6FF38B103F02DF99448F4
:100B40000078401C9249087010E09248007868B123
:100B5000002090490870092001F088F90620854995
:100B6000087002F0AFF80B2001F080F9814800789E
:100B7000062837D18848007803280CD10020864900
:100B8000087013207B4908700D2001F06FF90020D8
:100B900001F06CF926E002214FF47A6000F0A2FF28
:100BA00038B102F08FF87C480078401C7A49087010
:100BB00018E07A480078A8B10020784908700C2025
:100BC00001F054F90A206B490870112001F04EF928
:100BD000322240F6B831012001F0B2FE70480068C0
:100BE00067490860634800780A2846D1042141F229
:100BF000883000F077FF78B1002240F6B83101204C
:100C000001F09EFE13205B490870002001F02EF9D0
:100C1000132001F02BF930E06249087803F0F4F872
:100C200061490860A02003F0EFF8604908605C4863
:100C30000068B0F5700F20D25A49087803F0E4F844
:100C400057490968884218D8A02003F0DDF85449B4
:100C50000968884211D3122001F008F9002240F6F9
:100C6000B831012001F06CFE0B20424908702E22A1
:100C700040F6B831012001F063FE3E4800780B28B1
:100C800056D1052141F2883000F02CFF78B10022C6
:100C900040F6B831012001F053FE132035490870A9
:100CA000002001F0E3F8162001F0E0F840E04048B1
:100CB0000078B8B9802003F0A7F83949096888425C
:100CC00010D801203A490870002240F6B83101F0EE
:100CD00037FE142001F0CAF8142240F6B831012082
:100CE00001F02EFEB02003F08FF82D4909688842EC
:100CF0001ED8002240F6B831012001F021FE4FF449
:100D0000487002F081FB0A20FFF7CAFD002404E0CE
:100D10004FF47A7002F078FB641C052CF8DB262077
:100D200001F0A4F80120154908700C201149087041
:100D3000104800780C284CD112480078D0B300F04D
:100D4000BDFD152001F092F8172001F08FF803F097
:100D50000DF84FF47A7002F057FB262001F086F868
:100D60000D20044908700A20FFF79AFD0420FFF7C0
:100D700097FD2EE064000020950000207000002008
:100D8000380000209800002092000020240000205D
:100D900044000020650000204C0000206600002078
:100DA00030000020443E0008880000208C00002015
:100DB00071000020FFE78248007850B100F07EFD0E
:100DC000162001F053F813207E490870002001F02E
:100DD0004DF87C4800780D282DD17B480078E0B193
:100DE00000F06CFD182001F041F80520FFF758FDD8
:100DF00002F0BCFF0E20734908701A2001F036F88B
:100E0000002404E04FF47A7002F0FEFA641C032C14
:100E1000F8DB262001F02AF80DE06948007850B18F
:100E200000F04CFD192001F021F8132065490870ED
:100E3000002001F01BF8634800780E282DD162488D
:100E40000078E0B100F03AFD1B2001F00FF8062019
:100E5000FFF726FD02F08AFF0F205A4908701D2077
:100E600001F004F8002404E04FF47A7002F0CCFAA8
:100E7000641C052CF8DB262000F0F8FF0DE050483C
:100E8000007850B100F01AFD1C2000F0EFFF132095
:100E90004C490870002000F0E9FF4A4800780F280C
:100EA00024D14948007898B100F008FD1E2000F0D8
:100EB000DDFF0420FFF7F4FC202000F0D7FF02F054
:100EC00091FF262000F0D2FF10203E4908700DE06F
:100ED0003B48007850B100F0F1FC1F2000F0C6FF45
:100EE000132038490870002000F0C0FF3548007812
:100EF000102821D13448007880B100F0DFFC212097
:100F000000F0B4FF02F032FF11202E4908702320B8
:100F100000F0ACFF262000F0A9FF0DE02848007883
:100F200050B100F0CBFC222000F0A0FF1320254997
:100F30000870002000F09AFF22480078112822D182
:100F40002148007870B100F0B9FC242000F08EFF39
:100F500012201C490870272000F088FF0120FFF7AD
:100F60009FFC10E01648007868B100F0A7FC25202F
:100F700000F07CFF132013490870002000F076FF7A
:100F80000120FFF78DFC0F480078132803D00D488F
:100F9000007812280FD10D48007860B10A20FFF7C1
:100FA0007FFC02F01FFF00F089FC02200549087059
:100FB000012000F05BFF0A21012002F015FE10BDA8
:100FC000920000206400002098000020950000207E
:100FD0002DE9F041024600250026002000230024D0
:100FE000002791F803C00CF00F0591F803C00CF036
:100FF000100CBCF1000F03D091F802C04CEA0505BB
:1010000091F800C0BCF1000F31D0146800202BE033
:101010004FF0010C0CFA00F3B1F800C00CEA030623
:101020009E4220D183004FF00F0C0CFA03F7BC4313
:1010300005FA03FC4CEA040491F803C0BCF1280F44
:1010400006D14FF0010C0CFA00FCC2F814C00AE003
:1010500091F803C0BCF1480F05D14FF0010C0CFA18
:1010600000FCC2F810C0401C0828D1D31460B1F8AD
:1010700000C0BCF1FF0F34DD546800202EE000F109
:10108000080C4FF0010808FA0CF3B1F800C00CEAA4
:1010900003069E4221D183004FF00F0C0CFA03F798
:1010A000BC4305FA03FC4CEA040491F803C0BCF10C
:1010B000280F05D100F1080C08FA0CF8C2F81480CA
:1010C00091F803C0BCF1480F07D100F1080C4FF0B4
:1010D000010808FA0CF8C2F81080401C0828CED38A
:1010E0005460BDE8F0810246002093680B400BB1CC
:1010F000012000E0002070474161704701617047A6
:10110000014601F582720CCA9A4204DB01F5827233
:101110000CCAD01A06E0D1F8042102F58272D1F887
:101120000831D01A7047000010B50248FFF784FB61
:1011300010BD00006C00024002791206437902EBF8
:101140000342837902EB0322C3791A44024B1A60EB
:101150000122024B1A7070477400002067000020C3
:1011600000BFFEE710B500244FF4807012490860FC
:101170000520FFF78FFB4FF400700F490860052032
:10118000FFF788FB00F040F81420FFF783FB0A48C4
:10119000083800680020041200F048F80520FFF726
:1011A00079FB4FF400700449091D08601920FFF70E
:1011B00071FB204610BD0000100C014070B50024EA
:1011C00000F022F8002518E04FF400700D49086087
:1011D0000520FFF75FFB6006040E0A480838006828
:1011E000C0F3002004434FF400700649091D086055
:1011F0000520FFF74FFB681CC5B2082DE4DB204635
:1012000070BD0000100C014008B54FF48070ADF8BF
:10121000000004208DF8030001208DF802006946CB
:101220000148FFF7D5FE08BD000C014008B54FF49A
:101230008070ADF8000014208DF8030001208DF8B7
:10124000020069460148FFF7C3FE08BD000C0140DB
:1012500010B5FFF7EBFF4FF48070084908604000BD
:10126000091F08600520FFF715FB4FF400700349C4
:1012700008600520FFF70EFB10BD0000140C0140B4
:1012800070B50446002522E004F0800020B14FF440
:1012900080701049086004E04FF480700D49091D0A
:1012A00008606006040E0520FFF7F4FA4FF40070A2
:1012B000084908600520FFF7EDFA4FF40070054972
:1012C000091D08600520FFF7E5FA681CC5B2082D66
:1012D000DADB70BD100C014010B5FFF7A7FF4FF42B
:1012E000807008490860400008600520FFF7D2FAC6
:1012F0004FF400700349091D08600520FFF7CAFA82
:1013000010BD0000100C014010B5FFF78FFF4FF427
:1013100080700A490860400008600520FFF7BAFAAB
:101320004FF480700549091D08600520FFF7B2FAE7
:101330004FF400700149091D086010BD100C0140F8
:1013400010B54FF48070084908604000091F08601C
:101350000520FFF79FFA4FF480700349091F0860CA
:101360000520FFF797FA10BD140C014008B50121C4
:10137000082001F0CBFB4FF48070ADF80000142082
:101380008DF8030001208DF8020069460548FFF73B
:101390001FFE4FF40070ADF8000069460148FFF7EA
:1013A00017FE08BD000C014000B591B04FF480401D
:1013B00001F080FB0121084601F088FB01214FF478
:1013C000017001F0A3FB0120ADF8400000208DF872
:1013D000430010A94048FFF7FBFD0220ADF8400094
:1013E00010A93D48FFF7F4FD8020ADF8400010A99A
:1013F0003948FFF7EDFD3948FFF778F93848009094
:1014000038480190002002900320039000200490AF
:1014100080200590400006908000079020200890D2
:101420000002099000200A9069462C48FFF708FA4C
:1014300001212A48FFF74EF900200B9001208DF87A
:1014400030008DF831004FF460200D9000200E9098
:1014500003208DF83C000BA921484C38FEF7EEFE26
:101460000523012200211E484C38FEF70FFF0523FB
:10147000022201211A484C38FEF708FF05230322F7
:10148000072117484C38FEF701FF012114484C385A
:10149000FEF7B4FE012112484C38FEF7A4FE1048B6
:1014A0004C38FEF74FFF00BF0D484C38FEF7BBFE2F
:1014B0000028F9D10A484C38FEF754FF00BF08480D
:1014C0004C38FEF7A6FE0028F9D1012104484C381B
:1014D000FEF73DFF11B000BD0008014008000240CA
:1014E0004C2401402400002008B50220ADF8000083
:1014F00003208DF8020010208DF803006946024891
:10150000FFF766FD08BD0000000C014008B5802013
:10151000ADF8000003208DF8020010208DF80300C4
:1015200069460248FFF754FD08BD0000000C014069
:1015300008B54FF48070ADF8000003208DF802006C
:1015400010208DF8030069461048FFF741FD4FF465
:101550000070ADF8000069460C48FFF739FD4FF404
:101560000040ADF8000069460948FFF731FD4FF42F
:1015700000410748FFF7C0FD642001F045FF4FF42C
:1015800000410348FFF7BAFD08BD0000000C014010
:101590000008014008B54FF48070ADF8000003204A
:1015A0008DF8020010208DF8030069460948FFF706
:1015B0000FFD4FF40070ADF8000069460548FFF7D5
:1015C00007FD4FF48060ADF8000069460148FFF761
:1015D000FFFC08BD0010014008B54FF48060ADF875
:1015E000000003208DF8020010208DF803006946EA
:1015F0004E48FFF7EDFC4FF40060ADF8000069467F
:101600004A48FFF7E5FC4FF400614848FFF776FDD4
:101610004FF48050ADF8000069464448FFF7D8FC0D
:101620004FF480514148FFF769FD4FF40050ADF889
:10163000000069463D48FFF7CBFC4FF400513B48A2
:10164000FFF75CFD4FF48040ADF800006946374875
:10165000FFF7BEFC4FF480413448FFF74FFD4FF4D5
:101660000040ADF8000069463048FFF7B1FC4FF488
:1016700000412E48FFF742FD0120ADF80000694609
:101680002B48FFF7A5FC01212948FFF737FD022071
:10169000ADF8000069462648FFF79AFC022124486D
:1016A000FFF72CFD0420ADF8000069462048FFF745
:1016B0008FFC04211E48FFF721FD0820ADF8000033
:1016C00069461B48FFF784FC08211948FFF716FDFF
:1016D0001020ADF8000069461548FFF779FC10218D
:1016E0001348FFF70BFD2020ADF8000069461048B5
:1016F000FFF76EFC20210E48FFF700FD4020ADF8FB
:10170000000069460A48FFF763FC40210848FFF7DC
:10171000F5FC8020ADF8000069460548FFF758FC4D
:1017200080210348FFF7EAFC08BD0000000C0140DF
:101730000010014008B50120ADF8000003208DF82D
:10174000020010208DF8030069460248FFF740FCB4
:1017500008BD0000000C014008B54FF48050ADF802
:10176000000003208DF8020010208DF80300694668
:101770000148FFF72DFC08BD0010014010B501F035
:1017800023F901F0A9F810BD08B54020ADF800001C
:1017900003208DF8020048208DF8030069460248B6
:1017A000FFF716FC08BD0000000801400021C0F84A
:1017B0000811C0F804114FF48271C0F80C11002117
:1017C000C0F810117047000008B52020ADF80000E7
:1017D00003208DF8020048208DF803006946024876
:1017E000FFF7F6FB08BD00000008014008B54FF404
:1017F0000060ADF8000003208DF8020010208DF885
:10180000030069460148FFF7E3FB08BD00100140F3
:1018100008B51020ADF8000003208DF80200482024
:101820008DF8030069460248FFF7D2FB08BD0000AF
:101830000008014010B5F8220649074801F091FE62
:101840004FF48271054801F085FC0548FFF7AEFFB3
:1018500010BD0000E8040020DC040020D8030020B4
:10186000C402002008B54FF40060ADF8000003206A
:101870008DF8020010208DF8030069460548FFF737
:10188000A7FB4FF48050ADF8000069460148FFF710
:101890009FFB08BD0008014008B54FF48070ADF80B
:1018A000000003208DF8020048208DF803006946EF
:1018B0000148FFF78DFB08BD0008014000B500F0AE
:1018C000A5F800F095F800F085F800BD01201C494E
:1018D000087000201B4908601B49087001201B4943
:1018E000087000201A4908601A49087001201A4936
:1018F0000870002019490860194908700120194929
:10190000087000201849086001201849087000205C
:1019100017490860174908601749086017490860A7
:101920001749087017490870174908601749086077
:101930001749087017490870174908707047000068
:101940003C00002040000020440000204500002012
:10195000480000204C0000204D00002050000020D6
:101960005400002055000020580000205C0000209A
:101970006000002078000020380000207400002063
:101980007000002071000020680000206C00002022
:1019900065000020660000206700002010B5FFF7FA
:1019A000E5FCFFF7B1FC3020FFF76AFCFFF7DAFB3C
:1019B000AA20FFF765FCFFF7D5FB0020FFF760FCCE
:1019C000FFF7D0FB0020FFF75BFCFFF7CBFBFFF737
:1019D000B7FC10BD00200349087003490870034993
:1019E00008707047960000209700002098000020A3
:1019F00000200349087003490870034908707047C4
:101A0000930000209400002095000020002003494E
:101A1000087003490870034908707047900000205F
:101A2000910000209200002010B5FFF76DFC3120DE
:101A3000FFF726FCFFF796FBFFF7C0FB0446FFF716
:101A40004BFCFFF77DFC402C01D1012010BD002094
:101A5000FCE7000070B502460C465378042108E00C
:101A6000555C081F054E305C854201D0002070BDDA
:101A7000491C9942F4DB0120F9E70000443E0008CC
:101A800070B502460C465378042109E0555C01F11B
:101A9000EE00054E305C854201D0002070BD491C2F
:101AA0009942F3DB0120F9E7443E000808B50246FD
:101AB000732915D113798DF8003053798DF80130E1
:101AC00093798DF802309DF80030012B07D19DF8F5
:101AD0000130012B03D19DF8023003B9012000E051
:101AE000002008BD0246062927D2DFE801F02603C0
:101AF0000A11181F2F48304B18603048304B1860BF
:101B00001CE030482C4B18602F482D4B186015E016
:101B10002E48294B18602E48294B18600EE02D489E
:101B2000254B18602C48264B186007E02B48224BA9
:101B300018602B48224B186000E000BF00BF1E4811
:101B400000680078012808D1264800681C4B1B68F3
:101B500018600020184B1B68187022480068104459
:101B6000204B1B68984210D21E48006810441D4B41
:101B70001B6898421BD101200F4B1B681870002076
:101B80000F4B1B681860012070470D480068006803
:101B9000144B1B68181A904209D30120064B1B688E
:101BA00018700020064B1B6818600120ECE700202D
:101BB000EAE700003C000020680000204000002010
:101BC0006C00002045000020480000204D0000204F
:101BD0005000002055000020580000205C0000202C
:101BE00060000020180000202DE9F04104460D4659
:101BF00016461F463B4632462946204601F004FF62
:101C0000BDE8F08110B50446204601F031FF10BD5B
:101C100070B504460D46164632462946204601F068
:101C200059FF70BD10B500207A490860142001F0FA
:101C3000EBFB01207849C1F8BC014FF4487001F07A
:101C4000E3FB112001F030F8782001F0DDFB3520B6
:101C500001F02AF8002001F02EF8362001F024F8D7
:101C6000002001F028F8B22001F01EF80C2001F04D
:101C700022F80C2001F01FF8002001F01CF833209E
:101C800001F019F8332001F016F8B72001F00CF834
:101C9000352001F010F8BB2001F006F8192001F002
:101CA0000AF8C02001F000F82C2001F004F8C2204E
:101CB00000F0FAFF012000F0FEFFC32000F0F4FF67
:101CC0001D2000F0F8FFC42000F0EEFF202000F0FF
:101CD000F2FFC62000F0E8FF0F2000F0ECFFD0205C
:101CE00000F0E2FFA42000F0E6FFA12000F0E3FFF7
:101CF000E82000F0D9FF832000F0DDFFE02000F0B5
:101D0000D3FFD22000F0D7FF112000F0D4FF16201F
:101D100000F0D1FF0D2000F0CEFF0D2000F0CBFF32
:101D2000382000F0C8FF3D2000F0C5FF442000F03F
:101D3000C2FF4C2000F0BFFF1C2000F0BCFF1520AC
:101D400000F0B9FF152000F0B6FF1C2000F0B3FF33
:101D5000202000F0B0FFE12000F0A6FFD22000F02C
:101D6000AAFF112000F0A7FF162000F0A4FF0D200D
:101D700000F0A1FF0D2000F09EFF382000F09BFF37
:101D80003D2000F098FF442000F095FF4C2000F02B
:101D900092FF1C2000F08FFF152000F08CFF152013
:101DA00000F089FF1C2000F086FF202000F083FF58
:101DB0003A2000F079FF552000F07DFF292000F047
:101DC00073FF0A2001F020FB2A2000F06DFF0020A5
:101DD00000F071FF002000F06EFF002000F06BFFAC
:101DE000EF2000F068FF2B2000F05EFF002000F0E5
:101DF00062FF002000F05FFF012000F05CFF3F2049
:101E000000F059FF782001F0FFFA2C2000F04CFF81
:101E100010BD0000BC812142008021422DE9F84321
:101E20000746884614461E46DDE90895102C07D162
:101E30004B463246414638460095FEF7FDFB12E020
:101E4000182C07D14B463246414638460095FEF7DE
:101E5000E9FA08E0282C06D14B463246414638467E
:101E60000095FEF753FBBDE8F883000001B584B090
:101E7000049803900398262818D14FF6E0700021AB
:101E8000FAA31822CDE900104FF49171642001F0FB
:101E900047FB4FF6E0700021F5A31822CDE90010B2
:101EA0004FF49171C82001F03BFB09E046F24F204E
:101EB00040F23F13EF22E6210090002001F03EFEA9
:101EC000039828287DD2DFE810F03504280085002B
:101ED000B801C401B50075038103C1002D033903A6
:101EE000CD0045035103A9005D036903D9008D03AB
:101EF0009903E500A503B1030A01BD03C903240149
:101F0000D503E1034901ED03F9036E010504110452
:101F100093011D0429047C005004012001F056FFA8
:101F200046F24F2040F23F13EF2200210090084676
:101F300001F004FE4FF6E0700021CE4B1022CDE9F7
:101F40000010B42001F0ECFA4FF6E0700021CAA3B3
:101F50001822CDE900103C21002001F0E1FA4FF6F3
:101F6000E0700021C9A31022CDE9001078210020E3
:101F700001F0D6FA4FF6E0700021CCA31022CDE993
:101F800000108B21002001F0CBFA4FF6E070002109
:101F9000CCA31022CDE90010AD21002001F0C0FA41
:101FA0004FF6E0700021CFA31022CDE90010C02130
:101FB000002001F0B5FA4FF6E0700021CFA31822FF
:101FC00000E0ECE3CDE900104FF49171002001F046
:101FD000A7FAE5E346F24F2040F23F13EF2200213B
:101FE0000090084601F0AAFD4FF6FF700021C5A33E
:101FF0001022CDE900100521002001F091FA4FF6E2
:10200000E0700021C5A31022CDE900104FF48271C9
:10201000002001F085FA01F0CAF9C1E34FF6FF7024
:102020000021C6A31022CDE900101821002001F0E4
:1020300077FAB5E34FF6FF700021C5A31022CDE972
:1020400000102B21002001F06BFAA9E34FF6FF707E
:102050000021C4A31022CDE900103E21002001F090
:102060005FFA9DE34FF6FF700021C4A31022CDE973
:1020700000105121002001F053FA91E34FF6FF7058
:102080000021C4A31022CDE900106421002001F03A
:1020900047FA85E34FF6FF700021C4A31022CDE973
:1020A00000107721002001F03BFA4FF6E07000218C
:1020B000C4A31022CDE90010F121002001F030FA74
:1020C0004FF6E0700021C5A31022CDE900104FF4B7
:1020D0008271002001F024FA01F069F960E34FF603
:1020E000FF700021C3A31022CDE900108A21002037
:1020F00001F016FA4FF6E0700021C4A31022CDE9DA
:1021000000104FF48271002001F00AFA01F04FF93B
:1021100046E34FF6FF700021C3A31022CDE9001063
:102120009D21002001F0FCF94FF6E0700021C5A3CD
:102130001022CDE90010F121002001F0F1F94FF655
:10214000E0700021C7A31022CDE900104FF4827186
:10215000002001F0E5F901F02AF921E34FF6FF70C4
:102160000021C7A31022CDE90010B021002001F00A
:10217000D7F94FF6E070002192A31022CDE90010AC
:10218000F121002001F0CCF94FF6E070002193A37B
:102190001022CDE900104FF48271002001F0C0F947
:1021A00001F005F9FCE24FF6FF700021BAA31022FE
:1021B000CDE90010C321002001F0B2F94FF6E07024
:1021C0000021BCA31022CDE90010F121002001F074
:1021D000A7F94FF6E0700021BDA31022CDE9001051
:1021E0004FF48271002001F09BF901F0E0F8D7E292
:1021F0004FF6FF700021BBA31022CDE90010D621BD
:10220000002001F08DF94FF6E0700021BCA31022F0
:10221000CDE90010F121002001F082F94FF6E070C5
:102220000021ABA31022CDE900104FF482710020F1
:1022300001F076F901F0BBF8B2E24FF4FC60002146
:10224000B64B1022CDE900100521DC2001F068F921
:10225000A6E24FF478400021B14B1022CDE90010E6
:102260000521DC2001F05CF99AE200005965730059
:102270004E6F0000800000205354415254205445BA
:102280005354494E542E2E2E00000000312E506C17
:1022900065617365207075742074686520746F20A3
:1022A000626520746573746564000000454D4420C8
:1022B00050434241206F6E20746865206E657374D0
:1022C0002E000000322E506C6561736520737472AD
:1022D0006573732074686520746573742070696E0B
:1022E00000000000746F20636F6E6E65637420746D
:1022F000686520504342412E000000005374617213
:1023000074000000312E536C656570206375727225
:10231000656E74203C343075413F00005468652080
:1023200063757272656E74206D6574657220766176
:102330006C75653C343075413F000000322E4443DB
:102340002F444320776F726B73206F6B3F00000048
:10235000332E4D6F746F727320776F726B73206FB3
:102360006B3F0000342E53572076657273696F6E91
:1023700020697320312E312E303F0000352E506100
:1023800072616D6574657273206172652072696730
:1023900068743F00362E302E386D6D486720747299
:1023A0006967676572206F6B3F000000372E313020
:1023B0006D6D48672074726967676572206F6B3F47
:1023C000000000004C454420736F6C6964207965FF
:1023D0006C6C6F7720616E6400000000766962614A
:1023E000726174696F6E20666F7220352074696D3A
:1023F00065733F00382E576F726B206F6B206F6EC6
:102400002056623E322E36563F0000004C45442096
:10241000677265656E20616E6420766962617261C3
:1024200074696F6E3F000000392E576F726B206F1A
:102430006B206F6E20322E3435563C56623C322E65
:1024400036563F0059656C6C6F77204C45442066CA
:10245000616C736820352074696D657320746865DC
:102460006E0000007475726E20677265656E206183
:102470006E642076696261726174696F6E3F0000FC
:1024800031302E576F726B206F6B206F6E2056624B
:102490003C322E3435563F0031312E4D616E756120
:1024A0006C20706F776572206F6E2F6F6666206F7D
:1024B0006B3F0000506C6561732070726573732010
:1024C000504F57455220627574746F6E20746F00C0
:1024D00073656520696620697420776F726B73205D
:1024E0006F6B3F0031322E4D616E75616C206368F9
:1024F0006F6F7365206D6F6465206F6B3F00000028
:10250000506C656173207072657373204D4F444544
:1025100020627574746F6E20746F00007C00002060
:102520007E0000204FF4FC6000219F4B1022CDE97B
:1025300000103E21DC2000F0F3FF31E14FF4784041
:1025400000219A4B1022CDE900103E21DC2000F042
:10255000E7FF25E14FF4FC600021934B1022CDE909
:1025600000105121DC2000F0DBFF19E14FF478402E
:1025700000218E4B1022CDE900105121DC2000F00B
:10258000CFFF0DE14FF4FC600021874B1022CDE915
:1025900000101821DC2000F0C3FF01E14FF4784067
:1025A0000021824B1022CDE900101821DC2000F020
:1025B000B7FFF5E04FF4FC6000217B4B1022CDE922
:1025C00000102B21DC2000F0ABFFE9E04FF4784055
:1025D0000021764B1022CDE900102B21DC2000F0E9
:1025E0009FFFDDE04FF4FC6000216F4B1022CDE92E
:1025F00000106421DC2000F093FFD1E04FF478401C
:1026000000216A4B1022CDE900106421DC2000F08B
:1026100087FFC5E04FF4FC600021634B1022CDE939
:1026200000107721DC2000F07BFFB9E04FF4784008
:1026300000215E4B1022CDE900107721DC2000F054
:102640006FFFADE04FF4FC600021574B1022CDE945
:1026500000108A21DC2000F063FFA1E04FF47840F5
:102660000021524B1022CDE900108A21DC2000F01D
:1026700057FF95E04FF4FC6000214B4B1022CDE951
:1026800000109D21DC2000F04BFF89E04FF47840E2
:102690000021464B1022CDE900109D21DC2000F0E6
:1026A0003FFF7DE04FF4FC6000213F4B1022CDE95D
:1026B0000010B021DC2000F033FF71E04FF47840CF
:1026C00000213A4B1022CDE90010B021DC2000F0AF
:1026D00027FF65E04FF4FC600021334B1022CDE969
:1026E0000010C321DC2000F01BFF59E04FF47840BC
:1026F00000212E4B1022CDE90010C321DC2000F078
:102700000FFF4DE04FF4FC600021274B1022CDE974
:102710000010D621DC2000F003FF41E04FF47840A8
:102720000021224B1022CDE90010D621DC2000F040
:10273000F7FE35E04FF4784000211DA32822CDE9B3
:102740000010F821502000F0EBFE4FF6E070002161
:10275000AFF258431822CDE900104FF491710020D8
:1027600000F0DEFE00F023FE1AE04FF4FC600021D2
:1027700011A32822CDE90010F821502000F0D0FE4E
:102780004FF6E07000210EA31822CDE900104FF49F
:102790009171002000F0C4FE00F009FE00E000BFCF
:1027A00000BF05B000BD00007C0000207E000020BE
:1027B0004641494C000000005041535300000000C6
:1027C000456E640000BFFEE710B50446204601F0E8
:1027D00095FA012010BD000070B5384D002638482C
:1027E000FEF78EFC86B264E03548FDF7C0FD044676
:1027F0003448007800284AD03348007860B3334822
:1028000000782C5431480078401C3049087030481A
:102810000078401E2E49087008460078002846DCE3
:1028200069782846FDF7E7FD58B14FF496722349C1
:102830002848FDF777FC2748FFF7C6FF022000F085
:10284000E3FD00201F4908701F4908704FF496717E
:102850001A48FDF780FC2AE040F22B10844210DA7F
:10286000002C0EDD154819490978445418480470A5
:1028700001201549087015480078401C134908705C
:1028800015E000200F4908700F4908700FE0FF2C79
:102890000DD10A48047001200A49087000200A4935
:1028A0000870012009490870002009490870701E4D
:1028B00086B2002E98DC012070BD0000E0050020EB
:1028C000C40200202A0000202B0000202C00002041
:1028D0002D0000200C07002000B587B044F24F60A7
:1028E000ADF8140040F2E730ADF810000020ADF86C
:1028F0001600ADF8120004A9104800F0BDFB6020DE
:10290000ADF800000020ADF808000120ADF802008D
:102910000020ADF806006946084800F057FB082182
:10292000064800F09FFB0121044800F016FB01213E
:10293000024800F024FB07B000BD00000008004082
:10294000F0B587B007460C461546012C37DB4CF234
:102950005030844233DC642D31DC44F2506090FB13
:10296000F4F0401E80B2ADF8140040F2E730ADF84C
:1029700010000020ADF81600ADF81200BDF81400EC
:10298000461C6E436420B6FBF0F66020ADF80000F4
:102990000020ADF808000120ADF80200B0B2ADF89B
:1029A0000600012F0BD104A9064800F065FB69461B
:1029B000044800F00BFB0821024800F053FB07B06D
:1029C000F0BD00000008004008B50121042000F01F
:1029D0008DF80121092000F099F84020ADF80000A1
:1029E00018208DF8030003208DF802006946024884
:1029F000FEF7EEFA08BD0000000C01407047000031
:102A000070B5002100230F22C47804B3154C24684C
:102A100004F4E064C4F5E064210AC1F10403CA408F
:102A2000447804FA03F184781440214309010E4CE0
:102A30000678A155047804F01F050124AC40057800
:102A40006D11AD0005F1E025C5F8004109E00478FD
:102A500004F01F050124AC40044D0678761145F8BA
:102A6000264070BD0CED00E000E400E080E100E0F5
:102A70000C4A11600C4AD26802F47F42C3B21A4376
:102A8000094BDA600022094BC3F8B821054B1B1F24
:102A90001A6001221A60034B1B1D1A60034BC3F816
:102AA000B4217047B48121420010014000802142CE
:102AB0007047000001460020034A506820F440405F
:102AC00008435060704700000010024029B1064AD8
:102AD00052690243044B5A6104E0034A526982433B
:102AE000014B5A61704700000010024029B1064AAC
:102AF000D2690243044BDA6104E0034AD26982439B
:102B0000014BDA61704700000010024029B1064A0B
:102B100092690243044B9A6104E0034A926982433A
:102B2000014B9A61704700000010024030B500214F
:102B30000022002400232D4D6D6805F00C0121B109
:102B4000042905D0082923D105E0294D056022E09C
:102B5000274D05601FE0254D6D6805F47012234D6B
:102B60006D6805F48034022505EB92421CB9214DB5
:102B7000554305600BE01D4D6D6805F400351DB132
:102B80001C4D5543056002E0194D5543056002E0B8
:102B9000174D056000BF00BF144D6D6805F0F001D2
:102BA0000909154D6B5C0568DD4045600F4D6D688A
:102BB00005F4E061090A104D6B5C4568DD408560F5
:102BC0000A4D6D6805F46051C90A0B4D6B5C456890
:102BD000DD40C560054D6D6805F44041890B074D2A
:102BE0006B5CC568B5FBF3F5056130BD00100240B4
:102BF00000127A0000093D000000002010000020B3
:102C000001460020034A506820F4E0600843506009
:102C100070470000001002402DE9F0410446FEF725
:102C200083FA0746D4F80C01B84203DBD4F80C0150
:102C3000C61B04E0D4F80C0100F58270C61BC4F872
:102C40000C7100251BE0D4F810012844B0F5827FF8
:102C50000BDBD4F810012844A0F5827004F58A72C9
:102C6000115C2046FDF795FB08E0D4F810014219ED
:102C700004F58A70815C2046FDF78BFB6D1CB54224
:102C8000E1DBD4F810013044C4F81001D4F810018D
:102C9000B0F5827F05DBD4F81001A0F58270C4F88E
:102CA0001001BDE8F081704710B5044600212046B0
:102CB000FFF7DEFE10BD10B5044601212046FFF7E8
:102CC000D7FE10BD1CB5FF208DF8000005208DF843
:102CD000010001208DF8020005208DF8030001207D
:102CE0008DF804006846FDF775FB9DF80100821C15
:102CF0006946024800F05BFC1CBD0000DC040020BB
:102D00001CB5FF208DF8000005208DF80100012082
:102D10008DF8020006208DF8030001208DF80400D4
:102D20006846FDF757FB9DF80100821C6946024882
:102D300000F03DFC1CBD0000DC04002010B500F0DC
:102D400001F810BD0CB500200190009033480068D8
:102D500040F480303149086000BF3048006800F41A
:102D6000003000900198401C0190009818B901981B
:102D7000B0F5A06FF1D12948006800F4003010B11F
:102D80000120009001E0002000900098012843D12C
:102D90002348006840F01000214908600846006898
:102DA00020F0030008600846006840F00200086058
:102DB0001A48406819494860084640684860084613
:102DC000406840F4806048600846406820F47C1009
:102DD00048600846406840F4E810486008460068CB
:102DE00040F08070086000BF0C48006800F0007080
:102DF0000028F9D00948406820F0030007494860DE
:102E00000846406840F00200486000BF0348406840
:102E100000F00C000828F9D10CBD000000100240A1
:102E2000002002402DE9F04104460D46002600270F
:102E30000C2C2BD2DFE804F006090C0F1215182118
:102E4000241B1E27184E012721E0174E02271EE0E3
:102E5000164E20271BE0154E102718E0144EB7150C
:102E600015E0134E771512E0114E37150FE00F4E97
:102E7000F7140CE00D4EB71409E00D4EF71406E000
:102E80000B4EB71403E0094EB71500E000BF00BFBA
:102E900025B139463046FEF731F903E03946304670
:102EA000FEF72AF9BDE8F081000C0140000801405E
:102EB00000100140042808D14FF0E021096941F0D9
:102EC00004014FF0E022116107E04FF0E0210969B1
:102ED00021F004014FF0E0221161704770470000BB
:102EE00010B51348006840F0010011490860084619
:102EF0004068104908400E494860084600680E497D
:102F000008400B4908600846006820F480200860EB
:102F10000846406820F4FE0048604FF41F008860B7
:102F2000FFF70CFF4FF000600449086010BD00007F
:102F3000001002400000FFF8FFFFF6FE08ED00E081
:102F400010B50121880700F026F828B100F072FEC4
:102F50000121880700F010F810BD21B1028842F06D
:102F60008002028004E002884FF67F731A400280DC
:102F70007047CA4302827047CA430282704721B138
:102F8000028842F00102028004E002884FF6FE73DC
:102F90001A400280704730B502460020002300240A
:102FA000158A05EA0103958905EA010413B10CB1FC
:102FB000012000E0002030BD1AB183890B438381DA
:102FC00002E083898B4383817047000070B5002441
:102FD00000220023058C4FF6FE7635400584028CD6
:102FE0008388048B4FF68F752C40B51E2C400D88BE
:102FF0002C43751E2A400D892A434D882A43144DBF
:10300000A8420BD0134DA84208D0134DA84205D0BA
:10301000124DA84202D0124DA84213D14FF6F775B7
:103020002A404D892A434FF6FB752A408D882A4352
:103030004FF6FF652B404FF6FF552B408D892B43F4
:10304000CD892B4383800483CD888586028470BD1F
:10305000002C014000340140004001400044014088
:10306000004801400A460021018B4FF6F7731940D2
:103070001143018370470000002202881D4B9842D3
:103080000ED01D4B98420BD0B0F1804F08D01B4B97
:10309000984205D01A4B984202D01A4B984204D15C
:1030A0004FF68F731A404B881A43174B984207D03C
:1030B000164B984204D04FF6FF431A40CB881A4370
:1030C00002808B8883850B8803850A4B98420BD03E
:1030D000094B984208D00E4B984205D00D4B9842B0
:1030E00002D00D4B984201D10B7A038601238382D3
:1030F00070470000002C01400034014000040040F3
:1031000000080040000C0040001000400014004087
:1031100000400140004401400048014010B5CCB0DF
:103120004FF4967101A8FDF716F84FF4967201A9B5
:10313000074800F01DFA04461CB1214601A800F022
:1031400019F91E21042000F04FFD4CB010BD000005
:10315000DC04002030B591B005460C46012108463C
:10316000FFF7B4FC01210520FFF7D0FC0121480442
:10317000FFF7BCFC0820ADF8400004208DF84300A8
:1031800010A93848FDF724FF0420ADF840000320C3
:103190008DF8420018208DF8430010A93148FDF742
:1031A00017FF3148FDF7A2FA30480590002006903D
:1031B0001020079000200890099080200A9000209D
:1031C0000B900C900D904FF400500E9000200F903B
:1031D00005A92548FDF734FB23481438FDF786FA86
:1031E00022480590069500200790089409908020B9
:1031F0000A9000200B900C9020200D9000020E9061
:1032000000200F9005A918481438FDF719FB01227A
:10321000C0211648001F00F037F801211248143869
:10322000FDF758FA01211048FDF754FA4FF4E13048
:1032300001900020ADF80800ADF80A00ADF80C00D0
:10324000ADF810000C20ADF80E0001A90748001FD2
:1032500000F024F801210548001F00F009F811B022
:1032600030BD0000000801408000024004440040DE
:1032700021B1828942F40052828104E082894DF6B4
:10328000FF731A40828170471AB1838A0B4383828D
:1032900002E0838A8B438382704700002DE9F04768
:1032A00086B005460E460024A24600BFA146002770
:1032B000B08900B100BF2F462C8A4CF6FF70044045
:1032C000F08804432C82AC894EF6F3100440B08899
:1032D00031890843718908430443AC81AC8A4FF6B5
:1032E000FF400440B0890443AC8201A8FFF71EFCF4
:1032F0001F48874202D1DDF810A001E0DDF80CA0E4
:10330000A88900F4004040B10AEBCA0000EB0A10A3
:1033100031684900B0FBF1F807E00AEBCA0000EBA6
:103320000A1031688900B0FBF1F86420B8FBF0F0B6
:1033300004012009642101FB1089A88900F40040E0
:1033400040B1322000EBC900B0FBF1F000F0070003
:10335000044308E0322000EB09106421B0FBF1F0D7
:1033600000F00F0004432C8106B0BDE8F087000098
:103370000038014070B504460D462A4621460248F1
:10338000FDF77CFA70BD00008000024000BFFEE740
:1033900002E008C8121F08C1002AFAD1704770471E
:1033A000002001E001C1121F002AFBD1704710B5B7
:1033B00001210846FFF736FD3C2000F025F80021EA
:1033C0000120FFF72FFD10BD10B56FF00400FFF7CF
:1033D00071FD094800680949B0FBF1F040B20849A5
:1033E0000870084690F900004FF47A71484300B223
:1033F0000449088010BD00009C00002000127A00E3
:1034000014000020160000200146124AB2F90020E4
:103410004A434FF0E0235A6100229A611A4612692A
:1034200042F001021A6100BF4FF0E022106900F083
:1034300001021AB100F48032002AF5D04FF0E022E8
:10344000126922F001024FF0E0231A6100229A6112
:1034500070470000160000200146124A92F9002031
:103460004A434FF0E0235A6100229A611A461269DA
:1034700042F001021A6100BF4FF0E022106900F033
:1034800001021AB100F48032002AF5D04FF0E02298
:10349000126922F001024FF0E0231A6100229A61C2
:1034A00070470000140000202DE9FC5F04468946A7
:1034B00017469A46DDE90C6BA0463D463819C7B25F
:1034C0000AEB09001FFA80FA22E0F02C02DB4446E6
:1034D000601984B20E98CDE900B03378E0B22A4684
:1034E0004946FEF79BFC182D04D1A5F10C002044A1
:1034F00084B20CE0102D04D1A5F10800204484B260
:1035000005E0282D03D1A5F11400204484B2761CD7
:1035100030787E2802DC30782028D6DABDE8FC9F9F
:103520002DE9FE4F8046894616461C46DDE90CAB68
:103530000025002701E0681C85B214F8011B002952
:10354000F9D1681C241A06FB05F087B27F103B46B0
:103550003246494640468DE8100CFFF7A5FFBDE80E
:10356000FE8F816000238380C28043800380704788
:1035700030B503460C469888904200DC9A880021BA
:103580000EE05888DD88A84201DB002058805D8865
:103590009868405D60545888401C5880481C81B22F
:1035A0009142EEDB9888801A9880104630BDF0B5C5
:1035B00003460C469D88DE88B61AB54201DD002020
:1035C00016E000210EE01D88DE88B54201DB0025F3
:1035D0001D80655C1F889E68F5551D886D1C1D80CB
:1035E0004D1CA9B29142EEDB9D8815449D800120BF
:1035F000F0BD2DE9F041FDF787FE3120FDF740FEDB
:10360000FDF7B0FDFDF7DAFD0746FDF721FEFDF7FA
:10361000D5FD0446FDF71CFEFDF7D0FD0546FDF780
:1036200017FEFDF7CBFD0646FDF756FEFDF788FEBB
:10363000200400EB05203044BDE8F08110B51348AC
:10364000007820B9FEF7AAF90220104908700F4847
:103650000078022815D1FEF7E7F9012811D10C48AE
:10366000007838B9FFF7C5FF0A490860012008490A
:10367000087006E0FFF7BDFF074908600020034916
:1036800008700A21032000F0AFFA10BD35000020B9
:1036900034000020380000203000002010B5012147
:1036A0001C20FFF733FA0121C802FFF72FFA01218E
:1036B0000720FFF71BFAFDF73BFFFEF73BF8FDF78E
:1036C00013FFFEF7A5F8FEF77FF8FEF75DF8FEF7AB
:1036D000E3F8FDF769FEFEF7C5F8FDF717FFFDF704
:1036E00059FFFEF783F8FEF737F8FEF7A3F8FEF769
:1036F00045F8FDF771FF00F019F800F009F8002116
:103700000846FFF78FFB00210120FFF78BFB10BD60
:10371000034804490860002003498871704700008D
:10372000B4000020B00000203808002008B50020B8
:1037300008490860FEF776FA002040F23F13EF22B6
:103740000146009000F0FAF900200349C1F8A801F1
:1037500008BD0000A88121420080214210B5FFF77A
:103760009DFF042201210D4800F01CFA05220121D1
:103770000B4800F017FA022201210A4800F012FA61
:1037800001221146084800F00DFA032201210748E2
:1037900000F008FA002000F055FA10BD1D310008B5
:1037A000B903000831380008790900083D360008DF
:1037B0001FB54FF4C060FFF723FA01210846FFF759
:1037C00095F91C208DF8000001208DF801008DF87E
:1037D00002008DF803006846FFF712F913480068ED
:1037E000C0084FF47A71B0FBF1F0401E80B2ADF822
:1037F00008000120ADF804000020ADF80A00ADF883
:1038000006008DF80C0001A94FF08040FFF734FC52
:1038100001218807FFF7ADFB012211469007FFF752
:10382000CBFB01218807FFF7AAFB1FBD9C000020EE
:1038300010B56A480078042817D0684800780D2829
:1038400013D0664800780E280FD0644800780F28FF
:103850000BD062480078102807D060480078112803
:1038600003D05E4800780C286FD15D480078A8B975
:103870005C480078032806D100205A4908700120CE
:103880005749087029E010215748FDF72CFC20BB50
:1038900054480078401C534908701EE05048007896
:1038A00001281AD14F48007803280CD100204D4937
:1038B00008704B49087001204C490870FEF798F8D1
:1038C000FEF788F809E010214748FDF70CFC20B10D
:1038D00044480078401C4349087045480078A8B91E
:1038E00044480078032806D100204249087001208E
:1038F0003F49087029E040213B48FDF7F4FB20BB1D
:103900003C480078401C3B4908701EE0384800786D
:1039100001281AD13748007803280CD100203549F6
:10392000087033490870012033490870FEF76EF8BB
:10393000FEF75EF809E040212B48FDF7D4FB20B1EB
:103940002C480078401C2B49087024480078132824
:1039500007D022480078122803D020480078022897
:1039600037D126480078A8B925480078032806D121
:1039700000202349087001202049087029E02021F7
:103980001948FDF7B0FB20BB1D480078401C1C49BE
:1039900008701EE01948007801281AD118480078EC
:1039A00003280CD100201649087014490870012022
:1039B00014490870FEF72AF8FEF70CF809E02021F8
:1039C0000948FDF790FB20B10D480078401C0C49D8
:1039D00008700521022000F007F910BD64000020E6
:1039E000900000209100002000080140920000207B
:1039F00096000020970000209800002093000020EF
:103A00009400002095000020F0B507460E461446AD
:103A10001D4600212A20FFF72BF801210020FFF787
:103A200027F801213846FFF723F801210020FFF78E
:103A30001FF801213046FFF71BF800212B20FFF76C
:103A400017F80121C4F30720FFF712F8E0B20121B3
:103A5000FFF70EF80121C5F30720FFF709F8E8B2D8
:103A60000121FFF705F800212C20FFF701F8F0BD38
:103A70000021154A11600121144AC2F8B4111449F9
:103A8000C96801F47F41C0F307221143104AD16095
:103A900000210D4A083A116001210C4AC2F8B01108
:103AA0000B49C96801F47F41C2B21143084AD16091
:103AB0000021054A083A116001211160121D1160B0
:103AC000024AC2F8B8117047B881214200802142F1
:103AD0000010014070B506460C46154600212A200C
:103AE000FEF7C6FF01210020FEF7C2FF012130468C
:103AF000FEF7BEFF01210020FEF7BAFF012130468C
:103B0000FEF7B6FF00212B20FEF7B2FF20120121A5
:103B1000FEF7AEFFE0B20121FEF7AAFF201201215D
:103B2000FEF7A6FFE0B20121FEF7A2FF00212C2044
:103B3000FEF79EFF2846FFF79BFF70BD2DE9F04F73
:103B400006460C4615461F46A5EB060AA7EB040BD6
:103B50003B46224629463046FFF756FF4FF0000904
:103B60000BE04FF0000804E00998FFF781FF08F12F
:103B70000108D045F8D909F10109D945F1D9BDE8C5
:103B8000F08F000010B5FFF71FFC00F04FF8002287
:103B90000121034800F006F800F066F8002010BD8F
:103BA0005D37000870B503460020104600EB400466
:103BB0000C4D05EB8404617100EB400405EB8404BB
:103BC000227100EB400445F82430002400EB40054E
:103BD000044E06EB8505EC8000EB400506EB850501
:103BE000AC6070BD4C02002030B5092800DD30BD4E
:103BF00000BF02460B4B1B6802EB42040A4D05EB6B
:103C00008404A3604FF47A734B434FF47A74B3FB8C
:103C1000F4F302EB420405EB8404E38000BF00BF31
:103C2000E5E70000180000204C02002010B5FFF767
:103C3000BFFD10BD02480068401C01490860704784
:103C40001800002010B5092800DD10BD0021014634
:103C5000002201EB4103034C04EB83035A7100BFC4
:103C600000BFF2E74C02002040E00020204908603D
:103C700038E01F48006800EB40001E4901EB80005F
:103C80004079012829D11A48006800EB400001EB77
:103C9000800080681649096801EB4101154A02EB72
:103CA0008101C988084414490968884215D8002050
:103CB0000F49096801EB410102EB810188600C4961
:103CC000096801EB410102EB8101C88008490968DC
:103CD00001EB410152F82100804705480068401C73
:103CE00003490860024800680A28C2D3BDE7000003
:103CF000200000204C0200201800002070B504466F
:103D00002646F578092D13D00A2D19D0732D02D02F
:103D1000752D23D11DE073212046FDF7C7FE18B194
:103D200001201049087002E000200E49087016E0DA
:103D300009212046FDF78EFE08B1FEF7E1FF0EE0F7
:103D40000A212046FDF79CFE10B1012006490870AB
:103D500005E075212046FDF7EFF900E000BF00BF48
:103D600070BD0000650000206600002010B5012134
:103D70000520FFF757F84FF4FA70FFF745FB0021D5
:103D80000520FFF74FF84FF47A70FFF73DFB08204E
:103D9000FCF786FD10BD00001CB5FF208DF800006B
:103DA00004208DF8010001208DF8020072208DF8AA
:103DB00003006846FCF70EFB9DF80100821C694673
:103DC0000148FFF7F4FB1CBDDC04002018B1012101
:103DD000034A116002E00021014A116070470000AF
:103DE000A881214210B501210520FFF71BF84FF4EF
:103DF000FA70FFF709FB00210520FFF713F84FF4D5
:103E0000FA70FFF701FB10BD10B50146CC1701EBAE
:103E10001474C4F30712CC1701EB14742411A1EB32
:103E20000414E3B202EB820003EB400042F22834B8
:103E300060430A2490FBF4F0014C2468204410BD38
:103E4000380000200801110164281E010000120141
:103E5000641E19010001130164281E0100001401F1
:103E6000641E19010001150164281E0100001601DD
:103E7000641E19010000210164190101000E2201D4
:103E8000641910010027230164191001002724017F
:103E9000641910010027250064190101000E260095
:103EA00064190F0100013100641E0101010132009B
:103EB000642801020102330064320103010334006B
:103EC000643C010401043500644601050105360027
:103ED000645001060106110164370F01000F120141
:103EE00064370F010010130164370F01000F140134
:103EF00064370F010010150164370F02000F16011F
:103F0000641E0E010000210164280101000E22013F
:103F100064281F0100002301641E0E01001024010B
:103F200064281F0100002501641E0E0100102601F7
:103F300064281F0100003100641E010101013200EC
:103F400064280102010233006432010301033400DA
:103F5000643C010401043500644601050105360096
:103F6000645001060106110164630F01000F120184
:103F7000646319010010130164630F01000F140141
:103F8000646319010010150164630F01000F16012D
:103F9000646319010000210164420101000E220145
:103FA0006442290100002301641E0E010010240157
:103FB0006442290100002501641E0E010010260143
:103FC0006442370100003100641E0101010132002A
:103FD000642801020102330064320103010334004A
:103FE000643C010401043500644601050105360006
:103FF0006450010601062CD1000000000000000002
:1040000000F8FF1F000000C0FFFFFF070000F8FFDF
:10401000FFFF3F0000FEFFFFFFFF0080FFFFFFFFED
:10402000FF03C0FFFFFFFFFF07E0FF0700C0FF0F18
:10403000F03F000000F81FF007000000C01FF80369
:10404000000000803FF801000000003FFC0000007D
:1040500000007E7C00000000007C7C00000000006E
:104060007C7C00000000007C7C00000000007C7C68
:1040700000000000007CFC00000000007EF8010051
:104080000000003FF803000000803FF00700000040
:10409000C01FF03F000000F81FE0FF0700C0FF0F47
:1040A000C0FFFFFFFFFF0780FFFFFFFFFF0300FED2
:1040B000FFFFFFFF0000F8FFFFFF3F0000C0FFFF12
:1040C000FF07000000F0FF1F0000000000000000DC
:1040D00000000000000000000000000000000000E0
:1040E00000000000000000000000000000000000D0
:1040F00000F0030000000000E0070000000000E006
:10410000070000000000C00F0000000000801F003A
:1041100000000000803F0000000000003F000000A1
:104120000000007E000000000000FC000000000015
:1041300000FC010000000000F807F8FFFFFFFFFF90
:104140000FF8FFFFFFFFFF3FF8FFFFFFFFFF7FF8C4
:10415000FFFFFFFFFF7FF8FFFFFFFFFF7FF8FFFF7D
:10416000FFFFFF7F000000000000000000000000D3
:10417000000000000000000000000000000000003F
:10418000000000000000000000000000000000002F
:10419000000000000000000000000000000000001F
:1041A00000000078000000000000F8010000000F8F
:1041B00000F8070000007F00F81F000000FF01F872
:1041C0003F000080FF03F8FF000080FF07F8FF01B9
:1041D0000080FF0FF8FF030000F81FF8FE07000043
:1041E000C03FF8F80F0000803FF8F01F0000003FCC
:1041F000F8E03F0000007EF8C07F0000007CF880FF
:10420000FF0000007CF800FF0100007CF800FE03C6
:1042100000007CF800FC0700007CF800F01F0000A4
:104220007CF800E03F00007EF800C07F00003EF810
:104230000080FF01003FF80000FF07C03FF80000CA
:10424000FE1FF01FF80000F8FFFF1FF80000F0FF4E
:10425000FF0FF80000E0FFFF07F8000080FFFF01FC
:10426000F8000000FE7F00F8000000F01F000000D2
:10427000000000000000E0000000000000FC000062
:10428000000C0000FF0000007C0080FF010000FC2B
:1042900001C0FF010000FE07E0FF010000FE0FF07B
:1042A0007F000000FE0FF00F000000F01FF8030079
:1042B0000000C03FF801000000003FFC00000000CB
:1042C000003EFC00003800007E7C0000F001007C15
:1042D0007C0000F001007C7C0000F001007C7C0090
:1042E00000F001007C7C0000F003007CFC0000F882
:1042F00003007EF80000F807003FF80100FC0F8083
:104300003FF80300FE3FE01FF00F007FFFFF1FE0BC
:104310003FC03FFFFF0FE0FFFF3FFEFF07C0FFFF73
:104320001FFCFF0300FFFF0FF0FF0000FEFF07C0B0
:104330003F0000F8FF0100000000C03F0000000047
:104340000080FF000000000080FF030000000080EC
:10435000FF0F0000000080FF1F0000000080EF7FC3
:1043600000000000808FFF01000000800FFE0700AA
:104370000000800FFC0F000000800FF03F000000E5
:10438000800FC0FF000000800F00FF010000800FC1
:1043900000FE070000800F00F81F0000800F00E003
:1043A0003F0000800F00C0FF0000800F0000FF03EF
:1043B00000800F0000FC0F00800F0000F01FF8FFCE
:1043C000FFFFFFFF7FF8FFFFFFFFFF7FF8FFFFFF0B
:1043D000FFFF7FF8FFFFFFFFFF7FF8FFFFFFFFFFFB
:1043E0007FF8FFFFFFFFFF7F00800F00000000004D
:1043F000800F0000000000800F0000000000800F10
:104400000000000000800F0000000000800F00008E
:1044100000000000000000000000E00000000000BC
:1044200000FC003800000000FF00F81F000080FFC3
:1044300000F8FF0700C0FF00F8FFFF03E0FF00F8EF
:10444000FFFF1FF03F00FCFFFF1FF00700F8FFFF1A
:104450001FF80300E0F7FF1FF80100C00FF81FFC72
:104460000000800F001F7C0000800F001F7C0000F8
:10447000001F001F7C0000001F001F7C0000001FA9
:10448000001F7C0000001F001F7C0000001F001F99
:10449000FC0000801F001FF80100801F001FF803B0
:1044A00000C00F001FF00700E00F001FF00F00F822
:1044B0000F001FE07F00FE07001FC0FFFFFF03008B
:1044C0001F80FFFFFF01001F00FFFFFF00001F0014
:1044D000FCFF7F00001F00F0FF1F0000000080FFB6
:1044E00001000000000000000000000000F8FF0FC5
:1044F000000000C0FFFFFF030000F8FFFFFF1F00E8
:1045000000FEFFFFFF7F0000FFFFFFFFFF01C0FF76
:10451000FF3FF0FF03E07F00FF00FE07E00F00FC1D
:1045200001F00FF00700F001C01FF80300E0038066
:104530001FF80100C007003FF80000C007003E7CE4
:104540000000800F007C7C0000800F007C7C00005D
:10455000800F007C7C0000800F007C7C0000800FBE
:10456000007CFC0000C00F007EFC0000C00F007E3D
:10457000F80100E007003FF80300F007803FF00F6C
:1045800000FC07F03FF07F00FF03FC1FE0FFFFFF90
:1045900001FC0FC0FFFFFF00FC0780FFFF7F00FC56
:1045A0000300FEFF3F00FC0000F8FF0F001C0000AE
:1045B000C0FF00000000000000000000000000003C
:1045C0000000001F0000000000001F0000000000AD
:1045D000001F0000000000001F0000000000001F7E
:1045E0000000000000001FF801000000001FF87F1D
:1045F000000000001FF8FF070000001FF8FF3F0049
:1046000000001FF8FFFF0100001FF8FFFF0F000070
:104610001F00FFFF3F00001F00C0FFFF00001F0042
:1046200000FCFF07001F0000C0FF1F001F0000006C
:10463000FE3F001F000000F8FF001F000000C0FF49
:10464000031F00000000FF071F00000000FC1F1FE9
:1046500000000000F03F1F00000000C07F1F0000AE
:10466000000000FF1F0000000000FC1F0000000011
:1046700000F81F0000000000E01F0000000000C064
:104680001F0000000000001F0000000000000000EC
:10469000E03F0000000000FCFF0100000000FFFF01
:1046A00003C03F0080FFFF07F8FF00C0FFFF0FFCC3
:1046B000FF03E0FFFF1FFEFF07F03FE03FFFFF0F9C
:1046C000F00700BFFFFF1FF80300FE3FE03FF801C7
:1046D00000FC0F803FF80000F807003FFC0000F8E6
:1046E00003007E7C0000F001007C7C0000F00100F3
:1046F0007C7C0000F001007C7C0000F001007C7CF0
:104700000000F001007CFC0000F803007EF80000CF
:10471000F807003FF80100FC0F803FF80300FE3F60
:10472000E01FF00700BFFFFF1FF03FE03FFFFF0F5C
:10473000E0FFFF1FFEFF07C0FFFF0FFCFF0380FF2E
:10474000FF07F8FF0000FFFF03E01F0000FCFF0071
:1047500000000000E03F000000000000000000003A
:104760000000000000FE0700007000E0FF3F0000B6
:104770007E00F8FFFF00807F00FCFFFF03C07F008A
:10478000FEFFFF07E07F00FFFFFF0FF07F80FF01CC
:10479000FC1FF81FC07F00E01FF803C01F00C03FD0
:1047A000F801C00F00003FFC00E00700007F7C0024
:1047B000E00700007E7C00E00300007C7C00E0035A
:1047C00000007C7C00E00300007C7C00E003000033
:1047D0007CFC00C00300007CF800C00700003EF82D
:1047E00001C00700003EF003800F00003FF007000B
:1047F0001F00801FE01F007E00E00FC0FF01FC01D2
:10480000FC0F80FF7FF8FFFF0700FFFFFFFFFF01A6
:1048100000FCFFFFFFFF0000F0FFFFFF3F000080F4
:10482000FFFFFF07000000E0FF7F00000000000026
:104830000000F0FF1F0080FFFFFF03E0FFFFFF0FFE
:10484000F80700C03FFC0000007E3E000000F81E9C
:10485000000000F01E000000F01E000000F03E000E
:104860000000F8FC0000007EF80700C03FE0FFFFFA
:10487000FF0F80FFFFFF0300F0FF1F00000000009C
:104880000000000000000000000000000000000028
:104890000000003C000000007800000000F0000074
:1048A0000000E001000000C007000000800FFCFFD6
:1048B000FFFF3FFCFFFFFFFFFCFFFFFFFF000000CB
:1048C00000000000000000000000000000000000E8
:1048D00000000000000000000000003C0000E001BB
:1048E000FC0100E00FFC0700E01FFC0F00003EBCD5
:1048F0003F00007C3C7E0000F83CF80100F03CF0FA
:104900000300F03CC00F00F03C801F00F83C007E2C
:10491000007C3C00FC037E3C00F0FF3F3C00C0FFFD
:104920000F3C0000FE01000000000000000000003D
:104930000007008003E00700800FF80700803FFCBD
:104940000100007E7C000000783E000000F01E00A8
:10495000F000F01E00F000F01E00F001F03E00F844
:1049600001787C00FC077EF801BFFF3FF0FF1FFFCE
:104970000FC0FF0FFC0300FF01000000000000005B
:10498000000000000000F800000000F80700000030
:10499000F83F000000F8FF00000078FC07000078F6
:1049A000E03F00007880FF00007800FC07007800FE
:1049B000F01F00780080FFFCFFFFFFFFFCFFFFFF00
:1049C000FFFCFFFFFFFF0078000000007800000000
:1049D000007800000000000000000007F80000E080
:1049E00007F8FF01F807F8FF3FFC00F0FF3F7C00ED
:1049F000E0013E3E00C0033C1E00C0033C1E00C060
:104A0000033C1E00C0033C3E00E0033C7C00F00180
:104A10003CF803FC003CF0FF7F003CC0FF3F003C43
:104A200000FE070000000000000000000000000081
:104A3000F8FF0F0080FFFFFF01E0FFFFFF0FF8030B
:104A40007CC01F7C00F0003E3C00E001781E00C0EE
:104A500003F01E00C003F01E00C003F03E00E003A0
:104A6000F07C00F001F8F801FC017EF0FF7F803F50
:104A7000C0FF3F801F00FE07800300000000000011
:104A800000000000000000003C000000003C0000AE
:104A900000003CFC0000003CFC3F00003CFCFF032D
:104AA000003C00FF3F003C00C0FF003C0000FC0752
:104AB0003C0000C01F3C0000007E3C000000F83DB0
:104AC000000000C03F000000003F000000003C006C
:104AD00000000000000000000000FF010000E0FFF7
:104AE00007FC03F0FF1FFF1FF801BFFF3F7C00FC26
:104AF000077E3E00F801F81E00F000F01E00F000F6
:104B0000F01E00F000F03E00F801F87C00FC077E8B
:104B1000F801BFFF3FF0FF1FFF1FE0FF07FC03008E
:104B2000FF01000000000000000000000000800302
:104B3000C0FF00F003F8FF0FF803FCFF1FFC007F2D
:104B4000803F3E001F007C1E800F00F81E80070083
:104B5000F01E800700F01E800700F03C000F007878
:104B6000F8001E007CF0077C003FE0FFFFFF0F0015
:104B7000FFFFFF0300E0FF3F000000000000000017
:104B8000F81FFE7F07E003C003C007E0FE7FF81FA9
:104B9000000000000000000C00180030FFFFFFFFC5
:104BA000000000000000000003180F781BE073C035
:104BB000E3C0C3E1837F033E0000000018301E7095
:104BC00007E003C303C387E7FE7E7C3C0000700060
:104BD000F001B003300E303C30F0FFFFFFFF30003B
:104BE00030000000180F1EFF07F303C603C607C7F7
:104BF000FEC3F80100000000F80FFE3F076303C684
:104C000003C607E7FE73F8310000000000C000C0D3
:104C10000FC0FFC0F0C700DE00F800C000000000B9
:104C20007C3CFE7F87E703C303C387E7FE7F7C3CB2
:104C3000000000008C1FCE7FE7E063C063C0C6E0C9
:104C4000FC7FF01F00000000F007080804100410AB
:104C50000808F0070000000004080408FC1F040016
:104C600004000000000000000C0E1410241044107A
:104C700084110C0E00000000180C04100411041123
:104C80008812700C00000000E000200324042408B7
:104C9000FC1F240000000000981F84100411041160
:104CA0008810701000000000F0078808041104113B
:104CB0008818700000000000001C0010FC10001399
:104CC000001C001000000000380E441184108410F5
:104CD0004411380E0000000000078C0844104410F6
:104CE0008808F0070000000000000000000000003D
:104CF00080FFFF0100000000FEFFFF7F000000C0FA
:104D0000FFFFFFFF030000F8FFFFFFFF0F0000FEA3
:104D1000FFFFFFFF3F0000FFFFFFFFFFFF0080FFDF
:104D2000FFFFFFFFFF01C0FF3F0000FCFF03E0FFAC
:104D300001000080FF07F03F00000000FC0FF00FB3
:104D400000000000F00FF80700000000E01FF8036B
:104D500000000000C01FF80100000000801FFC01DF
:104D600000000000803FFC0000000000003FFC004D
:104D700000000000003FFC0000000000003FFC00BD
:104D800000000000003FFC0000000000003FFC00AD
:104D900000000000003FFC0100000000803FF8011F
:104DA00000000000801FF80300000000C01FF8078B
:104DB00000000000E01FF00F00000000F00FF03FC7
:104DC00000000000FC0FE0FF01000080FF07C0FFB3
:104DD0003F0000FCFF0380FFFFFFFFFFFF0100FF1C
:104DE000FFFFFFFFFF0000FCFFFFFFFF3F0000F0A1
:104DF000FFFFFFFF0F0000C0FFFFFFFF03000000E9
:104E0000FEFFFF7F0000000080FFFF0100000000A8
:104E10000000000000000000000000000000000092
:104E20000000000000000000000000000000000082
:104E30000000000000000000000000000000000072
:104E40000000000000000000000000FE0000000064
:104E5000000000FC01000000000000FC0100000058
:104E6000000000FC03000000000000F80300000048
:104E7000000000F807000000000000F00F00000034
:104E8000000000F00F000000000000E01F00000024
:104E9000000000C03F000000000000C07F000000D4
:104EA00000000080FF00000000000000FF01000083
:104EB00000000000FE03F8FFFFFFFFFFFF07F8FF01
:104EC000FFFFFFFFFF0FF8FFFFFFFFFFFF3FF8FFB0
:104ED000FFFFFFFFFF3FF8FFFFFFFFFFFF3FF8FF70
:104EE000FFFFFFFFFF3FF8FFFFFFFFFFFF3F000057
:104EF00000000000000000000000000000000000B2
:104F000000000000000000000000000000000000A1
:104F10000000000000000000000000000000000091
:104F20000000000000000000000000000000000081
:104F30000000000000000000000000000000000071
:104F400000000000000000000000000000007800E9
:104F5000000000000000F803000000E00000F80F6F
:104F6000000000E00F00F81F000000E03F00F87FA5
:104F7000000000F0FF00F8FF000000F0FF01F8FF64
:104F8000010000F0FF03F8FF070000F0FF07F8FF43
:104F90000F000000FF07F8FF1F000000F80FF8FBEC
:104FA0003F000000F00FF8F37F000000E01FF8C39F
:104FB000FF000000C01FF883FF000000801FF803FF
:104FC000FF010000803FF803FE030000003FF803EC
:104FD000FC070000003FF803F80F0000003FF80353
:104FE000F01F0000003FF803E03F0000003FF8031F
:104FF000E07F0000003FF803C0FF0000003FF8031F
:1050000080FF0100803FF80300FF0300803FF803AA
:1050100000FE0700C01FF80300FC1F00C01FF803BC
:1050200000F83F00E01FF80300F0FF00F80FF8035E
:1050300000C0FF07FE0FF8030080FFFFFF07F80323
:105040000000FFFFFF03F8030000FEFFFF01F8036D
:105050000000F8FFFF00F8030000F0FF7F00F803F6
:105060000000C0FF1F00F803000000FE0300000066
:1050700000000000000000000000000000000080B0
:1050800003000000000000F003000000030000FC2B
:10509000030000001F0000FE070000007F0080FFEB
:1050A00007000080FF00C0FF07000080FF01C0FF75
:1050B00007000080FF03E0FF01000080FF07F03FD2
:1050C00000000000FE0FF00F00000000F00FF807D6
:1050D00000000000E01FF80300000000C01FF801FE
:1050E00000000000801FFC0100800700803FFC00E2
:1050F00000003F00003FFC0000003F00003FFC00BC
:1051000000003F00003FFC0000003F00003FFC00AB
:1051100000003F00003FFC0000007F00003FFC005B
:1051200000007F00003FFC0100807F00803FF8010D
:105130000080FF00C01FF8030080FF01C01FF803BC
:1051400000C0FF03F00FF00700E0FF0FF80FF00FB3
:1051500000F0FFFFFF07E03F00F8F3FFFF03E0FF71
:1051600001FFE3FFFF03C0FFFFFFC1FFFF0180FF5F
:10517000FFFF81FF7F0000FFFFFF00FE3F0000FEFA
:10518000FF7F00F8070000F8FF1F0000000000E0AC
:10519000FF0F000000000000FF0100000000000001
:1051A0000000000000000000FE03000000000000FE
:1051B000FE0F000000000000FE1F000000000000C5
:1051C000FE7F000000000000FEFF01000000000064
:1051D000FEFF030000000000FEFE0F0000000000C4
:1051E000FEFC1F0000000000FEF07F000000000039
:1051F000FEC0FF0000000000FE80FF030000000072
:10520000FE00FE0700000000FE00FC1F0000000082
:10521000FE00F03F00000000FE00E0FF0000000084
:10522000FE0080FF03000000FE0000FF07000000FA
:10523000FE0000FC1F000000FE0000F83F00000020
:10524000FE0000E0FF000000FE000080FF01000003
:10525000FE000000FF070000FE000000FC0FF8FF4A
:10526000FFFFFFFFFF3FF8FFFFFFFFFFFF3FF8FFDC
:10527000FFFFFFFFFF3FF8FFFFFFFFFFFF3FF8FFCC
:10528000FFFFFFFFFF3FF8FFFFFFFFFFFF3FF8FFBC
:10529000FFFFFFFFFF3F0000FE00000000000000D6
:1052A000FE00000000000000FE0000000000000002
:1052B000FE00000000000000FE00000000000000F2
:1052C000FE00000000000000FE00000000000000E2
:1052D000FE00000000000000000000000000008050
:1052E00003000000000000F003C00100000000FC0B
:1052F00003C07F00000000FF07C0FF1F000080FF09
:1053000007C0FFFF0700C0FF07C0FFFFFF01E0FF6E
:1053100007E0FFFFFF0FE0FF01E0FFFFFF0FF03F9F
:1053200000C0FFFFFF0FF00F0080FFFFFF0FF80727
:1053300000007FE0FF0FF8030000FE00F80FF80107
:105340000000FC00E00FFC010000FC00E00FFC008E
:105350000000F800E00FFC000000F801E00FFC0086
:105360000000F801E00FFC000000F801E00FFC0075
:105370000000F801E00FFC000000F801E00FFC0065
:105380000000F801E00FFC010000FC01E00FF80153
:105390000000FC01E00FF8030000FE01E00FF80739
:1053A0000000FE00E00FF00F0000FF00E00FF01F14
:1053B00000807F00E00FE07F00E07F00E00FC0FF93
:1053C00003FC3F00E00FC0FFFFFF1F00E00F80FF66
:1053D000FFFF1F00E00F00FEFFFF0F00E00F00FCCB
:1053E000FFFF0300E00F00F0FFFF0100E00F00C02F
:1053F000FF7F000000000000FE0F00000000000022
:10540000000000000000000000000000000000009C
:10541000C0FFFF0000000000FEFFFF3F000000C0D3
:10542000FFFFFFFF010000F8FFFFFFFF070000FC88
:10543000FFFFFFFF1F0000FFFFFFFFFF7F0080FF58
:10544000FFFF03FEFF00C0FF03FC0FC0FF01E07F72
:1054500000E01F00FF03E01F00801F00FC07F00FAB
:1054600000003F00F007F00700007E00E00FF803A7
:1054700000007E00C01FF8010000FC00801FF80142
:105480000000FC00801FFC000000F800803FFC00D2
:105490000000F801003FFC000000F801003FFC00A4
:1054A0000000F801003FFC000000F801003FFC0094
:1054B0000000F801003FFC010000FC01003FFC017E
:1054C0000000FC01803FF8030000FC00803FF8036F
:1054D0000000FE00C01FF8070000FF00E01FF01FE3
:1054E00000807F00F81FF03F00E07F00FE0FE0FF2C
:1054F00001FC3F80FF07C0FFFFFF1F80FF0780FF09
:10550000FFFF0F80FF0300FFFFFF0780FF0100FE8A
:10551000FFFF03007F0000F8FFFF01003F0000E0F5
:10552000FF3F000007000000FE0700000000000031
:10553000000000000000000000000000000000006B
:1055400000000000E00F000000000000E00F00007D
:1055500000000000E00F000000000000E00F00006D
:1055600000000000E00F000000000000E00F00005D
:1055700000000000E00F000000000000E00FF80154
:1055800000000000E00FF83F00000000E00FF8FF0F
:1055900003000000E00FF8FF3F000000E00FF8FFFD
:1055A000FF010000E00FF8FFFF070000E00FF8FF29
:1055B000FF3F0000E00F00FFFFFF0000E00F00C012
:1055C000FFFF0300E00F0000FCFF0F00E00F0000F2
:1055D000C0FF3F00E00F000000FEFF00E00F0000F2
:1055E00000F0FF03E00F000000C0FF07E00F000025
:1055F0000000FE1FE00F00000000F83FE00F000079
:105600000000E07FE00F0000000080FFE10F0000DD
:10561000000000FEE30F0000000000F8E70F0000AC
:10562000000000F0EF0F0000000000C0FF0F0000BE
:1056300000000080FF0F000000000000FE0F0000CF
:1056400000000000FC0F000000000000F00F000050
:1056500000000000E00F000000000000C00F00008C
:1056600000000000000000000000000000000080BA
:10567000FF010000000000F0FF0F0000000000FC30
:10568000FF3F00F8070000FEFF7F00FE3F0000FF25
:10569000FFFF80FFFF0080FFFFFFC1FFFF01C0FF92
:1056A000FFFFE3FFFF03E0FF00FFE3FFFF07F03F23
:1056B00000FCF7FFFF07F00F00F0F70FFC0FF807F3
:1056C00000E0FF03F00FF80300C0FF01E01FF80344
:1056D0000080FF00C01FFC0100807F00803FFC01B4
:1056E00000807F00803FFC0000003F00003FFC0086
:1056F00000003F00003FFC0000003F00003FFC00B6
:1057000000003F00003FFC0000003F00003FFC00A5
:1057100000003F00003FFC0100807F00803FFC0153
:1057200000807F00801FF80100C0FF00C01FF80349
:1057300000C0FF01E01FF80700E0FF03F00FF00FCB
:1057400000F0FF0FFC0FF01F00FCF3FFFF07E0FF6E
:1057500000FFE3FFFF07C0FFFFFFE1FFFF0380FF44
:10576000FFFFC1FFFF0100FFFFFF80FF7F0000FE82
:10577000FF7F00FE3F0000FCFF1F00F8070000F065
:10578000FF0F000000000080FF010000000000008B
:105790000000000000000000000000000000000009
:1057A0000000E0FF000000E00000FCFF070000FC3C
:1057B0000080FFFF1F0000FF00C0FFFF7F0080FF91
:1057C00001E0FFFFFF00C0FF01F0FFFFFF01E0FF6E
:1057D00001F8FFFFFF03F0FF01FC3FC0FF07F07F70
:1057E00000FE0700FE0FF80F00FE0100F80FF8079B
:1057F00000FF0000F01FF803007F0000E01FFC0125
:10580000007F0000C01FFC01803F0000803FFC00C3
:10581000803F0000803FFC00801F0000003FFC0034
:10582000801F0000003FFC00801F0000003FFC00C4
:10583000801F0000003FFC00801F0000003FFC01B3
:10584000001F0000003FF801003F0000801FF80328
:10585000003F0000801FF803003E0000C01FF0075B
:10586000007E0000C00FE00F00FC0000E00FE03FF2
:1058700000F80100F807C0FF00F00700FC0780FFF8
:1058800007E03F80FF0300FFFFC1FFFFFF0100FEB5
:10589000FFFFFFFFFF0000F8FFFFFFFF3F0000E0FA
:1058A000FFFFFFFF1F000080FFFFFFFF070000005A
:1058B000FCFFFFFF0000000000FFFF0700000000EA
:1058C00000000000000000000000000000000000D8
:1058D0000000000000000000183C3C3C18181800B4
:1058E0001818000000000066666624000000000032
:1058F00000000000000000000036367F3636367F9C
:1059000036360000000018183E6343033E606163B2
:105910003E181800000000000000436330180C0619
:1059200063610000000000001C36361C6E3B333300
:10593000336E00000000000C0C0C0600000000009C
:10594000000000000000000030180C0C0C0C0C0CC7
:1059500018300000000000000C18303030303030BB
:10596000180C000000000000000000663CFF3C66D0
:10597000000000000000000000000018187E181849
:1059800000000000000000000000000000000018FF
:1059900018180C000000000000000000007F00004C
:1059A00000000000000000000000000000000000F7
:1059B00018180000000000000000406030180C06BD
:1059C00003010000000000003E6363736B6B6763BC
:1059D000633E000000000000181C1E18181818185C
:1059E000187E0000000000003E636030180C0603C3
:1059F000637F0000000000003E6360603C60606008
:105A0000633E00000000000030383C36337F303009
:105A100030780000000000007F0303033F706060E7
:105A2000633E0000000000001C0603033F63636345
:105A3000633E0000000000007F63606030180C0CC3
:105A40000C0C0000000000003E6363633E63636370
:105A5000633E0000000000003E6363637E606060A0
:105A6000301E0000000000000000181800000018A0
:105A700018000000000000000000181800000018C6
:105A8000180C000000000000006030180C060C1814
:105A90003060000000000000000000007F00007F78
:105AA000000000000000000000060C1830603018F4
:105AB0000C060000000000003E6363301818180058
:105AC0001818000000000000003E63637B7B7B3BF6
:105AD000033E000000000000081C3663637F636320
