:020000040800F2
:10000000B008002001010008590C00089D060008F6
:10001000A90A000845030008891400080000000030
:10002000000000000000000000000000A10E000819
:100030004F05000800000000CD0C0008D50F000897
:100040001B0100081B0100081B0100081B01000820
:100050001B0100081B0100081B0100081B01000810
:100060001B0100081B0100081B0100081B01000800
:100070001B0100081B0100081B0100081B010008F0
:100080001B0100081B0100081B0100081B010008E0
:100090001B0100081B0100081B0100081B010008D0
:1000A0001B0100081B0100081B0100081B010008C0
:1000B000391000081B0100081B0100081B01000883
:1000C0001B0100081B0100081B0100081B010008A0
:1000D0001B0100081B0100081B0100081B01000890
:1000E0001B0100081B0100081B010008DFF80CD0F1
:1000F00000F03CF800480047CD160008B00800208A
:100100000648804706480047FEE7FEE7FEE7FEE7B1
:10011000FEE7FEE7FEE7FEE7FEE7FEE7D90F000891
:10012000ED00000840EA01039B0703D009E008C97D
:10013000121F08C0042AFAD203E011F8013B00F8AC
:10014000013B521EF9D27047D2B201E000F8012BF8
:10015000491EFBD270470022F6E710B513460A4647
:1001600004461946FFF7F0FF204610BD064C074D28
:1001700006E0E06840F0010394E807009847103477
:10018000AC42F6D3FFF7B6FF4C1800086C18000815
:1001900021B1826842F00102826003E0826822F0AD
:1001A00001028260704721B1826842F480728260ED
:1001B00003E0826822F4807282607047014600206A
:1001C0008A6802F004020AB1012000E000207047B2
:1001D000014600208A6802F008020AB1012000E00E
:1001E0000020704730B502460020002350680F4CB5
:1001F00020400D790C6844EA052420435060906843
:100200000B4C2040D1E902542C434D7944EA45047B
:1002100020439060D06A20F470000C7C641EE4B22D
:10022000234340EA0350D06230BD0000FFFEF0FFE0
:10023000FDF7F1FFF0B504460D4600200021092D21
:1002400011DDE068A5F10A0606EB4607072606FA67
:1002500007F18843A5F10A0606EB460603FA06F104
:100260000843E0600CE0206905EB4507072606FA25
:1002700007F1884305EB450603FA06F108432061C0
:10028000072A0FDA606B561E06EB86071F2606FA52
:1002900007F18843561E06EB860605FA06F1084369
:1002A000606322E00D2A0FDA206BD61F06EB86076B
:1002B0001F2606FA07F18843D61F06EB860605FAC5
:1002C00006F10843206310E0E06AA2F10D0606EB98
:1002D00086071F2606FA07F18843A2F10D0606EBF2
:1002E000860605FA06F10843E062F0BD816841F038
:1002F00008018160704721B1826842F4A0028260E7
:1003000003E0826822F4A00282607047816841F0B5
:1003100004018160704701464A6C885C4A6C521C3B
:100320004A644A6C402A01D100224A647047026C38
:100330008154026C521C0264026C402A01D10022DA
:100340000264704700BFFEE710B5054800F072FD7B
:1003500000F0B4FB6421072001F0EAF910BD0000B1
:10036000C400002030B502460024012303E0D05C25
:10037000204484B25B1C8B42F9DB481C105C555C4A
:1003800000EB0520A04201D1012030BD0020FCE798
:1003900021B1026842F00102026004E002684FF6F7
:1003A000FE731A400260704701684FF6FE721140FA
:1003B00001600021016041608160C1604B49884259
:1003C00008D14A490839496841F00F01474A083ABB
:1003D00051608AE045491431884208D143490839BF
:1003E000496841F0F001414A083A51607DE03F49D7
:1003F0002831884208D13D490839496841F4706183
:100400003A4A083A516070E038493C31884208D194
:1004100036490839496841F47041344A083A516014
:1004200063E032495031884208D13049083949687F
:1004300041F470212D4A083A516056E02B4964314D
:10044000884208D129490839496841F47001274A8E
:10045000083A516049E025497831884208D123495A
:100460000839496841F07061204A083A51603CE01F
:100470001F49884206D1011F096841F00F01021F80
:10048000116032E01A491431884208D11849091F15
:10049000096841F0F001164A121F116025E0144965
:1004A0002831884208D11249091F096841F4706156
:1004B0000F4A121F116018E00D493C31884208D1E3
:1004C0000B49091F096841F47041094A121F116064
:1004D0000BE007495031884207D10549091F0968D7
:1004E00041F47021024A121F116070470800024057
:1004F000080402400146486880B2704710B50022E7
:10050000026847F6F0739A430C6A8B6823430C69C0
:1005100023434C6923438C692343CC6923434C6AAE
:1005200023438C6A23431A430260CB6843600B6801
:1005300083604B68C36010BD036823F00103036050
:10054000C1604260036843F0010303607047704775
:100550002DE9F0410246002500260020002300245A
:10056000002791F803C00CF00F0591F803C00CF0C0
:10057000100CBCF1000F03D091F802C04CEA050545
:1005800091F800C0BCF1000F31D0146800202BE0BE
:100590004FF0010C0CFA00F3B1F800C00CEA0306AE
:1005A0009E4220D183004FF00F0C0CFA03F7BC439E
:1005B00005FA03FC4CEA040491F803C0BCF1280FCF
:1005C00006D14FF0010C0CFA00FCC2F814C00AE08E
:1005D00091F803C0BCF1480F05D14FF0010C0CFAA3
:1005E00000FCC2F810C0401C0828D1D31460B1F838
:1005F00000C0BCF1FF0F34DD546800202EE000F194
:10060000080C4FF0010808FA0CF3B1F800C00CEA2E
:1006100003069E4221D183004FF00F0C0CFA03F722
:10062000BC4305FA03FC4CEA040491F803C0BCF196
:10063000280F05D100F1080C08FA0CF8C2F8148054
:1006400091F803C0BCF1480F07D100F1080C4FF03E
:10065000010808FA0CF8C2F81080401C0828CED314
:100660005460BDE8F0814161704701617047014607
:10067000D1E910239A4203DBD1E91023D01A03E019
:100680000A6C40324B6CD01A7047000010B502481B
:10069000FFF730FF10BD00006C00024000BFFEE716
:1006A00000B591B04FF4804000F012FB01210846E4
:1006B00000F01AFB01214FF4017000F035FB01201E
:1006C000ADF8400000208DF8430010A94048FFF726
:1006D0003FFF0220ADF8400010A93D48FFF738FF6A
:1006E0008020ADF8400010A93948FFF731FF3948A4
:1006F000FFF75AFE384800903848019000200290D9
:100700000320039000200490802005904000069074
:1007100080000790202008900002099000200A9095
:1007200069462C48FFF7EAFE01212A48FFF730FE10
:1007300000200B9001208DF830008DF831004FF42F
:1007400060200D9000200E9003208DF83C000BA936
:1007500021484C38FFF746FD0523012200211E48A1
:100760004C38FFF767FD0523012211461A484C3823
:10077000FFF760FD05230122072117484C38FFF7DA
:1007800059FD012114484C38FFF70DFD0121124895
:100790004C38FFF7FDFC10484C38FFF7A7FD00BFB1
:1007A0000D484C38FFF714FD0028F9D10A484C38A1
:1007B000FFF7ACFD00BF08484C38FFF7FFFC0028EE
:1007C000F9D1012104484C38FFF795FD11B000BD67
:1007D00000080140080002404C2401402400002091
:1007E00008B50220ADF8000003208DF802001020AB
:1007F0008DF8030069460248FFF7AAFE08BD000015
:10080000000C014008B58020ADF8000003208DF8F1
:10081000020010208DF8030069460248FFF798FE99
:1008200008BD0000000C014008B54FF48070ADF821
:10083000000003208DF8020010208DF803006946A7
:100840000948FFF785FE4FF40070ADF800006946D7
:100850000548FFF77DFE4FF48060ADF80000694663
:100860000148FFF775FE08BD0010014008B54FF4C0
:100870008060ADF8000003208DF8020010208DF894
:10088000030069463148FFF763FE4FF40060ADF89E
:10089000000069462D48FFF75BFE4FF48050ADF82D
:1008A000000069462948FFF753FE4FF40050ADF8A9
:1008B000000069462548FFF74BFE4FF48040ADF835
:1008C000000069462148FFF743FE4FF40040ADF8B1
:1008D000000069461D48FFF73BFE0120ADF800000F
:1008E00069461B48FFF734FE0220ADF80000694658
:1008F0001748FFF72DFE0420ADF8000069461448A4
:10090000FFF726FE0820ADF8000069461048FFF703
:100910001FFE1020ADF8000069460D48FFF718FED5
:100920002020ADF8000069460948FFF711FE40207D
:10093000ADF8000069460648FFF70AFE8020ADF8D2
:10094000000069460248FFF703FE08BD000C0140A5
:100950000010014008B50120ADF8000003208DF81B
:10096000020010208DF8030069460248FFF7F0FDF1
:1009700008BD0000000C014008B54FF48050ADF8F0
:10098000000003208DF8020010208DF80300694656
:100990000148FFF7DDFD08BD0010014010B500F073
:1009A00041F900F00BF910BD08B54020ADF800008A
:1009B00003208DF8020048208DF8030069460248A4
:1009C000FFF7C6FD08BD000000080140002141649A
:1009D0000164402181640021C164704708B5202072
:1009E000ADF8000003208DF8020048208DF80300C8
:1009F00069460248FFF7ACFD08BD00000008014051
:100A000008B54FF40060ADF8000003208DF8020037
:100A100010208DF8030069460148FFF799FD08BDD5
:100A20000010014008B51020ADF8000003208DF83B
:100A3000020048208DF8030069460248FFF788FD50
:100A400008BD00000008014010B5F822064907481B
:100A500000F074FD4021064800F0FAFB04485038CD
:100A6000FFF7B4FF10BD000060010020540100201A
:100A70001401002008B54FF40060ADF80000032019
:100A80008DF8020010208DF8030069460548FFF735
:100A90005FFD4FF48050ADF8000069460148FFF754
:100AA00057FD08BD0008014000BFFEE710B5044631
:100AB000204600F0C7FE012010BD000070B5384D83
:100AC00000263848FFF7D3FD86B264E03548FFF7CB
:100AD00022FC04463448007800284AD03348007885
:100AE00060B3334800782C5431480078401C3049BA
:100AF000087030480078401E2E490870084600787B
:100B0000002846DC69782846FFF72CFC58B14FF4E2
:100B1000967223492848FFF705FB2748FFF7C6FFD1
:100B2000022000F0E3FC00201F4908701F490870F4
:100B30004FF496711A48FFF70EFB2AE040F22B1093
:100B4000844210DA002C0EDD154819490978445406
:100B50001848047001201549087015480078401C99
:100B60001349087015E000200F4908700F490870FC
:100B70000FE0FF2C0DD10A48047001200A490870CB
:100B800000200A490870012009490870002009491D
:100B90000870701E86B2002E98DC012070BD000027
:100BA00058020020C4000020310000203200002044
:100BB00033000020340000208403002000B587B0FB
:100BC00044F24F60ADF8140040F2E730ADF8100089
:100BD0000020ADF81600ADF8120004A9104800F08E
:100BE000C7FA6020ADF800000020ADF80800012031
:100BF000ADF802000020ADF806006946084800F094
:100C000061FA0821064800F0A9FA0121044800F021
:100C100020FA0121024800F02EFA07B000BD0000C2
:100C20000008004008B50121042000F06DF8012102
:100C3000092000F079F84020ADF8000018208DF868
:100C4000030003208DF8020069460248FFF780FC8C
:100C500008BD0000000C01407047000070B5002185
:100C600000230F22C47804B3154C246804F4E06414
:100C7000C4F5E064210AC1F10403CA40447804FACF
:100C800003F184781440214309010E4C0678A155E4
:100C9000047804F01F050124AC4005786D11AD0007
:100CA00005F1E025C5F8004109E0047804F01F05CE
:100CB0000124AC40044D0678761145F8264070BDFD
:100CC0000CED00E000E400E080E100E0704700008F
:100CD00001460020034A506820F440400843506019
:100CE000704700000010024029B1064A52690243D1
:100CF000044B5A6104E0034A52698243014B5A6132
:100D0000704700000010024029B1064AD269024330
:100D1000044BDA6104E0034AD2698243014BDA6191
:100D2000704700000010024029B1064A9269024350
:100D3000044B9A6104E0034A92698243014B9A6131
:100D4000704700000010024030B50021002200244E
:100D500000232D4D6D6805F00C0121B1042905D04B
:100D6000082923D105E0294D056022E0274D0560C3
:100D70001FE0254D6D6805F47012234D6D6805F474
:100D80008034022505EB92421CB9214D5543056084
:100D90000BE01D4D6D6805F400351DB11C4D55432C
:100DA000056002E0194D5543056002E0174D0560EE
:100DB00000BF00BF144D6D6805F0F0010909154D25
:100DC0006B5C0568DD4045600F4D6D6805F4E061C2
:100DD000090A104D6B5C4568DD4085600A4D6D6801
:100DE00005F46051C90A0B4D6B5C4568DD40C56078
:100DF000054D6D6805F44041890B074D6B5CC56876
:100E0000B5FBF3F5056130BD0010024000127A0019
:100E100000093D00000000201000002001460020D5
:100E2000034A506820F4E0600843506070470000B7
:100E3000001002402DE9F0410446FFF727FC074669
:100E4000A06CB84202DBA06CC61B02E0A06C403074
:100E5000C61BA764002516E0E06C2844402809DB87
:100E6000E06C2844403804F15002115C2046FFF742
:100E70005EFA07E0E06C421904F15000815C204604
:100E8000FFF755FA6D1CB542E6DBE06C3044E064D8
:100E9000E06C402802DBE06C4038E064BDE8F081A3
:100EA000704710B500F002F810BD00000CB500202E
:100EB000019000903348006840F480303149086068
:100EC00000BF3048006800F4003000900198401CDA
:100ED0000190009818B90198B0F5A06FF1D1294898
:100EE000006800F4003010B10120009001E0002003
:100EF00000900098012843D12348006840F010007A
:100F0000214908600846006820F003000860084690
:100F1000006840F0020008601A48406819494860BB
:100F20000846406848600846406840F48060486071
:100F30000846406820F47C1048600846406840F449
:100F4000E81048600846006840F08070086000BF04
:100F50000C48006800F000700028F9D0094840688B
:100F600020F00300074948600846406840F002004E
:100F7000486000BF0348406800F00C000828F9D121
:100F80000CBD0000001002400020024010B50446D5
:100F900024B101210448FFF766FB03E00121024868
:100FA000FFF763FB10BD0000000C0140042808D1CE
:100FB0004FF0E021096941F004014FF0E022116196
:100FC00007E04FF0E021096921F004014FF0E02231
:100FD000116170477047000010B51348006840F079
:100FE00001001149086008464068104908400E4950
:100FF0004860084600680E4908400B4908600846EA
:10100000006820F4802008600846406820F4FE0054
:1010100048604FF41F008860FFF743FF4FF0006007
:101020000449086010BD0000001002400000FFF8F5
:10103000FFFFF6FE08ED00E010B50121880700F083
:1010400026F828B100F09AFB0121880700F010F87B
:1010500010BD21B1028842F08002028004E00288C3
:101060004FF67F731A4002807047CA43028270476E
:10107000CA430282704721B1028842F00102028015
:1010800004E002884FF6FE731A400280704730B5C4
:101090000246002000230024158A05EA01039589F1
:1010A00005EA010413B10CB1012000E0002030BDBD
:1010B0001AB183890B43838102E083898B43838147
:1010C0007047000070B5002400220023058C4FF605
:1010D000FE7635400584028C8388048B4FF68F752D
:1010E0002C40B51E2C400D882C43751E2A400D89BE
:1010F0002A434D882A43144DA8420BD0134DA842D1
:1011000008D0134DA84205D0124DA84202D0124D6E
:10111000A84213D14FF6F7752A404D892A434FF65E
:10112000FB752A408D882A434FF6FF652B404FF60A
:10113000FF552B408D892B43CD892B43838004831E
:10114000CD888586028470BD002C014000340140AA
:101150000040014000440140004801400A4600218F
:10116000018B4FF6F773194011430183704700005C
:10117000002202881D4B98420ED01D4B98420BD086
:10118000B0F1804F08D01B4B984205D01A4B9842C3
:1011900002D01A4B984204D14FF68F731A404B88F5
:1011A0001A43174B984207D0164B984204D04FF67B
:1011B000FF431A40CB881A4302808B8883850B88B3
:1011C00003850A4B98420BD0094B984208D00E4B2E
:1011D000984205D00D4B984202D00D4B984201D158
:1011E0000B7A03860123838270470000002C0140A4
:1011F000003401400004004000080040000C0040A2
:101200000010004000140040004001400044014034
:101210000048014010B5CCB04FF4967101A8FEF71C
:101220009AFF4FF4967201A9084800F08EF904461F
:1012300034B1214601A800F01BF91E2000F056F938
:101240001E21062000F074FA4CB010BD540100209D
:1012500030B591B005460C4601210846FFF744FD24
:1012600001210520FFF760FD01214804FFF74CFD37
:101270000820ADF8400004208DF8430010A938483C
:10128000FFF766F90420ADF8400003208DF8420016
:1012900018208DF8430010A93148FFF759F931485B
:1012A000FFF782F830480590002006901020079044
:1012B00000200890099080200A9000200B900C904C
:1012C0000D904FF400500E9000200F9005A9254876
:1012D000FFF714F923481438FFF766F82248059001
:1012E0000695002007900894099080200A9000201D
:1012F0000B900C9020200D9000020E9000200F907B
:1013000005A918481438FFF7F9F80122C02116483A
:10131000001F00F037F8012112481438FFF738F8A1
:1013200001211048FFF734F84FF4E130019000201C
:10133000ADF80800ADF80A00ADF80C00ADF81000EB
:101340000C20ADF80E0001A90748001F00F024F89A
:1013500001210548001F00F009F811B030BD000060
:1013600000080140800002400444004021B182890D
:1013700042F40052828104E082894DF6FF731A40E4
:10138000828170471AB1838A0B43838202E0838A89
:101390008B438382704700002DE9F04786B00546F5
:1013A0000E460024A24600BFA1460027B08900B126
:1013B00000BF2F462C8A4CF6FF700440F08804438F
:1013C0002C82AC894EF6F3100440B0883189084372
:1013D000718908430443AC81AC8A4FF6FF40044056
:1013E000B0890443AC8201A8FFF7AEFC1F488742D6
:1013F00002D1DDF810A001E0DDF80CA0A88900F40E
:10140000004040B10AEBCA0000EB0A103168490005
:10141000B0FBF1F807E00AEBCA0000EB0A103168F4
:101420008900B0FBF1F86420B8FBF0F0040120095A
:10143000642101FB1089A88900F4004040B13220EA
:1014400000EBC900B0FBF1F000F00700044308E036
:10145000322000EB09106421B0FBF1F000F00F0026
:1014600004432C8106B0BDE8F0870000003801403D
:1014700070B504460D462A4621460248FFF75CF83F
:1014800070BD00008000024000BFFEE702E008C817
:10149000121F08C1002AFAD170477047002001E0EE
:1014A00001C1121F002AFBD17047000010B56FF078
:1014B0000400FFF77BFD094800680949B0FBF1F023
:1014C00040B208490870084690F900004FF47A715C
:1014D000484300B20449088010BD000038000020D5
:1014E00000127A0014000020160000200146124A63
:1014F000B2F900204A434FF0E0235A6100229A617A
:101500001A46126942F001021A6100BF4FF0E02250
:10151000106900F001021AB100F48032002AF5D0FF
:101520004FF0E022126922F001024FF0E0231A612D
:1015300000229A617047000016000020816000239D
:101540008380C28043800380704730B503460C46D9
:101550009888904200DC9A8800210EE05888DD8847
:10156000A84201DB002058805D889868405D605487
:101570005888401C5880481C81B29142EEDB988804
:10158000801A9880104630BD10B501211C20FFF74D
:10159000CBFB0121C802FFF7C7FB01210720FFF7A2
:1015A000B3FBFFF7D7F9FFF71BF9FFF73BFAFFF79C
:1015B00015FAFFF7F9F9FFF773F8FFF75BFAFFF792
:1015C00021F9FFF753F9FFF72FF9FFF719FAFFF7A2
:1015D000D3F9FFF739FAFFF7E1F910BD10B5FFF7BE
:1015E000D3FF06220121084800F080F807220121DC
:1015F000064800F07BF801221146054800F076F815
:10160000002000F0C3F810BD1512000849030008BF
:10161000951600081FB54FF4C060FFF7FFFB0121CE
:101620000846FFF771FB1C208DF8000001208DF8A3
:1016300001008DF802008DF803006846FFF70EFBED
:1016400013480068C0084FF47A71B0FBF1F0401EF7
:1016500080B2ADF808000120ADF804000020ADF81C
:101660000A00ADF806008DF80C0001A94FF080408B
:10167000FFF77EFD01218807FFF7F7FC01221146E5
:101680009007FFF715FD01218807FFF7F4FC1FBD48
:101690003800002010B50C48007808B9012000E09F
:1016A0000020094908700846007818B10020FFF7AB
:1016B0006DFC02E00120FFF769FC4FF47A71012014
:1016C00000F036F810BD00003000002010B5FFF724
:1016D000EDFE00F04FF800220121034800F006F86B
:1016E00000F066F8002010BDDD15000870B5034657
:1016F0000020104600EB40040C4D05EB84046171A2
:1017000000EB400405EB8404227100EB400445F833
:101710002430002400EB4005044E06EB8505EC80E8
:1017200000EB400506EB8505AC6070BD4C00002069
:1017300030B5092800DD30BD00BF02460B4B1B68E9
:1017400002EB42040A4D05EB8404A3604FF47A7364
:101750004B434FF47A74B3FBF4F302EB420405EB12
:101760008404E38000BF00BFE5E70000180000200C
:101770004C00002010B5FFF74DFF10BD0248006877
:10178000401C0149086070471800002010B5092866
:1017900000DD10BD00210146002201EB4103034C96
:1017A00004EB83035A7100BF00BFF2E74C00002036
:1017B00040E000202049086038E01F48006800EB46
:1017C00040001E4901EB80004079012829D11A48C8
:1017D000006800EB400001EB800080681649096852
:1017E00001EB4101154A02EB8101C9880844144903
:1017F0000968884215D800200F49096801EB4101AA
:1018000002EB810188600C49096801EB410102EBA0
:101810008101C8800849096801EB410152F82100A3
:10182000804705480068401C03490860024800687A
:101830000A28C2D3BDE70000200000204C00002091
:10184000180000200146CA78704700006C18000894
:10185000000000204C0000008C140008B81800089C
:101860004C000020640800009C14000800000000E8
:101870000102030401020304060708090204060822
:101880000000000000000000000000000000000058
:101890000000000000000000000000000000000048
:1018A0000000000000A24A04000000000000000048
:0818B000010203040607080908
:04000005080000ED02
:00000001FF
